{"src/contracts/candleGenie.sol":{"CandleGeniePrediction":{"abi":[{"anonymous":false,"inputs":[{"indexed":true,"internalType":"address","name":"sender","type":"address"},{"indexed":true,"internalType":"uint256","name":"epoch","type":"uint256"},{"indexed":false,"internalType":"uint256","name":"amount","type":"uint256"}],"name":"BearBet","type":"event"},{"anonymous":false,"inputs":[{"indexed":true,"internalType":"address","name":"sender","type":"address"},{"indexed":true,"internalType":"uint256","name":"epoch","type":"uint256"},{"indexed":false,"internalType":"uint256","name":"amount","type":"uint256"}],"name":"BullBet","type":"event"},{"anonymous":false,"inputs":[{"indexed":true,"internalType":"address","name":"sender","type":"address"},{"indexed":true,"internalType":"uint256","name":"epoch","type":"uint256"},{"indexed":false,"internalType":"uint256","name":"amount","type":"uint256"}],"name":"Claimed","type":"event"},{"anonymous":false,"inputs":[{"indexed":true,"internalType":"address","name":"sender","type":"address"},{"indexed":true,"internalType":"uint256","name":"epoch","type":"uint256"},{"indexed":false,"internalType":"uint256","name":"bullAmount","type":"uint256"},{"indexed":false,"internalType":"uint256","name":"bearAmount","type":"uint256"}],"name":"HouseBet","type":"event"},{"anonymous":false,"inputs":[{"indexed":true,"internalType":"uint256","name":"epoch","type":"uint256"},{"indexed":false,"internalType":"uint256","name":"minBetAmount","type":"uint256"}],"name":"MinBetAmountUpdated","type":"event"},{"anonymous":false,"inputs":[{"indexed":true,"internalType":"address","name":"previousOwner","type":"address"},{"indexed":true,"internalType":"address","name":"newOwner","type":"address"}],"name":"OwnershipTransferred","type":"event"},{"anonymous":false,"inputs":[{"indexed":true,"internalType":"uint256","name":"epoch","type":"uint256"}],"name":"Paused","type":"event"},{"anonymous":false,"inputs":[{"indexed":true,"internalType":"address","name":"sender","type":"address"},{"indexed":true,"internalType":"uint256","name":"epoch","type":"uint256"},{"indexed":false,"internalType":"uint256","name":"amount","type":"uint256"}],"name":"Refunded","type":"event"},{"anonymous":false,"inputs":[{"indexed":false,"internalType":"uint256","name":"roundDuration","type":"uint256"}],"name":"RoundDuratioUpdated","type":"event"},{"anonymous":false,"inputs":[{"indexed":true,"internalType":"uint256","name":"epoch","type":"uint256"},{"indexed":false,"internalType":"int256","name":"price","type":"int256"}],"name":"RoundEnded","type":"event"},{"anonymous":false,"inputs":[{"indexed":true,"internalType":"uint256","name":"epoch","type":"uint256"}],"name":"RoundEndedCancelled","type":"event"},{"anonymous":false,"inputs":[{"indexed":true,"internalType":"uint256","name":"epoch","type":"uint256"},{"indexed":false,"internalType":"int256","name":"price","type":"int256"}],"name":"RoundLocked","type":"event"},{"anonymous":false,"inputs":[{"indexed":true,"internalType":"uint256","name":"epoch","type":"uint256"}],"name":"RoundStarted","type":"event"},{"anonymous":false,"inputs":[{"indexed":true,"internalType":"uint256","name":"epoch","type":"uint256"}],"name":"Unpaused","type":"event"},{"inputs":[{"internalType":"uint256","name":"epoch","type":"uint256"}],"name":"BetBear","outputs":[],"stateMutability":"payable","type":"function"},{"inputs":[{"internalType":"uint256","name":"epoch","type":"uint256"}],"name":"BetBull","outputs":[],"stateMutability":"payable","type":"function"},{"inputs":[{"internalType":"uint256","name":"bullAmount","type":"uint256"},{"internalType":"uint256","name":"bearAmount","type":"uint256"}],"name":"BetHouse","outputs":[],"stateMutability":"nonpayable","type":"function"},{"inputs":[{"internalType":"uint256","name":"","type":"uint256"},{"internalType":"address","name":"","type":"address"}],"name":"Bets","outputs":[{"internalType":"enum CandleGeniePrediction.Position","name":"position","type":"uint8"},{"internalType":"uint256","name":"betTimestamp","type":"uint256"},{"internalType":"uint256","name":"claimTimestamp","type":"uint256"},{"internalType":"uint256","name":"amount","type":"uint256"},{"internalType":"bool","name":"claimed","type":"bool"}],"stateMutability":"view","type":"function"},{"inputs":[{"internalType":"uint256[]","name":"epochs","type":"uint256[]"}],"name":"Claim","outputs":[],"stateMutability":"nonpayable","type":"function"},{"inputs":[{"internalType":"uint256","name":"value","type":"uint256"}],"name":"FundsExtract","outputs":[],"stateMutability":"nonpayable","type":"function"},{"inputs":[],"name":"FundsInject","outputs":[],"stateMutability":"payable","type":"function"},{"inputs":[],"name":"OwnershipRenounce","outputs":[],"stateMutability":"nonpayable","type":"function"},{"inputs":[{"internalType":"address","name":"newOwner","type":"address"}],"name":"OwnershipTransfer","outputs":[],"stateMutability":"nonpayable","type":"function"},{"inputs":[],"name":"Pause","outputs":[],"stateMutability":"nonpayable","type":"function"},{"inputs":[],"name":"Resume","outputs":[],"stateMutability":"nonpayable","type":"function"},{"inputs":[{"internalType":"uint256","name":"epoch","type":"uint256"},{"internalType":"bool","name":"cancelled","type":"bool"},{"internalType":"bool","name":"closed","type":"bool"}],"name":"RoundCancel","outputs":[],"stateMutability":"nonpayable","type":"function"},{"inputs":[{"internalType":"int256","name":"price","type":"int256"}],"name":"RoundExecute","outputs":[],"stateMutability":"nonpayable","type":"function"},{"inputs":[{"internalType":"int256","name":"price","type":"int256"}],"name":"RoundLock","outputs":[],"stateMutability":"nonpayable","type":"function"},{"inputs":[],"name":"RoundStart","outputs":[],"stateMutability":"nonpayable","type":"function"},{"inputs":[{"internalType":"uint256","name":"","type":"uint256"}],"name":"Rounds","outputs":[{"internalType":"uint256","name":"epoch","type":"uint256"},{"internalType":"uint256","name":"bullAmount","type":"uint256"},{"internalType":"uint256","name":"bearAmount","type":"uint256"},{"internalType":"uint256","name":"rewardBaseCalAmount","type":"uint256"},{"internalType":"uint256","name":"rewardAmount","type":"uint256"},{"internalType":"int256","name":"lockPrice","type":"int256"},{"internalType":"int256","name":"closePrice","type":"int256"},{"internalType":"uint32","name":"startTimestamp","type":"uint32"},{"internalType":"uint32","name":"lockTimestamp","type":"uint32"},{"internalType":"uint32","name":"closeTimestamp","type":"uint32"},{"internalType":"bool","name":"closed","type":"bool"},{"internalType":"bool","name":"cancelled","type":"bool"}],"stateMutability":"view","type":"function"},{"inputs":[{"internalType":"uint256","name":"_minBetAmount","type":"uint256"}],"name":"SetMinBetAmount","outputs":[],"stateMutability":"nonpayable","type":"function"},{"inputs":[{"internalType":"string","name":"_priceSource","type":"string"}],"name":"SetPriceSource","outputs":[],"stateMutability":"nonpayable","type":"function"},{"inputs":[{"internalType":"uint256","name":"_rewardRate","type":"uint256"}],"name":"SetRewardRate","outputs":[],"stateMutability":"nonpayable","type":"function"},{"inputs":[{"internalType":"uint256","name":"_roundDuration","type":"uint256"}],"name":"SetRoundDuration","outputs":[],"stateMutability":"nonpayable","type":"function"},{"inputs":[{"internalType":"address","name":"","type":"address"},{"internalType":"uint256","name":"","type":"uint256"}],"name":"UserBets","outputs":[{"internalType":"uint256","name":"","type":"uint256"}],"stateMutability":"view","type":"function"},{"inputs":[{"internalType":"address","name":"","type":"address"}],"name":"Users","outputs":[{"internalType":"address","name":"wallet","type":"address"},{"internalType":"uint256","name":"latestEpoch","type":"uint256"},{"internalType":"uint256","name":"bullBetsCount","type":"uint256"},{"internalType":"uint256","name":"bullBetsTotal","type":"uint256"},{"internalType":"uint256","name":"bearBetsCount","type":"uint256"},{"internalType":"uint256","name":"bearBetsTotal","type":"uint256"},{"internalType":"uint256","name":"paidBetsCount","type":"uint256"},{"internalType":"uint256","name":"paidBetsTotal","type":"uint256"}],"stateMutability":"view","type":"function"},{"inputs":[{"internalType":"uint256","name":"epoch","type":"uint256"}],"name":"_bettable","outputs":[{"internalType":"bool","name":"","type":"bool"}],"stateMutability":"view","type":"function"},{"inputs":[{"internalType":"uint256","name":"epoch","type":"uint256"}],"name":"_calculateRewards","outputs":[],"stateMutability":"nonpayable","type":"function"},{"inputs":[],"name":"bullBetsCount","outputs":[{"internalType":"uint256","name":"","type":"uint256"}],"stateMutability":"view","type":"function"},{"inputs":[{"internalType":"uint256","name":"epoch","type":"uint256"},{"internalType":"address","name":"user","type":"address"}],"name":"claimable","outputs":[{"internalType":"bool","name":"","type":"bool"}],"stateMutability":"view","type":"function"},{"inputs":[],"name":"currentEpoch","outputs":[{"internalType":"uint256","name":"","type":"uint256"}],"stateMutability":"view","type":"function"},{"inputs":[],"name":"getAllRounds","outputs":[{"components":[{"internalType":"uint256","name":"epoch","type":"uint256"},{"internalType":"uint256","name":"bullAmount","type":"uint256"},{"internalType":"uint256","name":"bearAmount","type":"uint256"},{"internalType":"uint256","name":"rewardBaseCalAmount","type":"uint256"},{"internalType":"uint256","name":"rewardAmount","type":"uint256"},{"internalType":"int256","name":"lockPrice","type":"int256"},{"internalType":"int256","name":"closePrice","type":"int256"},{"internalType":"uint32","name":"startTimestamp","type":"uint32"},{"internalType":"uint32","name":"lockTimestamp","type":"uint32"},{"internalType":"uint32","name":"closeTimestamp","type":"uint32"},{"internalType":"bool","name":"closed","type":"bool"},{"internalType":"bool","name":"cancelled","type":"bool"},{"components":[{"internalType":"address","name":"user","type":"address"},{"internalType":"enum CandleGeniePrediction.Position","name":"position","type":"uint8"},{"internalType":"uint256","name":"amount","type":"uint256"},{"internalType":"uint256","name":"timestamp","type":"uint256"}],"internalType":"struct CandleGeniePrediction.Player[]","name":"players","type":"tuple[]"}],"internalType":"struct CandleGeniePrediction.Round[]","name":"","type":"tuple[]"}],"stateMutability":"view","type":"function"},{"inputs":[{"internalType":"uint256","name":"epoch","type":"uint256"}],"name":"getRoundPlayers","outputs":[{"components":[{"internalType":"address","name":"user","type":"address"},{"internalType":"enum CandleGeniePrediction.Position","name":"position","type":"uint8"},{"internalType":"uint256","name":"amount","type":"uint256"},{"internalType":"uint256","name":"timestamp","type":"uint256"}],"internalType":"struct CandleGeniePrediction.Player[]","name":"","type":"tuple[]"}],"stateMutability":"view","type":"function"},{"inputs":[],"name":"getStats","outputs":[{"internalType":"uint256","name":"","type":"uint256"},{"internalType":"uint256","name":"","type":"uint256"},{"internalType":"uint256","name":"","type":"uint256"},{"internalType":"uint256","name":"","type":"uint256"},{"internalType":"uint256","name":"","type":"uint256"},{"internalType":"uint256","name":"","type":"uint256"}],"stateMutability":"view","type":"function"},{"inputs":[{"internalType":"address","name":"user","type":"address"}],"name":"getUserParticipatedRounds","outputs":[{"internalType":"uint256[]","name":"","type":"uint256[]"}],"stateMutability":"view","type":"function"},{"inputs":[{"internalType":"address","name":"user","type":"address"},{"internalType":"uint256","name":"cursor","type":"uint256"},{"internalType":"uint256","name":"size","type":"uint256"}],"name":"getUserRounds","outputs":[{"internalType":"uint256[]","name":"","type":"uint256[]"},{"components":[{"internalType":"enum CandleGeniePrediction.Position","name":"position","type":"uint8"},{"internalType":"uint256","name":"betTimestamp","type":"uint256"},{"internalType":"uint256","name":"claimTimestamp","type":"uint256"},{"internalType":"uint256","name":"amount","type":"uint256"},{"internalType":"bool","name":"claimed","type":"bool"}],"internalType":"struct CandleGeniePrediction.Bet[]","name":"","type":"tuple[]"},{"internalType":"uint256","name":"","type":"uint256"}],"stateMutability":"view","type":"function"},{"inputs":[{"internalType":"address","name":"user","type":"address"}],"name":"getUserRoundsLength","outputs":[{"internalType":"uint256","name":"","type":"uint256"}],"stateMutability":"view","type":"function"},{"inputs":[],"name":"lockOnce","outputs":[{"internalType":"bool","name":"","type":"bool"}],"stateMutability":"view","type":"function"},{"inputs":[],"name":"minBetAmount","outputs":[{"internalType":"uint256","name":"","type":"uint256"}],"stateMutability":"view","type":"function"},{"inputs":[],"name":"owner","outputs":[{"internalType":"address","name":"","type":"address"}],"stateMutability":"view","type":"function"},{"inputs":[],"name":"paused","outputs":[{"internalType":"bool","name":"","type":"bool"}],"stateMutability":"view","type":"function"},{"inputs":[],"name":"priceSource","outputs":[{"internalType":"string","name":"","type":"string"}],"stateMutability":"view","type":"function"},{"inputs":[{"internalType":"uint256","name":"epoch","type":"uint256"},{"internalType":"address","name":"user","type":"address"}],"name":"refundable","outputs":[{"internalType":"bool","name":"","type":"bool"}],"stateMutability":"view","type":"function"},{"inputs":[],"name":"rewardRate","outputs":[{"internalType":"uint256","name":"","type":"uint256"}],"stateMutability":"view","type":"function"},{"inputs":[],"name":"roundDuration","outputs":[{"internalType":"uint256","name":"","type":"uint256"}],"stateMutability":"view","type":"function"},{"inputs":[],"name":"startOnce","outputs":[{"internalType":"bool","name":"","type":"bool"}],"stateMutability":"view","type":"function"},{"stateMutability":"payable","type":"receive"}],"evm":{"bytecode":{"linkReferences":{},"object":"6080604052605f60095560f0600a556611c37937e08000600b55600c805461ffff1916905534801561003057600080fd5b50600080546001600160a01b031916339081178255604051909182917f8be0079c531659141344cd1fd0a4f28419497f9722a3daafe3b4186f6b6457e0908290a3506000805460ff60a01b19169055600180556138e1806100926000396000f3fe6080604052600436106102545760003560e01c806383d2f5a011610139578063bc0547e3116100b6578063dfc396911161007a578063dfc39691146108b2578063e5066bbf146108d2578063eef4eeae146108f4578063f7cb789a14610914578063fa968eea1461092a578063fd5bab231461094057600080fd5b8063bc0547e314610719578063bd776d8a14610739578063c59d48471461074c578063cf48098e14610798578063d5df9d23146107b857600080fd5b8063951fd600116100fd578063951fd600146105e957806399b956a014610618578063a0c7f71c146106c6578063ba4f6737146106e6578063bb434f281461070657600080fd5b806383d2f5a01461054c5780638843013b146105545780638da5cb5b146105815780638df3f826146105a95780638f9fa51b146105c957600080fd5b8063381a5478116101d25780636985a022116101965780636985a0221461049f5780636a42c87b146104b457806376671808146104d3578063776e11dd146104e95780637b0a47ee146105165780637bf412541461052c57600080fd5b8063381a5478146103b85780633977b381146103e257806348894f0d1461044b578063490d6d111461046b5780635c975abb1461048057600080fd5b80631fa52d91116102195780631fa52d911461030057806320531bc914610320578063273867d41461034257806331c5d1371461037857806336f56ba01461039857600080fd5b806293503414610260578063120e75e81461028257806313493444146102a25780631946fb78146102cb5780631f713cae146102eb57600080fd5b3661025b57005b600080fd5b34801561026c57600080fd5b5061028061027b366004612f9b565b610955565b005b34801561028e57600080fd5b5061028061029d366004612fc9565b6109e1565b3480156102ae57600080fd5b506102b8600d5481565b6040519081526020015b60405180910390f35b3480156102d757600080fd5b506102806102e6366004612f9b565b610a1b565b3480156102f757600080fd5b50610280610a4a565b34801561030c57600080fd5b5061028061031b366004613005565b610b1c565b34801561032c57600080fd5b50610335610d17565b6040516102c29190613027565b34801561034e57600080fd5b506102b861035d366004613093565b6001600160a01b031660009081526006602052604090205490565b34801561038457600080fd5b50610280610393366004612f9b565b610da5565b3480156103a457600080fd5b506102806103b3366004612f9b565b610e21565b3480156103c457600080fd5b50600c546103d29060ff1681565b60405190151581526020016102c2565b3480156103ee57600080fd5b5061043a6103fd3660046130b5565b600460208181526000938452604080852090915291835291208054600182015460028301546003840154939094015460ff92831694919391921685565b6040516102c2959493929190613119565b34801561045757600080fd5b50610280610466366004612f9b565b610e86565b34801561047757600080fd5b50610280610eee565b34801561048c57600080fd5b50600054600160a01b900460ff166103d2565b3480156104ab57600080fd5b50610280610fa9565b3480156104c057600080fd5b50600c546103d290610100900460ff1681565b3480156104df57600080fd5b506102b860075481565b3480156104f557600080fd5b50610509610504366004612f9b565b611033565b6040516102c291906131b8565b34801561052257600080fd5b506102b860095481565b34801561053857600080fd5b506103d26105473660046130b5565b611104565b61028061134e565b34801561056057600080fd5b5061057461056f366004613093565b61137a565b6040516102c291906131fb565b34801561058d57600080fd5b506000546040516001600160a01b0390911681526020016102c2565b3480156105b557600080fd5b506102806105c4366004612f9b565b6113e6565b3480156105d557600080fd5b506102806105e436600461320e565b61142b565b3480156105f557600080fd5b50610609610604366004613283565b611924565b6040516102c2939291906132b6565b34801561062457600080fd5b50610681610633366004613093565b6005602081905260009182526040909120805460018201546002830154600384015460048501549585015460068601546007909601546001600160a01b039095169693959294919392909188565b604080516001600160a01b0390991689526020890197909752958701949094526060860192909252608085015260a084015260c083015260e0820152610100016102c2565b3480156106d257600080fd5b506103d26106e13660046130b5565b611baa565b3480156106f257600080fd5b506103d2610701366004612f9b565b611e44565b610280610714366004612f9b565b611ed5565b34801561072557600080fd5b50610280610734366004612f9b565b612233565b610280610747366004612f9b565b612357565b34801561075857600080fd5b50600d54600e54600f54601054601154601254604080519687526020870195909552938501929092526060840152608083015260a082015260c0016102c2565b3480156107a457600080fd5b506102b86107b3366004613348565b6126a3565b3480156107c457600080fd5b506108496107d3366004612f9b565b6003602081905260009182526040909120805460018201546002830154938301546004840154600585015460068601546007909601549496939593949293919290919063ffffffff80821691600160201b8104821691600160401b8204169060ff600160601b8204811691600160681b9004168c565b604080519c8d5260208d019b909b52998b019890985260608a0196909652608089019490945260a088019290925260c087015263ffffffff90811660e08701529081166101008601521661012084015215156101408301521515610160820152610180016102c2565b3480156108be57600080fd5b506102806108cd366004613093565b6126d4565b3480156108de57600080fd5b506108e76127be565b6040516102c29190613372565b34801561090057600080fd5b5061028061090f366004613487565b61296a565b34801561092057600080fd5b506102b8600a5481565b34801561093657600080fd5b506102b8600b5481565b34801561094c57600080fd5b506102806129f5565b600054600160a01b900460ff16156109885760405162461bcd60e51b815260040161097f90613538565b60405180910390fd5b61099460075482612a69565b6109ac60016007546109a69190613578565b82612c2c565b6109be60016007546107349190613578565b600780549060006109ce8361358f565b91905055506109de600754612d89565b50565b6000546001600160a01b03163314610a0b5760405162461bcd60e51b815260040161097f906135a8565b610a16838383612e5d565b505050565b6000546001600160a01b03163314610a455760405162461bcd60e51b815260040161097f906135a8565b600955565b6000546001600160a01b03163314610a745760405162461bcd60e51b815260040161097f906135a8565b600054600160a01b900460ff1615610a9e5760405162461bcd60e51b815260040161097f90613538565b600c5460ff1615610af15760405162461bcd60e51b815260206004820181905260248201527f53746172742066756e6374696f6e2063616e206f6e6c792072756e206f6e6365604482015260640161097f565b600754610aff9060016135dd565b6007819055610b0d90612d89565b600c805460ff19166001179055565b6000546001600160a01b03163314610b465760405162461bcd60e51b815260040161097f906135a8565b600054600160a01b900460ff1615610b705760405162461bcd60e51b815260040161097f90613538565b333b15610b8f5760405162461bcd60e51b815260040161097f906135f5565b333214610bae5760405162461bcd60e51b815260040161097f90613624565b610bb9600754611e44565b610bd55760405162461bcd60e51b815260040161097f9061365b565b8115610c5257600754600090815260036020526040812060018101805491928592610c019084906135dd565b90915550506007805460009081526004602090815260408083203084528252808320805460ff1916815560038101889055426001918201556006835290832093548454918201855593835291200155505b8015610cd557600754600090815260036020526040812060028101805491928492610c7e9084906135dd565b90915550506007805460009081526004602090815260408083203084528252808320805460ff1916600190811782556003820188905542918101919091556006835290832093548454918201855593835291200155505b600754604080518481526020810184905230917fe3b9e415c1ec5664bac5576f8ac4b84cacf237c6e9635809c8bc6d3fb6fd0a84910160405180910390a35050565b60088054610d2490613687565b80601f0160208091040260200160405190810160405280929190818152602001828054610d5090613687565b8015610d9d5780601f10610d7257610100808354040283529160200191610d9d565b820191906000526020600020905b815481529060010190602001808311610d8057829003601f168201915b505050505081565b600054600160a01b900460ff1615610dcf5760405162461bcd60e51b815260040161097f90613538565b600c5460ff16610e155760405162461bcd60e51b8152602060048201526011602482015270149bdd5b99081b9bdd081cdd185c9d1959607a1b604482015260640161097f565b6109be60075482612a69565b6000546001600160a01b03163314610e4b5760405162461bcd60e51b815260040161097f906135a8565b600a8190556040518181527f696fab4a25d5a0f71f21ee59aa7512cd96fe20b7a28f4e2663099566b4639d899060200160405180910390a150565b6000546001600160a01b03163314610eb05760405162461bcd60e51b815260040161097f906135a8565b600b8190556007546040518281527f82480e97991520549ac4b5d0e1d97edb3bfac2666202923b6903d2a953dc76089060200160405180910390a250565b6000546001600160a01b03163314610f185760405162461bcd60e51b815260040161097f906135a8565b600054600160a01b900460ff16610f685760405162461bcd60e51b815260206004820152601460248201527314185d5cd8589b194e881b9bdd081c185d5cd95960621b604482015260640161097f565b600c805461ffff19169055610f7b612ec7565b6007546040517f9dd715fed52c25e642f97653bb4c4339ad98fe6d6e130348be82ae5d86383a8c90600090a2565b6000546001600160a01b03163314610fd35760405162461bcd60e51b815260040161097f906135a8565b600054600160a01b900460ff1615610ffd5760405162461bcd60e51b815260040161097f90613538565b611005612f26565b6007546040517f32fb7c9891bc4f963c7de9f1186d2a7755c7d6e9f4604dabe1d8bb3027c2f49e90600090a2565b606060036000838152602001908152602001600020600801805480602002602001604051908101604052809291908181526020016000905b828210156110f957600084815260209081902060408051608081019091526003850290910180546001600160a01b03811683529192909190830190600160a01b900460ff1660018111156110c1576110c16130e1565b60018111156110d2576110d26130e1565b8152602001600182015481526020016002820154815250508152602001906001019061106b565b505050509050919050565b60008281526004602090815260408083206001600160a01b0385168452909152808220815160a08101909252805483929190829060ff16600181111561114c5761114c6130e1565b600181111561115d5761115d6130e1565b815260018281015460208084019190915260028085015460408086019190915260038087015460608088019190915260049788015460ff908116151560809889015260008e815283875284812085516101a081018752815481529881015489890152958601548886015292850154918701919091529683015495850195909552600582015460a0850152600682015460c0850152600782015463ffffffff80821660e0870152600160201b82048116610100870152600160401b820416610120860152600160601b810487161515610140860152600160681b900490951615156101608401526008810180548651818502810185019097528087529697509395929490936101808601939192909190879084015b828210156112ff57600084815260209081902060408051608081019091526003850290910180546001600160a01b03811683529192909190830190600160a01b900460ff1660018111156112c7576112c76130e1565b60018111156112d8576112d86130e1565b81526020016001820154815260200160028201548152505081526020019060010190611271565b5050505081525050905080610140015115801561131e57508160800151155b8015611334575080610120015163ffffffff1642115b80156113435750606082015115155b925050505b92915050565b6000546001600160a01b031633146113785760405162461bcd60e51b815260040161097f906135a8565b565b6001600160a01b0381166000908152600660209081526040918290208054835181840281018401909452808452606093928301828280156113da57602002820191906000526020600020905b8154815260200190600101908083116113c6575b50505050509050919050565b6000546001600160a01b031633146114105760405162461bcd60e51b815260040161097f906135a8565b6109de6114256000546001600160a01b031690565b82612f65565b60026001540361144d5760405162461bcd60e51b815260040161097f906136c1565b6002600155333b156114715760405162461bcd60e51b815260040161097f906135f5565b3332146114905760405162461bcd60e51b815260040161097f90613624565b6000805b828110156118a757600360008585848181106114b2576114b26136f8565b905060200201358152602001908152602001600020600701600c9054906101000a900460ff1615611895576114ff8484838181106114f2576114f26136f8565b9050602002013533611baa565b156118955760006003600086868581811061151c5761151c6136f8565b60209081029290920135835250818101929092526040908101600090812082516101a081018452815481526001820154818601526002820154818501526003820154606082015260048201546080820152600582015460a0820152600682015460c0820152600782015463ffffffff80821660e0840152600160201b82048116610100840152600160401b82041661012083015260ff600160601b820481161515610140840152600160681b90910416151561016082015260088201805485518188028101880190965280865291959294610180870194909391929184015b8282101561168957600084815260209081902060408051608081019091526003850290910180546001600160a01b03811683529192909190830190600160a01b900460ff166001811115611651576116516130e1565b6001811115611662576116626130e1565b815260200160018201548152602001600282015481525050815260200190600101906115fb565b50505050815250509050600081606001518260800151600460008989888181106116b5576116b56136f8565b9050602002013581526020019081526020016000206000336001600160a01b03166001600160a01b03168152602001908152602001600020600301546116fb919061370e565b611705919061372d565b905060016004600088888781811061171f5761171f6136f8565b9050602002013581526020019081526020016000206000336001600160a01b03166001600160a01b0316815260200190815260200160002060040160006101000a81548160ff0219169083151502179055504260046000888887818110611788576117886136f8565b6020908102929092013583525081810192909252604090810160009081203382529092529020600201556117bc81856135dd565b3360009081526005602052604081206006018054929650906117dd8361358f565b909155505033600090815260056020526040812060070180548392906118049084906135dd565b9091555050601180549060006118198361358f565b9190505550806012600082825461183091906135dd565b909155508690508584818110611848576118486136f8565b90506020020135336001600160a01b03167f987d620f307ff6b94d58743cb7a7509f24071586a77759b77c2d4e29f75a2f9a8360405161188a91815260200190565b60405180910390a350505b8061189f8161358f565b915050611494565b506000811161190b5760405162461bcd60e51b815260206004820152602a60248201527f4e6f7420666f756e6420616e7920656c696769626c65207265776172642f726560448201526966756e642066756e647360b01b606482015260840161097f565b801561191b5761191b3382612f65565b50506001805550565b6001600160a01b0383166000908152600660205260408120546060918291849061194f908790613578565b81111561197d576001600160a01b03871660009081526006602052604090205461197a908790613578565b90505b60008167ffffffffffffffff81111561199857611998613471565b6040519080825280602002602001820160405280156119c1578160200160208202803683370190505b50905060008267ffffffffffffffff8111156119df576119df613471565b604051908082528060200260200182016040528015611a4557816020015b611a326040805160a0810190915280600081526020016000815260200160008152602001600081526020016000151581525090565b8152602001906001900390816119fd5790505b50905060005b83811015611b8b576001600160a01b038a166000908152600660205260409020611a75828b6135dd565b81548110611a8557611a856136f8565b9060005260206000200154838281518110611aa257611aa26136f8565b60200260200101818152505060046000848381518110611ac457611ac46136f8565b602090810291909101810151825281810192909252604090810160009081206001600160a01b038e16825290925290819020815160a081019092528054829060ff166001811115611b1757611b176130e1565b6001811115611b2857611b286130e1565b815260018201546020820152600282015460408201526003820154606082015260049091015460ff1615156080909101528251839083908110611b6d57611b6d6136f8565b60200260200101819052508080611b839061358f565b915050611a4b565b508181611b98858b6135dd565b95509550955050505093509350939050565b60008281526004602090815260408083206001600160a01b0385168452909152808220815160a08101909252805483929190829060ff166001811115611bf257611bf26130e1565b6001811115611c0357611c036130e1565b815260018281015460208084019190915260028085015460408086019190915260038087015460608088019190915260049788015460ff908116151560809889015260008e815283875284812085516101a081018752815481529881015489890152958601548886015292850154918701919091529683015495850195909552600582015460a0850152600682015460c0850152600782015463ffffffff80821660e0870152600160201b82048116610100870152600160401b820416610120860152600160601b810487161515610140860152600160681b900490951615156101608401526008810180548651818502810185019097528087529697509395929490936101808601939192909190879084015b82821015611da557600084815260209081902060408051608081019091526003850290910180546001600160a01b03811683529192909190830190600160a01b900460ff166001811115611d6d57611d6d6130e1565b6001811115611d7e57611d7e6130e1565b81526020016001820154815260200160028201548152505081526020019060010190611d17565b505050508152505090508060c001518160a0015103611dc957600092505050611348565b8061014001518015611ddd57508160800151155b801561134357508060a001518160c00151138015611e0d5750600082516001811115611e0b57611e0b6130e1565b145b8061134357508060a001518160c001511280156113435750600182516001811115611e3a57611e3a6130e1565b1495945050505050565b60008181526003602052604081206007015463ffffffff1615801590611e875750600082815260036020526040902060070154600160201b900463ffffffff1615155b8015611ea9575060008281526003602052604090206007015463ffffffff1642115b8015611348575050600090815260036020526040902060070154600160201b900463ffffffff16421090565b600054600160a01b900460ff1615611eff5760405162461bcd60e51b815260040161097f90613538565b600260015403611f215760405162461bcd60e51b815260040161097f906136c1565b6002600155333b15611f455760405162461bcd60e51b815260040161097f906135f5565b333214611f645760405162461bcd60e51b815260040161097f90613624565b6007548114611fad5760405162461bcd60e51b815260206004820152601560248201527442657420697320746f6f206561726c792f6c61746560581b604482015260640161097f565b611fb681611e44565b611fd25760405162461bcd60e51b815260040161097f9061365b565b600b54341015611ff45760405162461bcd60e51b815260040161097f9061374f565b60008181526004602090815260408083203384529091529020600301541561205e5760405162461bcd60e51b815260206004820152601b60248201527f43616e206f6e6c7920626574206f6e63652070657220726f756e640000000000604482015260640161097f565b6000818152600360205260409020600181015434919061207f9083906135dd565b60018281019190915560008481526004602090815260408083203384528252808320805460ff19168155600381018790554281860155600590925282209283018690556002929092018054916120d48361358f565b909155505033600090815260056020526040812060030180548592906120fb9084906135dd565b9091555050336000818152600660209081526040808320805460018082018355918552838520018990558151608081018352808401858152958152918201889052426060830152600887018054808301825590855292909320815160039093020180546001600160a01b031981166001600160a01b039094169384178255945191948594919384926001600160a81b03199092161790600160a01b9084908111156121a8576121a86130e1565b021790555060408201516001820155606090910151600290910155600d80549060006121d38361358f565b919050555083600e60008282546121ea91906135dd565b909155505060075460405185815233907f49237630b34a73a6a12f9d3d4a305ddd6e3a359cc147ffb7a5f18c08f736bc25906020015b60405180910390a3505060018055505050565b600081815260036020819052604090912001541580156122625750600081815260036020526040902060040154155b6122ae5760405162461bcd60e51b815260206004820152601a60248201527f526577617264732063616c63756c6174656420616c7265616479000000000000604482015260640161097f565b600081815260036020526040812060028101546001820154919291829182916122d791906135dd565b90508360050154846006015413156123115783600101549250606460095482612300919061370e565b61230a919061372d565b9150612345565b8360050154846006015412156123455783600201549250606460095482612338919061370e565b612342919061372d565b91505b50600383019190915560049091015550565b600054600160a01b900460ff16156123815760405162461bcd60e51b815260040161097f90613538565b6002600154036123a35760405162461bcd60e51b815260040161097f906136c1565b6002600155333b156123c75760405162461bcd60e51b815260040161097f906135f5565b3332146123e65760405162461bcd60e51b815260040161097f90613624565b600754811461242f5760405162461bcd60e51b815260206004820152601560248201527442657420697320746f6f206561726c792f6c61746560581b604482015260640161097f565b61243881611e44565b6124545760405162461bcd60e51b815260040161097f9061365b565b600b543410156124765760405162461bcd60e51b815260040161097f9061374f565b6000818152600460209081526040808320338452909152902060030154156124e05760405162461bcd60e51b815260206004820152601b60248201527f43616e206f6e6c7920626574206f6e63652070657220726f756e640000000000604482015260640161097f565b600081815260036020526040902060028101543491906125019083906135dd565b600282015560008381526004602081815260408084203385528252808420805460ff19166001908117825560038201889055428183015560059093529084209182018790559101805491926125558361358f565b9091555050336000908152600560208190526040822001805485929061257c9084906135dd565b9091555050336000818152600660209081526040808320805460018082018355918552838520018990558151608081018352948552848301818152918501889052426060860152600887018054808301825590855292909320845160039093020180546001600160a01b039093166001600160a01b0319841681178255915185949193909284926001600160a81b03199092161790600160a01b908490811115612628576126286130e1565b021790555060408201516001820155606090910151600290910155600f80549060006126538361358f565b9190505550836010600082825461266a91906135dd565b9091555050604051848152859033907f93349b5cb1cdd80ea47c8a040b8c0e31e219e0665c1eb33d9a7b2d3fad11e22490602001612220565b600660205281600052604060002081815481106126bf57600080fd5b90600052602060002001600091509150505481565b6000546001600160a01b031633146126fe5760405162461bcd60e51b815260040161097f906135a8565b6001600160a01b0381166127635760405162461bcd60e51b815260206004820152602660248201527f4f776e61626c653a206e6577206f776e657220697320746865207a65726f206160448201526564647265737360d01b606482015260840161097f565b600080546040516001600160a01b03808516939216917f8be0079c531659141344cd1fd0a4f28419497f9722a3daafe3b4186f6b6457e091a3600080546001600160a01b0319166001600160a01b0392909216919091179055565b60606002805480602002602001604051908101604052809291908181526020016000905b828210156129615760008481526020808220604080516101a08101825260098702909201805483526001810154838501526002810154838301526003810154606084015260048101546080840152600581015460a0840152600681015460c0840152600781015463ffffffff80821660e0860152600160201b82048116610100860152600160401b82041661012085015260ff600160601b820481161515610140860152600160681b9091041615156101608401526008810180548351818702810187019094528084529395919461018087019491929084015b8282101561294a57600084815260209081902060408051608081019091526003850290910180546001600160a01b03811683529192909190830190600160a01b900460ff166001811115612912576129126130e1565b6001811115612923576129236130e1565b815260200160018201548152602001600282015481525050815260200190600101906128bc565b5050505081525050815260200190600101906127e2565b50505050905090565b6000546001600160a01b031633146129945760405162461bcd60e51b815260040161097f906135a8565b60008151116129e55760405162461bcd60e51b815260206004820152601d60248201527f507269636520736f757263652063616e206e6f7420626520656d707479000000604482015260640161097f565b60086129f182826137eb565b5050565b6000546001600160a01b03163314612a1f5760405162461bcd60e51b815260040161097f906135a8565b600080546040516001600160a01b03909116907f8be0079c531659141344cd1fd0a4f28419497f9722a3daafe3b4186f6b6457e0908390a3600080546001600160a01b0319169055565b60008281526003602052604081206007015463ffffffff169003612ae35760405162461bcd60e51b815260206004820152602b60248201527f43616e206f6e6c79206c6f636b20726f756e6420616674657220726f756e642060448201526a1a185cc81cdd185c9d195960aa1b606482015260840161097f565b600082815260036020526040902060070154600160201b900463ffffffff16421015612b625760405162461bcd60e51b815260206004820152602860248201527f43616e206f6e6c79206c6f636b20726f756e64206166746572206c6f636b20746044820152670696d657374616d760c41b606482015260840161097f565b600082815260036020526040902060070154600160401b900463ffffffff16421115612bdb5760405162461bcd60e51b815260206004820152602260248201527f43616e206f6e6c79206c6f636b206265666f726520656e642074696d6573746160448201526106d760f41b606482015260840161097f565b60008281526003602090815260409182902060058101849055915183815284917fed3d5364266a40b08be3572a189b162355beff1b143e03774e5cd7c94f22403591015b60405180910390a2505050565b600082815260036020526040812060070154600160201b900463ffffffff169003612cab5760405162461bcd60e51b815260206004820152602960248201527f43616e206f6e6c7920656e6420726f756e6420616674657220726f756e642068604482015268185cc81b1bd8dad95960ba1b606482015260840161097f565b600082815260036020526040902060070154600160401b900463ffffffff16421015612d2a5760405162461bcd60e51b815260206004820152602860248201527f43616e206f6e6c7920656e6420726f756e6420616674657220636c6f736520746044820152670696d657374616d760c41b606482015260840161097f565b600082815260036020526040908190206006810183905560078101805460ff60601b1916600160601b179055905183907fdce8257390bdfa785e27c9715109e4b503b3006d9f4ea2d1f689e77e8a41713e90612c1f9085815260200190565b600081815260036020526040902060078101805463ffffffff19164263ffffffff811691909117909155600a54612dbf916135dd565b60078201805463ffffffff92909216600160201b0267ffffffff0000000019909216919091179055600a54612df590600261370e565b612dff90426135dd565b60078201805463ffffffff92909216600160401b026bffffffff00000000000000001990921691909117905581815560405182907f33a701182892fd888ed152ca2ac23771a32e814469b7cd255965471e1af3a65990600090a25050565b60008381526003602052604080822060078101805461ffff60601b1916600160681b8715150260ff60601b191617600160601b861515021790559051909185917f2cb29a2ef221b0c3a14c1ad2f16e14ebd400af83556f5592b6e2689539daafa29190a250505050565b600054600160a01b900460ff16612f175760405162461bcd60e51b815260206004820152601460248201527314185d5cd8589b194e881b9bdd081c185d5cd95960621b604482015260640161097f565b6000805460ff60a01b19169055565b600054600160a01b900460ff1615612f505760405162461bcd60e51b815260040161097f90613538565b6000805460ff60a01b1916600160a01b179055565b6040516001600160a01b0383169082156108fc029083906000818181858888f19350505050158015610a16573d6000803e3d6000fd5b600060208284031215612fad57600080fd5b5035919050565b80358015158114612fc457600080fd5b919050565b600080600060608486031215612fde57600080fd5b83359250612fee60208501612fb4565b9150612ffc60408501612fb4565b90509250925092565b6000806040838503121561301857600080fd5b50508035926020909101359150565b600060208083528351808285015260005b8181101561305457858101830151858201604001528201613038565b81811115613066576000604083870101525b50601f01601f1916929092016040019392505050565b80356001600160a01b0381168114612fc457600080fd5b6000602082840312156130a557600080fd5b6130ae8261307c565b9392505050565b600080604083850312156130c857600080fd5b823591506130d86020840161307c565b90509250929050565b634e487b7160e01b600052602160045260246000fd5b6002811061311557634e487b7160e01b600052602160045260246000fd5b9052565b60a0810161312782886130f7565b85602083015284604083015283606083015282151560808301529695505050505050565b600081518084526020808501945080840160005b838110156131ad57815180516001600160a01b0316885283810151613186858a01826130f7565b5060408181015190890152606090810151908801526080909601959082019060010161315f565b509495945050505050565b6020815260006130ae602083018461314b565b600081518084526020808501945080840160005b838110156131ad578151875295820195908201906001016131df565b6020815260006130ae60208301846131cb565b6000806020838503121561322157600080fd5b823567ffffffffffffffff8082111561323957600080fd5b818501915085601f83011261324d57600080fd5b81358181111561325c57600080fd5b8660208260051b850101111561327157600080fd5b60209290920196919550909350505050565b60008060006060848603121561329857600080fd5b6132a18461307c565b95602085013595506040909401359392505050565b600060608083526132c9818401876131cb565b83810360208581019190915286518083528782019282019060005b818110156133315784516132f98482516130f7565b80850151848601526040808201519085015286810151878501526080908101511515908401529383019360a0909201916001016132e4565b505080945050505050826040830152949350505050565b6000806040838503121561335b57600080fd5b6133648361307c565b946020939093013593505050565b60006020808301818452808551808352604092508286019150828160051b87010184880160005b8381101561346357888303603f1901855281518051845287810151888501528681015187850152606080820151908501526080808201519085015260a0808201519085015260c0808201519085015260e08082015163ffffffff908116918601919091526101008083015182169086015261012080830151909116908501526101408082015115159085015261016080820151151590850152610180908101516101a09185018290529061344f8186018361314b565b968901969450505090860190600101613399565b509098975050505050505050565b634e487b7160e01b600052604160045260246000fd5b60006020828403121561349957600080fd5b813567ffffffffffffffff808211156134b157600080fd5b818401915084601f8301126134c557600080fd5b8135818111156134d7576134d7613471565b604051601f8201601f19908116603f011681019083821181831017156134ff576134ff613471565b8160405282815287602084870101111561351857600080fd5b826020860160208301376000928101602001929092525095945050505050565b60208082526010908201526f14185d5cd8589b194e881c185d5cd95960821b604082015260600190565b634e487b7160e01b600052601160045260246000fd5b60008282101561358a5761358a613562565b500390565b6000600182016135a1576135a1613562565b5060010190565b6020808252818101527f4f776e61626c653a2063616c6c6572206973206e6f7420746865206f776e6572604082015260600190565b600082198211156135f0576135f0613562565b500190565b60208082526015908201527410dbdb9d1c9858dd1cc81b9bdd08185b1b1bddd959605a1b604082015260600190565b6020808252601b908201527f50726f787920636f6e747261637473206e6f7420616c6c6f7765640000000000604082015260600190565b602080825260129082015271526f756e64206e6f74206265747461626c6560701b604082015260600190565b600181811c9082168061369b57607f821691505b6020821081036136bb57634e487b7160e01b600052602260045260246000fd5b50919050565b6020808252601f908201527f5265656e7472616e637947756172643a207265656e7472616e742063616c6c00604082015260600190565b634e487b7160e01b600052603260045260246000fd5b600081600019048311821515161561372857613728613562565b500290565b60008261374a57634e487b7160e01b600052601260045260246000fd5b500490565b6020808252602e908201527f42657420616d6f756e74206d7573742062652067726561746572207468616e2060408201526d1b5a5b9a5b5d5b48185b5bdd5b9d60921b606082015260800190565b601f821115610a1657600081815260208120601f850160051c810160208610156137c45750805b601f850160051c820191505b818110156137e3578281556001016137d0565b505050505050565b815167ffffffffffffffff81111561380557613805613471565b613819816138138454613687565b8461379d565b602080601f83116001811461384e57600084156138365750858301515b600019600386901b1c1916600185901b1785556137e3565b600085815260208120601f198616915b8281101561387d5788860151825594840194600190910190840161385e565b508582101561389b5787850151600019600388901b60f8161c191681555b5050505050600190811b0190555056fea26469706673582212208d332bf41a7f1925082581ba0052f2c08a6ff02ea85c107076cc083fc9ac56ad64736f6c634300080f0033","opcodes":"PUSH1 0x80 PUSH1 0x40 MSTORE PUSH1 0x5F PUSH1 0x9 SSTORE PUSH1 0xF0 PUSH1 0xA SSTORE PUSH7 0x11C37937E08000 PUSH1 0xB SSTORE PUSH1 0xC DUP1 SLOAD PUSH2 0xFFFF NOT AND SWAP1 SSTORE CALLVALUE DUP1 ISZERO PUSH2 0x30 JUMPI PUSH1 0x0 DUP1 REVERT JUMPDEST POP PUSH1 0x0 DUP1 SLOAD PUSH1 0x1 PUSH1 0x1 PUSH1 0xA0 SHL SUB NOT AND CALLER SWAP1 DUP2 OR DUP3 SSTORE PUSH1 0x40 MLOAD SWAP1 SWAP2 DUP3 SWAP2 PUSH32 0x8BE0079C531659141344CD1FD0A4F28419497F9722A3DAAFE3B4186F6B6457E0 SWAP1 DUP3 SWAP1 LOG3 POP PUSH1 0x0 DUP1 SLOAD PUSH1 0xFF PUSH1 0xA0 SHL NOT AND SWAP1 SSTORE PUSH1 0x1 DUP1 SSTORE PUSH2 0x38E1 DUP1 PUSH2 0x92 PUSH1 0x0 CODECOPY PUSH1 0x0 RETURN INVALID PUSH1 0x80 PUSH1 0x40 MSTORE PUSH1 0x4 CALLDATASIZE LT PUSH2 0x254 JUMPI PUSH1 0x0 CALLDATALOAD PUSH1 0xE0 SHR DUP1 PUSH4 0x83D2F5A0 GT PUSH2 0x139 JUMPI DUP1 PUSH4 0xBC0547E3 GT PUSH2 0xB6 JUMPI DUP1 PUSH4 0xDFC39691 GT PUSH2 0x7A JUMPI DUP1 PUSH4 0xDFC39691 EQ PUSH2 0x8B2 JUMPI DUP1 PUSH4 0xE5066BBF EQ PUSH2 0x8D2 JUMPI DUP1 PUSH4 0xEEF4EEAE EQ PUSH2 0x8F4 JUMPI DUP1 PUSH4 0xF7CB789A EQ PUSH2 0x914 JUMPI DUP1 PUSH4 0xFA968EEA EQ PUSH2 0x92A JUMPI DUP1 PUSH4 0xFD5BAB23 EQ PUSH2 0x940 JUMPI PUSH1 0x0 DUP1 REVERT JUMPDEST DUP1 PUSH4 0xBC0547E3 EQ PUSH2 0x719 JUMPI DUP1 PUSH4 0xBD776D8A EQ PUSH2 0x739 JUMPI DUP1 PUSH4 0xC59D4847 EQ PUSH2 0x74C JUMPI DUP1 PUSH4 0xCF48098E EQ PUSH2 0x798 JUMPI DUP1 PUSH4 0xD5DF9D23 EQ PUSH2 0x7B8 JUMPI PUSH1 0x0 DUP1 REVERT JUMPDEST DUP1 PUSH4 0x951FD600 GT PUSH2 0xFD JUMPI DUP1 PUSH4 0x951FD600 EQ PUSH2 0x5E9 JUMPI DUP1 PUSH4 0x99B956A0 EQ PUSH2 0x618 JUMPI DUP1 PUSH4 0xA0C7F71C EQ PUSH2 0x6C6 JUMPI DUP1 PUSH4 0xBA4F6737 EQ PUSH2 0x6E6 JUMPI DUP1 PUSH4 0xBB434F28 EQ PUSH2 0x706 JUMPI PUSH1 0x0 DUP1 REVERT JUMPDEST DUP1 PUSH4 0x83D2F5A0 EQ PUSH2 0x54C JUMPI DUP1 PUSH4 0x8843013B EQ PUSH2 0x554 JUMPI DUP1 PUSH4 0x8DA5CB5B EQ PUSH2 0x581 JUMPI DUP1 PUSH4 0x8DF3F826 EQ PUSH2 0x5A9 JUMPI DUP1 PUSH4 0x8F9FA51B EQ PUSH2 0x5C9 JUMPI PUSH1 0x0 DUP1 REVERT JUMPDEST DUP1 PUSH4 0x381A5478 GT PUSH2 0x1D2 JUMPI DUP1 PUSH4 0x6985A022 GT PUSH2 0x196 JUMPI DUP1 PUSH4 0x6985A022 EQ PUSH2 0x49F JUMPI DUP1 PUSH4 0x6A42C87B EQ PUSH2 0x4B4 JUMPI DUP1 PUSH4 0x76671808 EQ PUSH2 0x4D3 JUMPI DUP1 PUSH4 0x776E11DD EQ PUSH2 0x4E9 JUMPI DUP1 PUSH4 0x7B0A47EE EQ PUSH2 0x516 JUMPI DUP1 PUSH4 0x7BF41254 EQ PUSH2 0x52C JUMPI PUSH1 0x0 DUP1 REVERT JUMPDEST DUP1 PUSH4 0x381A5478 EQ PUSH2 0x3B8 JUMPI DUP1 PUSH4 0x3977B381 EQ PUSH2 0x3E2 JUMPI DUP1 PUSH4 0x48894F0D EQ PUSH2 0x44B JUMPI DUP1 PUSH4 0x490D6D11 EQ PUSH2 0x46B JUMPI DUP1 PUSH4 0x5C975ABB EQ PUSH2 0x480 JUMPI PUSH1 0x0 DUP1 REVERT JUMPDEST DUP1 PUSH4 0x1FA52D91 GT PUSH2 0x219 JUMPI DUP1 PUSH4 0x1FA52D91 EQ PUSH2 0x300 JUMPI DUP1 PUSH4 0x20531BC9 EQ PUSH2 0x320 JUMPI DUP1 PUSH4 0x273867D4 EQ PUSH2 0x342 JUMPI DUP1 PUSH4 0x31C5D137 EQ PUSH2 0x378 JUMPI DUP1 PUSH4 0x36F56BA0 EQ PUSH2 0x398 JUMPI PUSH1 0x0 DUP1 REVERT JUMPDEST DUP1 PUSH3 0x935034 EQ PUSH2 0x260 JUMPI DUP1 PUSH4 0x120E75E8 EQ PUSH2 0x282 JUMPI DUP1 PUSH4 0x13493444 EQ PUSH2 0x2A2 JUMPI DUP1 PUSH4 0x1946FB78 EQ PUSH2 0x2CB JUMPI DUP1 PUSH4 0x1F713CAE EQ PUSH2 0x2EB JUMPI PUSH1 0x0 DUP1 REVERT JUMPDEST CALLDATASIZE PUSH2 0x25B JUMPI STOP JUMPDEST PUSH1 0x0 DUP1 REVERT JUMPDEST CALLVALUE DUP1 ISZERO PUSH2 0x26C JUMPI PUSH1 0x0 DUP1 REVERT JUMPDEST POP PUSH2 0x280 PUSH2 0x27B CALLDATASIZE PUSH1 0x4 PUSH2 0x2F9B JUMP JUMPDEST PUSH2 0x955 JUMP JUMPDEST STOP JUMPDEST CALLVALUE DUP1 ISZERO PUSH2 0x28E JUMPI PUSH1 0x0 DUP1 REVERT JUMPDEST POP PUSH2 0x280 PUSH2 0x29D CALLDATASIZE PUSH1 0x4 PUSH2 0x2FC9 JUMP JUMPDEST PUSH2 0x9E1 JUMP JUMPDEST CALLVALUE DUP1 ISZERO PUSH2 0x2AE JUMPI PUSH1 0x0 DUP1 REVERT JUMPDEST POP PUSH2 0x2B8 PUSH1 0xD SLOAD DUP2 JUMP JUMPDEST PUSH1 0x40 MLOAD SWAP1 DUP2 MSTORE PUSH1 0x20 ADD JUMPDEST PUSH1 0x40 MLOAD DUP1 SWAP2 SUB SWAP1 RETURN JUMPDEST CALLVALUE DUP1 ISZERO PUSH2 0x2D7 JUMPI PUSH1 0x0 DUP1 REVERT JUMPDEST POP PUSH2 0x280 PUSH2 0x2E6 CALLDATASIZE PUSH1 0x4 PUSH2 0x2F9B JUMP JUMPDEST PUSH2 0xA1B JUMP JUMPDEST CALLVALUE DUP1 ISZERO PUSH2 0x2F7 JUMPI PUSH1 0x0 DUP1 REVERT JUMPDEST POP PUSH2 0x280 PUSH2 0xA4A JUMP JUMPDEST CALLVALUE DUP1 ISZERO PUSH2 0x30C JUMPI PUSH1 0x0 DUP1 REVERT JUMPDEST POP PUSH2 0x280 PUSH2 0x31B CALLDATASIZE PUSH1 0x4 PUSH2 0x3005 JUMP JUMPDEST PUSH2 0xB1C JUMP JUMPDEST CALLVALUE DUP1 ISZERO PUSH2 0x32C JUMPI PUSH1 0x0 DUP1 REVERT JUMPDEST POP PUSH2 0x335 PUSH2 0xD17 JUMP JUMPDEST PUSH1 0x40 MLOAD PUSH2 0x2C2 SWAP2 SWAP1 PUSH2 0x3027 JUMP JUMPDEST CALLVALUE DUP1 ISZERO PUSH2 0x34E JUMPI PUSH1 0x0 DUP1 REVERT JUMPDEST POP PUSH2 0x2B8 PUSH2 0x35D CALLDATASIZE PUSH1 0x4 PUSH2 0x3093 JUMP JUMPDEST PUSH1 0x1 PUSH1 0x1 PUSH1 0xA0 SHL SUB AND PUSH1 0x0 SWAP1 DUP2 MSTORE PUSH1 0x6 PUSH1 0x20 MSTORE PUSH1 0x40 SWAP1 KECCAK256 SLOAD SWAP1 JUMP JUMPDEST CALLVALUE DUP1 ISZERO PUSH2 0x384 JUMPI PUSH1 0x0 DUP1 REVERT JUMPDEST POP PUSH2 0x280 PUSH2 0x393 CALLDATASIZE PUSH1 0x4 PUSH2 0x2F9B JUMP JUMPDEST PUSH2 0xDA5 JUMP JUMPDEST CALLVALUE DUP1 ISZERO PUSH2 0x3A4 JUMPI PUSH1 0x0 DUP1 REVERT JUMPDEST POP PUSH2 0x280 PUSH2 0x3B3 CALLDATASIZE PUSH1 0x4 PUSH2 0x2F9B JUMP JUMPDEST PUSH2 0xE21 JUMP JUMPDEST CALLVALUE DUP1 ISZERO PUSH2 0x3C4 JUMPI PUSH1 0x0 DUP1 REVERT JUMPDEST POP PUSH1 0xC SLOAD PUSH2 0x3D2 SWAP1 PUSH1 0xFF AND DUP2 JUMP JUMPDEST PUSH1 0x40 MLOAD SWAP1 ISZERO ISZERO DUP2 MSTORE PUSH1 0x20 ADD PUSH2 0x2C2 JUMP JUMPDEST CALLVALUE DUP1 ISZERO PUSH2 0x3EE JUMPI PUSH1 0x0 DUP1 REVERT JUMPDEST POP PUSH2 0x43A PUSH2 0x3FD CALLDATASIZE PUSH1 0x4 PUSH2 0x30B5 JUMP JUMPDEST PUSH1 0x4 PUSH1 0x20 DUP2 DUP2 MSTORE PUSH1 0x0 SWAP4 DUP5 MSTORE PUSH1 0x40 DUP1 DUP6 KECCAK256 SWAP1 SWAP2 MSTORE SWAP2 DUP4 MSTORE SWAP2 KECCAK256 DUP1 SLOAD PUSH1 0x1 DUP3 ADD SLOAD PUSH1 0x2 DUP4 ADD SLOAD PUSH1 0x3 DUP5 ADD SLOAD SWAP4 SWAP1 SWAP5 ADD SLOAD PUSH1 0xFF SWAP3 DUP4 AND SWAP5 SWAP2 SWAP4 SWAP2 SWAP3 AND DUP6 JUMP JUMPDEST PUSH1 0x40 MLOAD PUSH2 0x2C2 SWAP6 SWAP5 SWAP4 SWAP3 SWAP2 SWAP1 PUSH2 0x3119 JUMP JUMPDEST CALLVALUE DUP1 ISZERO PUSH2 0x457 JUMPI PUSH1 0x0 DUP1 REVERT JUMPDEST POP PUSH2 0x280 PUSH2 0x466 CALLDATASIZE PUSH1 0x4 PUSH2 0x2F9B JUMP JUMPDEST PUSH2 0xE86 JUMP JUMPDEST CALLVALUE DUP1 ISZERO PUSH2 0x477 JUMPI PUSH1 0x0 DUP1 REVERT JUMPDEST POP PUSH2 0x280 PUSH2 0xEEE JUMP JUMPDEST CALLVALUE DUP1 ISZERO PUSH2 0x48C JUMPI PUSH1 0x0 DUP1 REVERT JUMPDEST POP PUSH1 0x0 SLOAD PUSH1 0x1 PUSH1 0xA0 SHL SWAP1 DIV PUSH1 0xFF AND PUSH2 0x3D2 JUMP JUMPDEST CALLVALUE DUP1 ISZERO PUSH2 0x4AB JUMPI PUSH1 0x0 DUP1 REVERT JUMPDEST POP PUSH2 0x280 PUSH2 0xFA9 JUMP JUMPDEST CALLVALUE DUP1 ISZERO PUSH2 0x4C0 JUMPI PUSH1 0x0 DUP1 REVERT JUMPDEST POP PUSH1 0xC SLOAD PUSH2 0x3D2 SWAP1 PUSH2 0x100 SWAP1 DIV PUSH1 0xFF AND DUP2 JUMP JUMPDEST CALLVALUE DUP1 ISZERO PUSH2 0x4DF JUMPI PUSH1 0x0 DUP1 REVERT JUMPDEST POP PUSH2 0x2B8 PUSH1 0x7 SLOAD DUP2 JUMP JUMPDEST CALLVALUE DUP1 ISZERO PUSH2 0x4F5 JUMPI PUSH1 0x0 DUP1 REVERT JUMPDEST POP PUSH2 0x509 PUSH2 0x504 CALLDATASIZE PUSH1 0x4 PUSH2 0x2F9B JUMP JUMPDEST PUSH2 0x1033 JUMP JUMPDEST PUSH1 0x40 MLOAD PUSH2 0x2C2 SWAP2 SWAP1 PUSH2 0x31B8 JUMP JUMPDEST CALLVALUE DUP1 ISZERO PUSH2 0x522 JUMPI PUSH1 0x0 DUP1 REVERT JUMPDEST POP PUSH2 0x2B8 PUSH1 0x9 SLOAD DUP2 JUMP JUMPDEST CALLVALUE DUP1 ISZERO PUSH2 0x538 JUMPI PUSH1 0x0 DUP1 REVERT JUMPDEST POP PUSH2 0x3D2 PUSH2 0x547 CALLDATASIZE PUSH1 0x4 PUSH2 0x30B5 JUMP JUMPDEST PUSH2 0x1104 JUMP JUMPDEST PUSH2 0x280 PUSH2 0x134E JUMP JUMPDEST CALLVALUE DUP1 ISZERO PUSH2 0x560 JUMPI PUSH1 0x0 DUP1 REVERT JUMPDEST POP PUSH2 0x574 PUSH2 0x56F CALLDATASIZE PUSH1 0x4 PUSH2 0x3093 JUMP JUMPDEST PUSH2 0x137A JUMP JUMPDEST PUSH1 0x40 MLOAD PUSH2 0x2C2 SWAP2 SWAP1 PUSH2 0x31FB JUMP JUMPDEST CALLVALUE DUP1 ISZERO PUSH2 0x58D JUMPI PUSH1 0x0 DUP1 REVERT JUMPDEST POP PUSH1 0x0 SLOAD PUSH1 0x40 MLOAD PUSH1 0x1 PUSH1 0x1 PUSH1 0xA0 SHL SUB SWAP1 SWAP2 AND DUP2 MSTORE PUSH1 0x20 ADD PUSH2 0x2C2 JUMP JUMPDEST CALLVALUE DUP1 ISZERO PUSH2 0x5B5 JUMPI PUSH1 0x0 DUP1 REVERT JUMPDEST POP PUSH2 0x280 PUSH2 0x5C4 CALLDATASIZE PUSH1 0x4 PUSH2 0x2F9B JUMP JUMPDEST PUSH2 0x13E6 JUMP JUMPDEST CALLVALUE DUP1 ISZERO PUSH2 0x5D5 JUMPI PUSH1 0x0 DUP1 REVERT JUMPDEST POP PUSH2 0x280 PUSH2 0x5E4 CALLDATASIZE PUSH1 0x4 PUSH2 0x320E JUMP JUMPDEST PUSH2 0x142B JUMP JUMPDEST CALLVALUE DUP1 ISZERO PUSH2 0x5F5 JUMPI PUSH1 0x0 DUP1 REVERT JUMPDEST POP PUSH2 0x609 PUSH2 0x604 CALLDATASIZE PUSH1 0x4 PUSH2 0x3283 JUMP JUMPDEST PUSH2 0x1924 JUMP JUMPDEST PUSH1 0x40 MLOAD PUSH2 0x2C2 SWAP4 SWAP3 SWAP2 SWAP1 PUSH2 0x32B6 JUMP JUMPDEST CALLVALUE DUP1 ISZERO PUSH2 0x624 JUMPI PUSH1 0x0 DUP1 REVERT JUMPDEST POP PUSH2 0x681 PUSH2 0x633 CALLDATASIZE PUSH1 0x4 PUSH2 0x3093 JUMP JUMPDEST PUSH1 0x5 PUSH1 0x20 DUP2 SWAP1 MSTORE PUSH1 0x0 SWAP2 DUP3 MSTORE PUSH1 0x40 SWAP1 SWAP2 KECCAK256 DUP1 SLOAD PUSH1 0x1 DUP3 ADD SLOAD PUSH1 0x2 DUP4 ADD SLOAD PUSH1 0x3 DUP5 ADD SLOAD PUSH1 0x4 DUP6 ADD SLOAD SWAP6 DUP6 ADD SLOAD PUSH1 0x6 DUP7 ADD SLOAD PUSH1 0x7 SWAP1 SWAP7 ADD SLOAD PUSH1 0x1 PUSH1 0x1 PUSH1 0xA0 SHL SUB SWAP1 SWAP6 AND SWAP7 SWAP4 SWAP6 SWAP3 SWAP5 SWAP2 SWAP4 SWAP3 SWAP1 SWAP2 DUP9 JUMP JUMPDEST PUSH1 0x40 DUP1 MLOAD PUSH1 0x1 PUSH1 0x1 PUSH1 0xA0 SHL SUB SWAP1 SWAP10 AND DUP10 MSTORE PUSH1 0x20 DUP10 ADD SWAP8 SWAP1 SWAP8 MSTORE SWAP6 DUP8 ADD SWAP5 SWAP1 SWAP5 MSTORE PUSH1 0x60 DUP7 ADD SWAP3 SWAP1 SWAP3 MSTORE PUSH1 0x80 DUP6 ADD MSTORE PUSH1 0xA0 DUP5 ADD MSTORE PUSH1 0xC0 DUP4 ADD MSTORE PUSH1 0xE0 DUP3 ADD MSTORE PUSH2 0x100 ADD PUSH2 0x2C2 JUMP JUMPDEST CALLVALUE DUP1 ISZERO PUSH2 0x6D2 JUMPI PUSH1 0x0 DUP1 REVERT JUMPDEST POP PUSH2 0x3D2 PUSH2 0x6E1 CALLDATASIZE PUSH1 0x4 PUSH2 0x30B5 JUMP JUMPDEST PUSH2 0x1BAA JUMP JUMPDEST CALLVALUE DUP1 ISZERO PUSH2 0x6F2 JUMPI PUSH1 0x0 DUP1 REVERT JUMPDEST POP PUSH2 0x3D2 PUSH2 0x701 CALLDATASIZE PUSH1 0x4 PUSH2 0x2F9B JUMP JUMPDEST PUSH2 0x1E44 JUMP JUMPDEST PUSH2 0x280 PUSH2 0x714 CALLDATASIZE PUSH1 0x4 PUSH2 0x2F9B JUMP JUMPDEST PUSH2 0x1ED5 JUMP JUMPDEST CALLVALUE DUP1 ISZERO PUSH2 0x725 JUMPI PUSH1 0x0 DUP1 REVERT JUMPDEST POP PUSH2 0x280 PUSH2 0x734 CALLDATASIZE PUSH1 0x4 PUSH2 0x2F9B JUMP JUMPDEST PUSH2 0x2233 JUMP JUMPDEST PUSH2 0x280 PUSH2 0x747 CALLDATASIZE PUSH1 0x4 PUSH2 0x2F9B JUMP JUMPDEST PUSH2 0x2357 JUMP JUMPDEST CALLVALUE DUP1 ISZERO PUSH2 0x758 JUMPI PUSH1 0x0 DUP1 REVERT JUMPDEST POP PUSH1 0xD SLOAD PUSH1 0xE SLOAD PUSH1 0xF SLOAD PUSH1 0x10 SLOAD PUSH1 0x11 SLOAD PUSH1 0x12 SLOAD PUSH1 0x40 DUP1 MLOAD SWAP7 DUP8 MSTORE PUSH1 0x20 DUP8 ADD SWAP6 SWAP1 SWAP6 MSTORE SWAP4 DUP6 ADD SWAP3 SWAP1 SWAP3 MSTORE PUSH1 0x60 DUP5 ADD MSTORE PUSH1 0x80 DUP4 ADD MSTORE PUSH1 0xA0 DUP3 ADD MSTORE PUSH1 0xC0 ADD PUSH2 0x2C2 JUMP JUMPDEST CALLVALUE DUP1 ISZERO PUSH2 0x7A4 JUMPI PUSH1 0x0 DUP1 REVERT JUMPDEST POP PUSH2 0x2B8 PUSH2 0x7B3 CALLDATASIZE PUSH1 0x4 PUSH2 0x3348 JUMP JUMPDEST PUSH2 0x26A3 JUMP JUMPDEST CALLVALUE DUP1 ISZERO PUSH2 0x7C4 JUMPI PUSH1 0x0 DUP1 REVERT JUMPDEST POP PUSH2 0x849 PUSH2 0x7D3 CALLDATASIZE PUSH1 0x4 PUSH2 0x2F9B JUMP JUMPDEST PUSH1 0x3 PUSH1 0x20 DUP2 SWAP1 MSTORE PUSH1 0x0 SWAP2 DUP3 MSTORE PUSH1 0x40 SWAP1 SWAP2 KECCAK256 DUP1 SLOAD PUSH1 0x1 DUP3 ADD SLOAD PUSH1 0x2 DUP4 ADD SLOAD SWAP4 DUP4 ADD SLOAD PUSH1 0x4 DUP5 ADD SLOAD PUSH1 0x5 DUP6 ADD SLOAD PUSH1 0x6 DUP7 ADD SLOAD PUSH1 0x7 SWAP1 SWAP7 ADD SLOAD SWAP5 SWAP7 SWAP4 SWAP6 SWAP4 SWAP5 SWAP3 SWAP4 SWAP2 SWAP3 SWAP1 SWAP2 SWAP1 PUSH4 0xFFFFFFFF DUP1 DUP3 AND SWAP2 PUSH1 0x1 PUSH1 0x20 SHL DUP2 DIV DUP3 AND SWAP2 PUSH1 0x1 PUSH1 0x40 SHL DUP3 DIV AND SWAP1 PUSH1 0xFF PUSH1 0x1 PUSH1 0x60 SHL DUP3 DIV DUP2 AND SWAP2 PUSH1 0x1 PUSH1 0x68 SHL SWAP1 DIV AND DUP13 JUMP JUMPDEST PUSH1 0x40 DUP1 MLOAD SWAP13 DUP14 MSTORE PUSH1 0x20 DUP14 ADD SWAP12 SWAP1 SWAP12 MSTORE SWAP10 DUP12 ADD SWAP9 SWAP1 SWAP9 MSTORE PUSH1 0x60 DUP11 ADD SWAP7 SWAP1 SWAP7 MSTORE PUSH1 0x80 DUP10 ADD SWAP5 SWAP1 SWAP5 MSTORE PUSH1 0xA0 DUP9 ADD SWAP3 SWAP1 SWAP3 MSTORE PUSH1 0xC0 DUP8 ADD MSTORE PUSH4 0xFFFFFFFF SWAP1 DUP2 AND PUSH1 0xE0 DUP8 ADD MSTORE SWAP1 DUP2 AND PUSH2 0x100 DUP7 ADD MSTORE AND PUSH2 0x120 DUP5 ADD MSTORE ISZERO ISZERO PUSH2 0x140 DUP4 ADD MSTORE ISZERO ISZERO PUSH2 0x160 DUP3 ADD MSTORE PUSH2 0x180 ADD PUSH2 0x2C2 JUMP JUMPDEST CALLVALUE DUP1 ISZERO PUSH2 0x8BE JUMPI PUSH1 0x0 DUP1 REVERT JUMPDEST POP PUSH2 0x280 PUSH2 0x8CD CALLDATASIZE PUSH1 0x4 PUSH2 0x3093 JUMP JUMPDEST PUSH2 0x26D4 JUMP JUMPDEST CALLVALUE DUP1 ISZERO PUSH2 0x8DE JUMPI PUSH1 0x0 DUP1 REVERT JUMPDEST POP PUSH2 0x8E7 PUSH2 0x27BE JUMP JUMPDEST PUSH1 0x40 MLOAD PUSH2 0x2C2 SWAP2 SWAP1 PUSH2 0x3372 JUMP JUMPDEST CALLVALUE DUP1 ISZERO PUSH2 0x900 JUMPI PUSH1 0x0 DUP1 REVERT JUMPDEST POP PUSH2 0x280 PUSH2 0x90F CALLDATASIZE PUSH1 0x4 PUSH2 0x3487 JUMP JUMPDEST PUSH2 0x296A JUMP JUMPDEST CALLVALUE DUP1 ISZERO PUSH2 0x920 JUMPI PUSH1 0x0 DUP1 REVERT JUMPDEST POP PUSH2 0x2B8 PUSH1 0xA SLOAD DUP2 JUMP JUMPDEST CALLVALUE DUP1 ISZERO PUSH2 0x936 JUMPI PUSH1 0x0 DUP1 REVERT JUMPDEST POP PUSH2 0x2B8 PUSH1 0xB SLOAD DUP2 JUMP JUMPDEST CALLVALUE DUP1 ISZERO PUSH2 0x94C JUMPI PUSH1 0x0 DUP1 REVERT JUMPDEST POP PUSH2 0x280 PUSH2 0x29F5 JUMP JUMPDEST PUSH1 0x0 SLOAD PUSH1 0x1 PUSH1 0xA0 SHL SWAP1 DIV PUSH1 0xFF AND ISZERO PUSH2 0x988 JUMPI PUSH1 0x40 MLOAD PUSH3 0x461BCD PUSH1 0xE5 SHL DUP2 MSTORE PUSH1 0x4 ADD PUSH2 0x97F SWAP1 PUSH2 0x3538 JUMP JUMPDEST PUSH1 0x40 MLOAD DUP1 SWAP2 SUB SWAP1 REVERT JUMPDEST PUSH2 0x994 PUSH1 0x7 SLOAD DUP3 PUSH2 0x2A69 JUMP JUMPDEST PUSH2 0x9AC PUSH1 0x1 PUSH1 0x7 SLOAD PUSH2 0x9A6 SWAP2 SWAP1 PUSH2 0x3578 JUMP JUMPDEST DUP3 PUSH2 0x2C2C JUMP JUMPDEST PUSH2 0x9BE PUSH1 0x1 PUSH1 0x7 SLOAD PUSH2 0x734 SWAP2 SWAP1 PUSH2 0x3578 JUMP JUMPDEST PUSH1 0x7 DUP1 SLOAD SWAP1 PUSH1 0x0 PUSH2 0x9CE DUP4 PUSH2 0x358F JUMP JUMPDEST SWAP2 SWAP1 POP SSTORE POP PUSH2 0x9DE PUSH1 0x7 SLOAD PUSH2 0x2D89 JUMP JUMPDEST POP JUMP JUMPDEST PUSH1 0x0 SLOAD PUSH1 0x1 PUSH1 0x1 PUSH1 0xA0 SHL SUB AND CALLER EQ PUSH2 0xA0B JUMPI PUSH1 0x40 MLOAD PUSH3 0x461BCD PUSH1 0xE5 SHL DUP2 MSTORE PUSH1 0x4 ADD PUSH2 0x97F SWAP1 PUSH2 0x35A8 JUMP JUMPDEST PUSH2 0xA16 DUP4 DUP4 DUP4 PUSH2 0x2E5D JUMP JUMPDEST POP POP POP JUMP JUMPDEST PUSH1 0x0 SLOAD PUSH1 0x1 PUSH1 0x1 PUSH1 0xA0 SHL SUB AND CALLER EQ PUSH2 0xA45 JUMPI PUSH1 0x40 MLOAD PUSH3 0x461BCD PUSH1 0xE5 SHL DUP2 MSTORE PUSH1 0x4 ADD PUSH2 0x97F SWAP1 PUSH2 0x35A8 JUMP JUMPDEST PUSH1 0x9 SSTORE JUMP JUMPDEST PUSH1 0x0 SLOAD PUSH1 0x1 PUSH1 0x1 PUSH1 0xA0 SHL SUB AND CALLER EQ PUSH2 0xA74 JUMPI PUSH1 0x40 MLOAD PUSH3 0x461BCD PUSH1 0xE5 SHL DUP2 MSTORE PUSH1 0x4 ADD PUSH2 0x97F SWAP1 PUSH2 0x35A8 JUMP JUMPDEST PUSH1 0x0 SLOAD PUSH1 0x1 PUSH1 0xA0 SHL SWAP1 DIV PUSH1 0xFF AND ISZERO PUSH2 0xA9E JUMPI PUSH1 0x40 MLOAD PUSH3 0x461BCD PUSH1 0xE5 SHL DUP2 MSTORE PUSH1 0x4 ADD PUSH2 0x97F SWAP1 PUSH2 0x3538 JUMP JUMPDEST PUSH1 0xC SLOAD PUSH1 0xFF AND ISZERO PUSH2 0xAF1 JUMPI PUSH1 0x40 MLOAD PUSH3 0x461BCD PUSH1 0xE5 SHL DUP2 MSTORE PUSH1 0x20 PUSH1 0x4 DUP3 ADD DUP2 SWAP1 MSTORE PUSH1 0x24 DUP3 ADD MSTORE PUSH32 0x53746172742066756E6374696F6E2063616E206F6E6C792072756E206F6E6365 PUSH1 0x44 DUP3 ADD MSTORE PUSH1 0x64 ADD PUSH2 0x97F JUMP JUMPDEST PUSH1 0x7 SLOAD PUSH2 0xAFF SWAP1 PUSH1 0x1 PUSH2 0x35DD JUMP JUMPDEST PUSH1 0x7 DUP2 SWAP1 SSTORE PUSH2 0xB0D SWAP1 PUSH2 0x2D89 JUMP JUMPDEST PUSH1 0xC DUP1 SLOAD PUSH1 0xFF NOT AND PUSH1 0x1 OR SWAP1 SSTORE JUMP JUMPDEST PUSH1 0x0 SLOAD PUSH1 0x1 PUSH1 0x1 PUSH1 0xA0 SHL SUB AND CALLER EQ PUSH2 0xB46 JUMPI PUSH1 0x40 MLOAD PUSH3 0x461BCD PUSH1 0xE5 SHL DUP2 MSTORE PUSH1 0x4 ADD PUSH2 0x97F SWAP1 PUSH2 0x35A8 JUMP JUMPDEST PUSH1 0x0 SLOAD PUSH1 0x1 PUSH1 0xA0 SHL SWAP1 DIV PUSH1 0xFF AND ISZERO PUSH2 0xB70 JUMPI PUSH1 0x40 MLOAD PUSH3 0x461BCD PUSH1 0xE5 SHL DUP2 MSTORE PUSH1 0x4 ADD PUSH2 0x97F SWAP1 PUSH2 0x3538 JUMP JUMPDEST CALLER EXTCODESIZE ISZERO PUSH2 0xB8F JUMPI PUSH1 0x40 MLOAD PUSH3 0x461BCD PUSH1 0xE5 SHL DUP2 MSTORE PUSH1 0x4 ADD PUSH2 0x97F SWAP1 PUSH2 0x35F5 JUMP JUMPDEST CALLER ORIGIN EQ PUSH2 0xBAE JUMPI PUSH1 0x40 MLOAD PUSH3 0x461BCD PUSH1 0xE5 SHL DUP2 MSTORE PUSH1 0x4 ADD PUSH2 0x97F SWAP1 PUSH2 0x3624 JUMP JUMPDEST PUSH2 0xBB9 PUSH1 0x7 SLOAD PUSH2 0x1E44 JUMP JUMPDEST PUSH2 0xBD5 JUMPI PUSH1 0x40 MLOAD PUSH3 0x461BCD PUSH1 0xE5 SHL DUP2 MSTORE PUSH1 0x4 ADD PUSH2 0x97F SWAP1 PUSH2 0x365B JUMP JUMPDEST DUP2 ISZERO PUSH2 0xC52 JUMPI PUSH1 0x7 SLOAD PUSH1 0x0 SWAP1 DUP2 MSTORE PUSH1 0x3 PUSH1 0x20 MSTORE PUSH1 0x40 DUP2 KECCAK256 PUSH1 0x1 DUP2 ADD DUP1 SLOAD SWAP2 SWAP3 DUP6 SWAP3 PUSH2 0xC01 SWAP1 DUP5 SWAP1 PUSH2 0x35DD JUMP JUMPDEST SWAP1 SWAP2 SSTORE POP POP PUSH1 0x7 DUP1 SLOAD PUSH1 0x0 SWAP1 DUP2 MSTORE PUSH1 0x4 PUSH1 0x20 SWAP1 DUP2 MSTORE PUSH1 0x40 DUP1 DUP4 KECCAK256 ADDRESS DUP5 MSTORE DUP3 MSTORE DUP1 DUP4 KECCAK256 DUP1 SLOAD PUSH1 0xFF NOT AND DUP2 SSTORE PUSH1 0x3 DUP2 ADD DUP9 SWAP1 SSTORE TIMESTAMP PUSH1 0x1 SWAP2 DUP3 ADD SSTORE PUSH1 0x6 DUP4 MSTORE SWAP1 DUP4 KECCAK256 SWAP4 SLOAD DUP5 SLOAD SWAP2 DUP3 ADD DUP6 SSTORE SWAP4 DUP4 MSTORE SWAP2 KECCAK256 ADD SSTORE POP JUMPDEST DUP1 ISZERO PUSH2 0xCD5 JUMPI PUSH1 0x7 SLOAD PUSH1 0x0 SWAP1 DUP2 MSTORE PUSH1 0x3 PUSH1 0x20 MSTORE PUSH1 0x40 DUP2 KECCAK256 PUSH1 0x2 DUP2 ADD DUP1 SLOAD SWAP2 SWAP3 DUP5 SWAP3 PUSH2 0xC7E SWAP1 DUP5 SWAP1 PUSH2 0x35DD JUMP JUMPDEST SWAP1 SWAP2 SSTORE POP POP PUSH1 0x7 DUP1 SLOAD PUSH1 0x0 SWAP1 DUP2 MSTORE PUSH1 0x4 PUSH1 0x20 SWAP1 DUP2 MSTORE PUSH1 0x40 DUP1 DUP4 KECCAK256 ADDRESS DUP5 MSTORE DUP3 MSTORE DUP1 DUP4 KECCAK256 DUP1 SLOAD PUSH1 0xFF NOT AND PUSH1 0x1 SWAP1 DUP2 OR DUP3 SSTORE PUSH1 0x3 DUP3 ADD DUP9 SWAP1 SSTORE TIMESTAMP SWAP2 DUP2 ADD SWAP2 SWAP1 SWAP2 SSTORE PUSH1 0x6 DUP4 MSTORE SWAP1 DUP4 KECCAK256 SWAP4 SLOAD DUP5 SLOAD SWAP2 DUP3 ADD DUP6 SSTORE SWAP4 DUP4 MSTORE SWAP2 KECCAK256 ADD SSTORE POP JUMPDEST PUSH1 0x7 SLOAD PUSH1 0x40 DUP1 MLOAD DUP5 DUP2 MSTORE PUSH1 0x20 DUP2 ADD DUP5 SWAP1 MSTORE ADDRESS SWAP2 PUSH32 0xE3B9E415C1EC5664BAC5576F8AC4B84CACF237C6E9635809C8BC6D3FB6FD0A84 SWAP2 ADD PUSH1 0x40 MLOAD DUP1 SWAP2 SUB SWAP1 LOG3 POP POP JUMP JUMPDEST PUSH1 0x8 DUP1 SLOAD PUSH2 0xD24 SWAP1 PUSH2 0x3687 JUMP JUMPDEST DUP1 PUSH1 0x1F ADD PUSH1 0x20 DUP1 SWAP2 DIV MUL PUSH1 0x20 ADD PUSH1 0x40 MLOAD SWAP1 DUP2 ADD PUSH1 0x40 MSTORE DUP1 SWAP3 SWAP2 SWAP1 DUP2 DUP2 MSTORE PUSH1 0x20 ADD DUP3 DUP1 SLOAD PUSH2 0xD50 SWAP1 PUSH2 0x3687 JUMP JUMPDEST DUP1 ISZERO PUSH2 0xD9D JUMPI DUP1 PUSH1 0x1F LT PUSH2 0xD72 JUMPI PUSH2 0x100 DUP1 DUP4 SLOAD DIV MUL DUP4 MSTORE SWAP2 PUSH1 0x20 ADD SWAP2 PUSH2 0xD9D JUMP JUMPDEST DUP3 ADD SWAP2 SWAP1 PUSH1 0x0 MSTORE PUSH1 0x20 PUSH1 0x0 KECCAK256 SWAP1 JUMPDEST DUP2 SLOAD DUP2 MSTORE SWAP1 PUSH1 0x1 ADD SWAP1 PUSH1 0x20 ADD DUP1 DUP4 GT PUSH2 0xD80 JUMPI DUP3 SWAP1 SUB PUSH1 0x1F AND DUP3 ADD SWAP2 JUMPDEST POP POP POP POP POP DUP2 JUMP JUMPDEST PUSH1 0x0 SLOAD PUSH1 0x1 PUSH1 0xA0 SHL SWAP1 DIV PUSH1 0xFF AND ISZERO PUSH2 0xDCF JUMPI PUSH1 0x40 MLOAD PUSH3 0x461BCD PUSH1 0xE5 SHL DUP2 MSTORE PUSH1 0x4 ADD PUSH2 0x97F SWAP1 PUSH2 0x3538 JUMP JUMPDEST PUSH1 0xC SLOAD PUSH1 0xFF AND PUSH2 0xE15 JUMPI PUSH1 0x40 MLOAD PUSH3 0x461BCD PUSH1 0xE5 SHL DUP2 MSTORE PUSH1 0x20 PUSH1 0x4 DUP3 ADD MSTORE PUSH1 0x11 PUSH1 0x24 DUP3 ADD MSTORE PUSH17 0x149BDD5B99081B9BDD081CDD185C9D1959 PUSH1 0x7A SHL PUSH1 0x44 DUP3 ADD MSTORE PUSH1 0x64 ADD PUSH2 0x97F JUMP JUMPDEST PUSH2 0x9BE PUSH1 0x7 SLOAD DUP3 PUSH2 0x2A69 JUMP JUMPDEST PUSH1 0x0 SLOAD PUSH1 0x1 PUSH1 0x1 PUSH1 0xA0 SHL SUB AND CALLER EQ PUSH2 0xE4B JUMPI PUSH1 0x40 MLOAD PUSH3 0x461BCD PUSH1 0xE5 SHL DUP2 MSTORE PUSH1 0x4 ADD PUSH2 0x97F SWAP1 PUSH2 0x35A8 JUMP JUMPDEST PUSH1 0xA DUP2 SWAP1 SSTORE PUSH1 0x40 MLOAD DUP2 DUP2 MSTORE PUSH32 0x696FAB4A25D5A0F71F21EE59AA7512CD96FE20B7A28F4E2663099566B4639D89 SWAP1 PUSH1 0x20 ADD PUSH1 0x40 MLOAD DUP1 SWAP2 SUB SWAP1 LOG1 POP JUMP JUMPDEST PUSH1 0x0 SLOAD PUSH1 0x1 PUSH1 0x1 PUSH1 0xA0 SHL SUB AND CALLER EQ PUSH2 0xEB0 JUMPI PUSH1 0x40 MLOAD PUSH3 0x461BCD PUSH1 0xE5 SHL DUP2 MSTORE PUSH1 0x4 ADD PUSH2 0x97F SWAP1 PUSH2 0x35A8 JUMP JUMPDEST PUSH1 0xB DUP2 SWAP1 SSTORE PUSH1 0x7 SLOAD PUSH1 0x40 MLOAD DUP3 DUP2 MSTORE PUSH32 0x82480E97991520549AC4B5D0E1D97EDB3BFAC2666202923B6903D2A953DC7608 SWAP1 PUSH1 0x20 ADD PUSH1 0x40 MLOAD DUP1 SWAP2 SUB SWAP1 LOG2 POP JUMP JUMPDEST PUSH1 0x0 SLOAD PUSH1 0x1 PUSH1 0x1 PUSH1 0xA0 SHL SUB AND CALLER EQ PUSH2 0xF18 JUMPI PUSH1 0x40 MLOAD PUSH3 0x461BCD PUSH1 0xE5 SHL DUP2 MSTORE PUSH1 0x4 ADD PUSH2 0x97F SWAP1 PUSH2 0x35A8 JUMP JUMPDEST PUSH1 0x0 SLOAD PUSH1 0x1 PUSH1 0xA0 SHL SWAP1 DIV PUSH1 0xFF AND PUSH2 0xF68 JUMPI PUSH1 0x40 MLOAD PUSH3 0x461BCD PUSH1 0xE5 SHL DUP2 MSTORE PUSH1 0x20 PUSH1 0x4 DUP3 ADD MSTORE PUSH1 0x14 PUSH1 0x24 DUP3 ADD MSTORE PUSH20 0x14185D5CD8589B194E881B9BDD081C185D5CD959 PUSH1 0x62 SHL PUSH1 0x44 DUP3 ADD MSTORE PUSH1 0x64 ADD PUSH2 0x97F JUMP JUMPDEST PUSH1 0xC DUP1 SLOAD PUSH2 0xFFFF NOT AND SWAP1 SSTORE PUSH2 0xF7B PUSH2 0x2EC7 JUMP JUMPDEST PUSH1 0x7 SLOAD PUSH1 0x40 MLOAD PUSH32 0x9DD715FED52C25E642F97653BB4C4339AD98FE6D6E130348BE82AE5D86383A8C SWAP1 PUSH1 0x0 SWAP1 LOG2 JUMP JUMPDEST PUSH1 0x0 SLOAD PUSH1 0x1 PUSH1 0x1 PUSH1 0xA0 SHL SUB AND CALLER EQ PUSH2 0xFD3 JUMPI PUSH1 0x40 MLOAD PUSH3 0x461BCD PUSH1 0xE5 SHL DUP2 MSTORE PUSH1 0x4 ADD PUSH2 0x97F SWAP1 PUSH2 0x35A8 JUMP JUMPDEST PUSH1 0x0 SLOAD PUSH1 0x1 PUSH1 0xA0 SHL SWAP1 DIV PUSH1 0xFF AND ISZERO PUSH2 0xFFD JUMPI PUSH1 0x40 MLOAD PUSH3 0x461BCD PUSH1 0xE5 SHL DUP2 MSTORE PUSH1 0x4 ADD PUSH2 0x97F SWAP1 PUSH2 0x3538 JUMP JUMPDEST PUSH2 0x1005 PUSH2 0x2F26 JUMP JUMPDEST PUSH1 0x7 SLOAD PUSH1 0x40 MLOAD PUSH32 0x32FB7C9891BC4F963C7DE9F1186D2A7755C7D6E9F4604DABE1D8BB3027C2F49E SWAP1 PUSH1 0x0 SWAP1 LOG2 JUMP JUMPDEST PUSH1 0x60 PUSH1 0x3 PUSH1 0x0 DUP4 DUP2 MSTORE PUSH1 0x20 ADD SWAP1 DUP2 MSTORE PUSH1 0x20 ADD PUSH1 0x0 KECCAK256 PUSH1 0x8 ADD DUP1 SLOAD DUP1 PUSH1 0x20 MUL PUSH1 0x20 ADD PUSH1 0x40 MLOAD SWAP1 DUP2 ADD PUSH1 0x40 MSTORE DUP1 SWAP3 SWAP2 SWAP1 DUP2 DUP2 MSTORE PUSH1 0x20 ADD PUSH1 0x0 SWAP1 JUMPDEST DUP3 DUP3 LT ISZERO PUSH2 0x10F9 JUMPI PUSH1 0x0 DUP5 DUP2 MSTORE PUSH1 0x20 SWAP1 DUP2 SWAP1 KECCAK256 PUSH1 0x40 DUP1 MLOAD PUSH1 0x80 DUP2 ADD SWAP1 SWAP2 MSTORE PUSH1 0x3 DUP6 MUL SWAP1 SWAP2 ADD DUP1 SLOAD PUSH1 0x1 PUSH1 0x1 PUSH1 0xA0 SHL SUB DUP2 AND DUP4 MSTORE SWAP2 SWAP3 SWAP1 SWAP2 SWAP1 DUP4 ADD SWAP1 PUSH1 0x1 PUSH1 0xA0 SHL SWAP1 DIV PUSH1 0xFF AND PUSH1 0x1 DUP2 GT ISZERO PUSH2 0x10C1 JUMPI PUSH2 0x10C1 PUSH2 0x30E1 JUMP JUMPDEST PUSH1 0x1 DUP2 GT ISZERO PUSH2 0x10D2 JUMPI PUSH2 0x10D2 PUSH2 0x30E1 JUMP JUMPDEST DUP2 MSTORE PUSH1 0x20 ADD PUSH1 0x1 DUP3 ADD SLOAD DUP2 MSTORE PUSH1 0x20 ADD PUSH1 0x2 DUP3 ADD SLOAD DUP2 MSTORE POP POP DUP2 MSTORE PUSH1 0x20 ADD SWAP1 PUSH1 0x1 ADD SWAP1 PUSH2 0x106B JUMP JUMPDEST POP POP POP POP SWAP1 POP SWAP2 SWAP1 POP JUMP JUMPDEST PUSH1 0x0 DUP3 DUP2 MSTORE PUSH1 0x4 PUSH1 0x20 SWAP1 DUP2 MSTORE PUSH1 0x40 DUP1 DUP4 KECCAK256 PUSH1 0x1 PUSH1 0x1 PUSH1 0xA0 SHL SUB DUP6 AND DUP5 MSTORE SWAP1 SWAP2 MSTORE DUP1 DUP3 KECCAK256 DUP2 MLOAD PUSH1 0xA0 DUP2 ADD SWAP1 SWAP3 MSTORE DUP1 SLOAD DUP4 SWAP3 SWAP2 SWAP1 DUP3 SWAP1 PUSH1 0xFF AND PUSH1 0x1 DUP2 GT ISZERO PUSH2 0x114C JUMPI PUSH2 0x114C PUSH2 0x30E1 JUMP JUMPDEST PUSH1 0x1 DUP2 GT ISZERO PUSH2 0x115D JUMPI PUSH2 0x115D PUSH2 0x30E1 JUMP JUMPDEST DUP2 MSTORE PUSH1 0x1 DUP3 DUP2 ADD SLOAD PUSH1 0x20 DUP1 DUP5 ADD SWAP2 SWAP1 SWAP2 MSTORE PUSH1 0x2 DUP1 DUP6 ADD SLOAD PUSH1 0x40 DUP1 DUP7 ADD SWAP2 SWAP1 SWAP2 MSTORE PUSH1 0x3 DUP1 DUP8 ADD SLOAD PUSH1 0x60 DUP1 DUP9 ADD SWAP2 SWAP1 SWAP2 MSTORE PUSH1 0x4 SWAP8 DUP9 ADD SLOAD PUSH1 0xFF SWAP1 DUP2 AND ISZERO ISZERO PUSH1 0x80 SWAP9 DUP10 ADD MSTORE PUSH1 0x0 DUP15 DUP2 MSTORE DUP4 DUP8 MSTORE DUP5 DUP2 KECCAK256 DUP6 MLOAD PUSH2 0x1A0 DUP2 ADD DUP8 MSTORE DUP2 SLOAD DUP2 MSTORE SWAP9 DUP2 ADD SLOAD DUP10 DUP10 ADD MSTORE SWAP6 DUP7 ADD SLOAD DUP9 DUP7 ADD MSTORE SWAP3 DUP6 ADD SLOAD SWAP2 DUP8 ADD SWAP2 SWAP1 SWAP2 MSTORE SWAP7 DUP4 ADD SLOAD SWAP6 DUP6 ADD SWAP6 SWAP1 SWAP6 MSTORE PUSH1 0x5 DUP3 ADD SLOAD PUSH1 0xA0 DUP6 ADD MSTORE PUSH1 0x6 DUP3 ADD SLOAD PUSH1 0xC0 DUP6 ADD MSTORE PUSH1 0x7 DUP3 ADD SLOAD PUSH4 0xFFFFFFFF DUP1 DUP3 AND PUSH1 0xE0 DUP8 ADD MSTORE PUSH1 0x1 PUSH1 0x20 SHL DUP3 DIV DUP2 AND PUSH2 0x100 DUP8 ADD MSTORE PUSH1 0x1 PUSH1 0x40 SHL DUP3 DIV AND PUSH2 0x120 DUP7 ADD MSTORE PUSH1 0x1 PUSH1 0x60 SHL DUP2 DIV DUP8 AND ISZERO ISZERO PUSH2 0x140 DUP7 ADD MSTORE PUSH1 0x1 PUSH1 0x68 SHL SWAP1 DIV SWAP1 SWAP6 AND ISZERO ISZERO PUSH2 0x160 DUP5 ADD MSTORE PUSH1 0x8 DUP2 ADD DUP1 SLOAD DUP7 MLOAD DUP2 DUP6 MUL DUP2 ADD DUP6 ADD SWAP1 SWAP8 MSTORE DUP1 DUP8 MSTORE SWAP7 SWAP8 POP SWAP4 SWAP6 SWAP3 SWAP5 SWAP1 SWAP4 PUSH2 0x180 DUP7 ADD SWAP4 SWAP2 SWAP3 SWAP1 SWAP2 SWAP1 DUP8 SWAP1 DUP5 ADD JUMPDEST DUP3 DUP3 LT ISZERO PUSH2 0x12FF JUMPI PUSH1 0x0 DUP5 DUP2 MSTORE PUSH1 0x20 SWAP1 DUP2 SWAP1 KECCAK256 PUSH1 0x40 DUP1 MLOAD PUSH1 0x80 DUP2 ADD SWAP1 SWAP2 MSTORE PUSH1 0x3 DUP6 MUL SWAP1 SWAP2 ADD DUP1 SLOAD PUSH1 0x1 PUSH1 0x1 PUSH1 0xA0 SHL SUB DUP2 AND DUP4 MSTORE SWAP2 SWAP3 SWAP1 SWAP2 SWAP1 DUP4 ADD SWAP1 PUSH1 0x1 PUSH1 0xA0 SHL SWAP1 DIV PUSH1 0xFF AND PUSH1 0x1 DUP2 GT ISZERO PUSH2 0x12C7 JUMPI PUSH2 0x12C7 PUSH2 0x30E1 JUMP JUMPDEST PUSH1 0x1 DUP2 GT ISZERO PUSH2 0x12D8 JUMPI PUSH2 0x12D8 PUSH2 0x30E1 JUMP JUMPDEST DUP2 MSTORE PUSH1 0x20 ADD PUSH1 0x1 DUP3 ADD SLOAD DUP2 MSTORE PUSH1 0x20 ADD PUSH1 0x2 DUP3 ADD SLOAD DUP2 MSTORE POP POP DUP2 MSTORE PUSH1 0x20 ADD SWAP1 PUSH1 0x1 ADD SWAP1 PUSH2 0x1271 JUMP JUMPDEST POP POP POP POP DUP2 MSTORE POP POP SWAP1 POP DUP1 PUSH2 0x140 ADD MLOAD ISZERO DUP1 ISZERO PUSH2 0x131E JUMPI POP DUP2 PUSH1 0x80 ADD MLOAD ISZERO JUMPDEST DUP1 ISZERO PUSH2 0x1334 JUMPI POP DUP1 PUSH2 0x120 ADD MLOAD PUSH4 0xFFFFFFFF AND TIMESTAMP GT JUMPDEST DUP1 ISZERO PUSH2 0x1343 JUMPI POP PUSH1 0x60 DUP3 ADD MLOAD ISZERO ISZERO JUMPDEST SWAP3 POP POP POP JUMPDEST SWAP3 SWAP2 POP POP JUMP JUMPDEST PUSH1 0x0 SLOAD PUSH1 0x1 PUSH1 0x1 PUSH1 0xA0 SHL SUB AND CALLER EQ PUSH2 0x1378 JUMPI PUSH1 0x40 MLOAD PUSH3 0x461BCD PUSH1 0xE5 SHL DUP2 MSTORE PUSH1 0x4 ADD PUSH2 0x97F SWAP1 PUSH2 0x35A8 JUMP JUMPDEST JUMP JUMPDEST PUSH1 0x1 PUSH1 0x1 PUSH1 0xA0 SHL SUB DUP2 AND PUSH1 0x0 SWAP1 DUP2 MSTORE PUSH1 0x6 PUSH1 0x20 SWAP1 DUP2 MSTORE PUSH1 0x40 SWAP2 DUP3 SWAP1 KECCAK256 DUP1 SLOAD DUP4 MLOAD DUP2 DUP5 MUL DUP2 ADD DUP5 ADD SWAP1 SWAP5 MSTORE DUP1 DUP5 MSTORE PUSH1 0x60 SWAP4 SWAP3 DUP4 ADD DUP3 DUP3 DUP1 ISZERO PUSH2 0x13DA JUMPI PUSH1 0x20 MUL DUP3 ADD SWAP2 SWAP1 PUSH1 0x0 MSTORE PUSH1 0x20 PUSH1 0x0 KECCAK256 SWAP1 JUMPDEST DUP2 SLOAD DUP2 MSTORE PUSH1 0x20 ADD SWAP1 PUSH1 0x1 ADD SWAP1 DUP1 DUP4 GT PUSH2 0x13C6 JUMPI JUMPDEST POP POP POP POP POP SWAP1 POP SWAP2 SWAP1 POP JUMP JUMPDEST PUSH1 0x0 SLOAD PUSH1 0x1 PUSH1 0x1 PUSH1 0xA0 SHL SUB AND CALLER EQ PUSH2 0x1410 JUMPI PUSH1 0x40 MLOAD PUSH3 0x461BCD PUSH1 0xE5 SHL DUP2 MSTORE PUSH1 0x4 ADD PUSH2 0x97F SWAP1 PUSH2 0x35A8 JUMP JUMPDEST PUSH2 0x9DE PUSH2 0x1425 PUSH1 0x0 SLOAD PUSH1 0x1 PUSH1 0x1 PUSH1 0xA0 SHL SUB AND SWAP1 JUMP JUMPDEST DUP3 PUSH2 0x2F65 JUMP JUMPDEST PUSH1 0x2 PUSH1 0x1 SLOAD SUB PUSH2 0x144D JUMPI PUSH1 0x40 MLOAD PUSH3 0x461BCD PUSH1 0xE5 SHL DUP2 MSTORE PUSH1 0x4 ADD PUSH2 0x97F SWAP1 PUSH2 0x36C1 JUMP JUMPDEST PUSH1 0x2 PUSH1 0x1 SSTORE CALLER EXTCODESIZE ISZERO PUSH2 0x1471 JUMPI PUSH1 0x40 MLOAD PUSH3 0x461BCD PUSH1 0xE5 SHL DUP2 MSTORE PUSH1 0x4 ADD PUSH2 0x97F SWAP1 PUSH2 0x35F5 JUMP JUMPDEST CALLER ORIGIN EQ PUSH2 0x1490 JUMPI PUSH1 0x40 MLOAD PUSH3 0x461BCD PUSH1 0xE5 SHL DUP2 MSTORE PUSH1 0x4 ADD PUSH2 0x97F SWAP1 PUSH2 0x3624 JUMP JUMPDEST PUSH1 0x0 DUP1 JUMPDEST DUP3 DUP2 LT ISZERO PUSH2 0x18A7 JUMPI PUSH1 0x3 PUSH1 0x0 DUP6 DUP6 DUP5 DUP2 DUP2 LT PUSH2 0x14B2 JUMPI PUSH2 0x14B2 PUSH2 0x36F8 JUMP JUMPDEST SWAP1 POP PUSH1 0x20 MUL ADD CALLDATALOAD DUP2 MSTORE PUSH1 0x20 ADD SWAP1 DUP2 MSTORE PUSH1 0x20 ADD PUSH1 0x0 KECCAK256 PUSH1 0x7 ADD PUSH1 0xC SWAP1 SLOAD SWAP1 PUSH2 0x100 EXP SWAP1 DIV PUSH1 0xFF AND ISZERO PUSH2 0x1895 JUMPI PUSH2 0x14FF DUP5 DUP5 DUP4 DUP2 DUP2 LT PUSH2 0x14F2 JUMPI PUSH2 0x14F2 PUSH2 0x36F8 JUMP JUMPDEST SWAP1 POP PUSH1 0x20 MUL ADD CALLDATALOAD CALLER PUSH2 0x1BAA JUMP JUMPDEST ISZERO PUSH2 0x1895 JUMPI PUSH1 0x0 PUSH1 0x3 PUSH1 0x0 DUP7 DUP7 DUP6 DUP2 DUP2 LT PUSH2 0x151C JUMPI PUSH2 0x151C PUSH2 0x36F8 JUMP JUMPDEST PUSH1 0x20 SWAP1 DUP2 MUL SWAP3 SWAP1 SWAP3 ADD CALLDATALOAD DUP4 MSTORE POP DUP2 DUP2 ADD SWAP3 SWAP1 SWAP3 MSTORE PUSH1 0x40 SWAP1 DUP2 ADD PUSH1 0x0 SWAP1 DUP2 KECCAK256 DUP3 MLOAD PUSH2 0x1A0 DUP2 ADD DUP5 MSTORE DUP2 SLOAD DUP2 MSTORE PUSH1 0x1 DUP3 ADD SLOAD DUP2 DUP7 ADD MSTORE PUSH1 0x2 DUP3 ADD SLOAD DUP2 DUP6 ADD MSTORE PUSH1 0x3 DUP3 ADD SLOAD PUSH1 0x60 DUP3 ADD MSTORE PUSH1 0x4 DUP3 ADD SLOAD PUSH1 0x80 DUP3 ADD MSTORE PUSH1 0x5 DUP3 ADD SLOAD PUSH1 0xA0 DUP3 ADD MSTORE PUSH1 0x6 DUP3 ADD SLOAD PUSH1 0xC0 DUP3 ADD MSTORE PUSH1 0x7 DUP3 ADD SLOAD PUSH4 0xFFFFFFFF DUP1 DUP3 AND PUSH1 0xE0 DUP5 ADD MSTORE PUSH1 0x1 PUSH1 0x20 SHL DUP3 DIV DUP2 AND PUSH2 0x100 DUP5 ADD MSTORE PUSH1 0x1 PUSH1 0x40 SHL DUP3 DIV AND PUSH2 0x120 DUP4 ADD MSTORE PUSH1 0xFF PUSH1 0x1 PUSH1 0x60 SHL DUP3 DIV DUP2 AND ISZERO ISZERO PUSH2 0x140 DUP5 ADD MSTORE PUSH1 0x1 PUSH1 0x68 SHL SWAP1 SWAP2 DIV AND ISZERO ISZERO PUSH2 0x160 DUP3 ADD MSTORE PUSH1 0x8 DUP3 ADD DUP1 SLOAD DUP6 MLOAD DUP2 DUP9 MUL DUP2 ADD DUP9 ADD SWAP1 SWAP7 MSTORE DUP1 DUP7 MSTORE SWAP2 SWAP6 SWAP3 SWAP5 PUSH2 0x180 DUP8 ADD SWAP5 SWAP1 SWAP4 SWAP2 SWAP3 SWAP2 DUP5 ADD JUMPDEST DUP3 DUP3 LT ISZERO PUSH2 0x1689 JUMPI PUSH1 0x0 DUP5 DUP2 MSTORE PUSH1 0x20 SWAP1 DUP2 SWAP1 KECCAK256 PUSH1 0x40 DUP1 MLOAD PUSH1 0x80 DUP2 ADD SWAP1 SWAP2 MSTORE PUSH1 0x3 DUP6 MUL SWAP1 SWAP2 ADD DUP1 SLOAD PUSH1 0x1 PUSH1 0x1 PUSH1 0xA0 SHL SUB DUP2 AND DUP4 MSTORE SWAP2 SWAP3 SWAP1 SWAP2 SWAP1 DUP4 ADD SWAP1 PUSH1 0x1 PUSH1 0xA0 SHL SWAP1 DIV PUSH1 0xFF AND PUSH1 0x1 DUP2 GT ISZERO PUSH2 0x1651 JUMPI PUSH2 0x1651 PUSH2 0x30E1 JUMP JUMPDEST PUSH1 0x1 DUP2 GT ISZERO PUSH2 0x1662 JUMPI PUSH2 0x1662 PUSH2 0x30E1 JUMP JUMPDEST DUP2 MSTORE PUSH1 0x20 ADD PUSH1 0x1 DUP3 ADD SLOAD DUP2 MSTORE PUSH1 0x20 ADD PUSH1 0x2 DUP3 ADD SLOAD DUP2 MSTORE POP POP DUP2 MSTORE PUSH1 0x20 ADD SWAP1 PUSH1 0x1 ADD SWAP1 PUSH2 0x15FB JUMP JUMPDEST POP POP POP POP DUP2 MSTORE POP POP SWAP1 POP PUSH1 0x0 DUP2 PUSH1 0x60 ADD MLOAD DUP3 PUSH1 0x80 ADD MLOAD PUSH1 0x4 PUSH1 0x0 DUP10 DUP10 DUP9 DUP2 DUP2 LT PUSH2 0x16B5 JUMPI PUSH2 0x16B5 PUSH2 0x36F8 JUMP JUMPDEST SWAP1 POP PUSH1 0x20 MUL ADD CALLDATALOAD DUP2 MSTORE PUSH1 0x20 ADD SWAP1 DUP2 MSTORE PUSH1 0x20 ADD PUSH1 0x0 KECCAK256 PUSH1 0x0 CALLER PUSH1 0x1 PUSH1 0x1 PUSH1 0xA0 SHL SUB AND PUSH1 0x1 PUSH1 0x1 PUSH1 0xA0 SHL SUB AND DUP2 MSTORE PUSH1 0x20 ADD SWAP1 DUP2 MSTORE PUSH1 0x20 ADD PUSH1 0x0 KECCAK256 PUSH1 0x3 ADD SLOAD PUSH2 0x16FB SWAP2 SWAP1 PUSH2 0x370E JUMP JUMPDEST PUSH2 0x1705 SWAP2 SWAP1 PUSH2 0x372D JUMP JUMPDEST SWAP1 POP PUSH1 0x1 PUSH1 0x4 PUSH1 0x0 DUP9 DUP9 DUP8 DUP2 DUP2 LT PUSH2 0x171F JUMPI PUSH2 0x171F PUSH2 0x36F8 JUMP JUMPDEST SWAP1 POP PUSH1 0x20 MUL ADD CALLDATALOAD DUP2 MSTORE PUSH1 0x20 ADD SWAP1 DUP2 MSTORE PUSH1 0x20 ADD PUSH1 0x0 KECCAK256 PUSH1 0x0 CALLER PUSH1 0x1 PUSH1 0x1 PUSH1 0xA0 SHL SUB AND PUSH1 0x1 PUSH1 0x1 PUSH1 0xA0 SHL SUB AND DUP2 MSTORE PUSH1 0x20 ADD SWAP1 DUP2 MSTORE PUSH1 0x20 ADD PUSH1 0x0 KECCAK256 PUSH1 0x4 ADD PUSH1 0x0 PUSH2 0x100 EXP DUP2 SLOAD DUP2 PUSH1 0xFF MUL NOT AND SWAP1 DUP4 ISZERO ISZERO MUL OR SWAP1 SSTORE POP TIMESTAMP PUSH1 0x4 PUSH1 0x0 DUP9 DUP9 DUP8 DUP2 DUP2 LT PUSH2 0x1788 JUMPI PUSH2 0x1788 PUSH2 0x36F8 JUMP JUMPDEST PUSH1 0x20 SWAP1 DUP2 MUL SWAP3 SWAP1 SWAP3 ADD CALLDATALOAD DUP4 MSTORE POP DUP2 DUP2 ADD SWAP3 SWAP1 SWAP3 MSTORE PUSH1 0x40 SWAP1 DUP2 ADD PUSH1 0x0 SWAP1 DUP2 KECCAK256 CALLER DUP3 MSTORE SWAP1 SWAP3 MSTORE SWAP1 KECCAK256 PUSH1 0x2 ADD SSTORE PUSH2 0x17BC DUP2 DUP6 PUSH2 0x35DD JUMP JUMPDEST CALLER PUSH1 0x0 SWAP1 DUP2 MSTORE PUSH1 0x5 PUSH1 0x20 MSTORE PUSH1 0x40 DUP2 KECCAK256 PUSH1 0x6 ADD DUP1 SLOAD SWAP3 SWAP7 POP SWAP1 PUSH2 0x17DD DUP4 PUSH2 0x358F JUMP JUMPDEST SWAP1 SWAP2 SSTORE POP POP CALLER PUSH1 0x0 SWAP1 DUP2 MSTORE PUSH1 0x5 PUSH1 0x20 MSTORE PUSH1 0x40 DUP2 KECCAK256 PUSH1 0x7 ADD DUP1 SLOAD DUP4 SWAP3 SWAP1 PUSH2 0x1804 SWAP1 DUP5 SWAP1 PUSH2 0x35DD JUMP JUMPDEST SWAP1 SWAP2 SSTORE POP POP PUSH1 0x11 DUP1 SLOAD SWAP1 PUSH1 0x0 PUSH2 0x1819 DUP4 PUSH2 0x358F JUMP JUMPDEST SWAP2 SWAP1 POP SSTORE POP DUP1 PUSH1 0x12 PUSH1 0x0 DUP3 DUP3 SLOAD PUSH2 0x1830 SWAP2 SWAP1 PUSH2 0x35DD JUMP JUMPDEST SWAP1 SWAP2 SSTORE POP DUP7 SWAP1 POP DUP6 DUP5 DUP2 DUP2 LT PUSH2 0x1848 JUMPI PUSH2 0x1848 PUSH2 0x36F8 JUMP JUMPDEST SWAP1 POP PUSH1 0x20 MUL ADD CALLDATALOAD CALLER PUSH1 0x1 PUSH1 0x1 PUSH1 0xA0 SHL SUB AND PUSH32 0x987D620F307FF6B94D58743CB7A7509F24071586A77759B77C2D4E29F75A2F9A DUP4 PUSH1 0x40 MLOAD PUSH2 0x188A SWAP2 DUP2 MSTORE PUSH1 0x20 ADD SWAP1 JUMP JUMPDEST PUSH1 0x40 MLOAD DUP1 SWAP2 SUB SWAP1 LOG3 POP POP JUMPDEST DUP1 PUSH2 0x189F DUP2 PUSH2 0x358F JUMP JUMPDEST SWAP2 POP POP PUSH2 0x1494 JUMP JUMPDEST POP PUSH1 0x0 DUP2 GT PUSH2 0x190B JUMPI PUSH1 0x40 MLOAD PUSH3 0x461BCD PUSH1 0xE5 SHL DUP2 MSTORE PUSH1 0x20 PUSH1 0x4 DUP3 ADD MSTORE PUSH1 0x2A PUSH1 0x24 DUP3 ADD MSTORE PUSH32 0x4E6F7420666F756E6420616E7920656C696769626C65207265776172642F7265 PUSH1 0x44 DUP3 ADD MSTORE PUSH10 0x66756E642066756E6473 PUSH1 0xB0 SHL PUSH1 0x64 DUP3 ADD MSTORE PUSH1 0x84 ADD PUSH2 0x97F JUMP JUMPDEST DUP1 ISZERO PUSH2 0x191B JUMPI PUSH2 0x191B CALLER DUP3 PUSH2 0x2F65 JUMP JUMPDEST POP POP PUSH1 0x1 DUP1 SSTORE POP JUMP JUMPDEST PUSH1 0x1 PUSH1 0x1 PUSH1 0xA0 SHL SUB DUP4 AND PUSH1 0x0 SWAP1 DUP2 MSTORE PUSH1 0x6 PUSH1 0x20 MSTORE PUSH1 0x40 DUP2 KECCAK256 SLOAD PUSH1 0x60 SWAP2 DUP3 SWAP2 DUP5 SWAP1 PUSH2 0x194F SWAP1 DUP8 SWAP1 PUSH2 0x3578 JUMP JUMPDEST DUP2 GT ISZERO PUSH2 0x197D JUMPI PUSH1 0x1 PUSH1 0x1 PUSH1 0xA0 SHL SUB DUP8 AND PUSH1 0x0 SWAP1 DUP2 MSTORE PUSH1 0x6 PUSH1 0x20 MSTORE PUSH1 0x40 SWAP1 KECCAK256 SLOAD PUSH2 0x197A SWAP1 DUP8 SWAP1 PUSH2 0x3578 JUMP JUMPDEST SWAP1 POP JUMPDEST PUSH1 0x0 DUP2 PUSH8 0xFFFFFFFFFFFFFFFF DUP2 GT ISZERO PUSH2 0x1998 JUMPI PUSH2 0x1998 PUSH2 0x3471 JUMP JUMPDEST PUSH1 0x40 MLOAD SWAP1 DUP1 DUP3 MSTORE DUP1 PUSH1 0x20 MUL PUSH1 0x20 ADD DUP3 ADD PUSH1 0x40 MSTORE DUP1 ISZERO PUSH2 0x19C1 JUMPI DUP2 PUSH1 0x20 ADD PUSH1 0x20 DUP3 MUL DUP1 CALLDATASIZE DUP4 CALLDATACOPY ADD SWAP1 POP JUMPDEST POP SWAP1 POP PUSH1 0x0 DUP3 PUSH8 0xFFFFFFFFFFFFFFFF DUP2 GT ISZERO PUSH2 0x19DF JUMPI PUSH2 0x19DF PUSH2 0x3471 JUMP JUMPDEST PUSH1 0x40 MLOAD SWAP1 DUP1 DUP3 MSTORE DUP1 PUSH1 0x20 MUL PUSH1 0x20 ADD DUP3 ADD PUSH1 0x40 MSTORE DUP1 ISZERO PUSH2 0x1A45 JUMPI DUP2 PUSH1 0x20 ADD JUMPDEST PUSH2 0x1A32 PUSH1 0x40 DUP1 MLOAD PUSH1 0xA0 DUP2 ADD SWAP1 SWAP2 MSTORE DUP1 PUSH1 0x0 DUP2 MSTORE PUSH1 0x20 ADD PUSH1 0x0 DUP2 MSTORE PUSH1 0x20 ADD PUSH1 0x0 DUP2 MSTORE PUSH1 0x20 ADD PUSH1 0x0 DUP2 MSTORE PUSH1 0x20 ADD PUSH1 0x0 ISZERO ISZERO DUP2 MSTORE POP SWAP1 JUMP JUMPDEST DUP2 MSTORE PUSH1 0x20 ADD SWAP1 PUSH1 0x1 SWAP1 SUB SWAP1 DUP2 PUSH2 0x19FD JUMPI SWAP1 POP JUMPDEST POP SWAP1 POP PUSH1 0x0 JUMPDEST DUP4 DUP2 LT ISZERO PUSH2 0x1B8B JUMPI PUSH1 0x1 PUSH1 0x1 PUSH1 0xA0 SHL SUB DUP11 AND PUSH1 0x0 SWAP1 DUP2 MSTORE PUSH1 0x6 PUSH1 0x20 MSTORE PUSH1 0x40 SWAP1 KECCAK256 PUSH2 0x1A75 DUP3 DUP12 PUSH2 0x35DD JUMP JUMPDEST DUP2 SLOAD DUP2 LT PUSH2 0x1A85 JUMPI PUSH2 0x1A85 PUSH2 0x36F8 JUMP JUMPDEST SWAP1 PUSH1 0x0 MSTORE PUSH1 0x20 PUSH1 0x0 KECCAK256 ADD SLOAD DUP4 DUP3 DUP2 MLOAD DUP2 LT PUSH2 0x1AA2 JUMPI PUSH2 0x1AA2 PUSH2 0x36F8 JUMP JUMPDEST PUSH1 0x20 MUL PUSH1 0x20 ADD ADD DUP2 DUP2 MSTORE POP POP PUSH1 0x4 PUSH1 0x0 DUP5 DUP4 DUP2 MLOAD DUP2 LT PUSH2 0x1AC4 JUMPI PUSH2 0x1AC4 PUSH2 0x36F8 JUMP JUMPDEST PUSH1 0x20 SWAP1 DUP2 MUL SWAP2 SWAP1 SWAP2 ADD DUP2 ADD MLOAD DUP3 MSTORE DUP2 DUP2 ADD SWAP3 SWAP1 SWAP3 MSTORE PUSH1 0x40 SWAP1 DUP2 ADD PUSH1 0x0 SWAP1 DUP2 KECCAK256 PUSH1 0x1 PUSH1 0x1 PUSH1 0xA0 SHL SUB DUP15 AND DUP3 MSTORE SWAP1 SWAP3 MSTORE SWAP1 DUP2 SWAP1 KECCAK256 DUP2 MLOAD PUSH1 0xA0 DUP2 ADD SWAP1 SWAP3 MSTORE DUP1 SLOAD DUP3 SWAP1 PUSH1 0xFF AND PUSH1 0x1 DUP2 GT ISZERO PUSH2 0x1B17 JUMPI PUSH2 0x1B17 PUSH2 0x30E1 JUMP JUMPDEST PUSH1 0x1 DUP2 GT ISZERO PUSH2 0x1B28 JUMPI PUSH2 0x1B28 PUSH2 0x30E1 JUMP JUMPDEST DUP2 MSTORE PUSH1 0x1 DUP3 ADD SLOAD PUSH1 0x20 DUP3 ADD MSTORE PUSH1 0x2 DUP3 ADD SLOAD PUSH1 0x40 DUP3 ADD MSTORE PUSH1 0x3 DUP3 ADD SLOAD PUSH1 0x60 DUP3 ADD MSTORE PUSH1 0x4 SWAP1 SWAP2 ADD SLOAD PUSH1 0xFF AND ISZERO ISZERO PUSH1 0x80 SWAP1 SWAP2 ADD MSTORE DUP3 MLOAD DUP4 SWAP1 DUP4 SWAP1 DUP2 LT PUSH2 0x1B6D JUMPI PUSH2 0x1B6D PUSH2 0x36F8 JUMP JUMPDEST PUSH1 0x20 MUL PUSH1 0x20 ADD ADD DUP2 SWAP1 MSTORE POP DUP1 DUP1 PUSH2 0x1B83 SWAP1 PUSH2 0x358F JUMP JUMPDEST SWAP2 POP POP PUSH2 0x1A4B JUMP JUMPDEST POP DUP2 DUP2 PUSH2 0x1B98 DUP6 DUP12 PUSH2 0x35DD JUMP JUMPDEST SWAP6 POP SWAP6 POP SWAP6 POP POP POP POP SWAP4 POP SWAP4 POP SWAP4 SWAP1 POP JUMP JUMPDEST PUSH1 0x0 DUP3 DUP2 MSTORE PUSH1 0x4 PUSH1 0x20 SWAP1 DUP2 MSTORE PUSH1 0x40 DUP1 DUP4 KECCAK256 PUSH1 0x1 PUSH1 0x1 PUSH1 0xA0 SHL SUB DUP6 AND DUP5 MSTORE SWAP1 SWAP2 MSTORE DUP1 DUP3 KECCAK256 DUP2 MLOAD PUSH1 0xA0 DUP2 ADD SWAP1 SWAP3 MSTORE DUP1 SLOAD DUP4 SWAP3 SWAP2 SWAP1 DUP3 SWAP1 PUSH1 0xFF AND PUSH1 0x1 DUP2 GT ISZERO PUSH2 0x1BF2 JUMPI PUSH2 0x1BF2 PUSH2 0x30E1 JUMP JUMPDEST PUSH1 0x1 DUP2 GT ISZERO PUSH2 0x1C03 JUMPI PUSH2 0x1C03 PUSH2 0x30E1 JUMP JUMPDEST DUP2 MSTORE PUSH1 0x1 DUP3 DUP2 ADD SLOAD PUSH1 0x20 DUP1 DUP5 ADD SWAP2 SWAP1 SWAP2 MSTORE PUSH1 0x2 DUP1 DUP6 ADD SLOAD PUSH1 0x40 DUP1 DUP7 ADD SWAP2 SWAP1 SWAP2 MSTORE PUSH1 0x3 DUP1 DUP8 ADD SLOAD PUSH1 0x60 DUP1 DUP9 ADD SWAP2 SWAP1 SWAP2 MSTORE PUSH1 0x4 SWAP8 DUP9 ADD SLOAD PUSH1 0xFF SWAP1 DUP2 AND ISZERO ISZERO PUSH1 0x80 SWAP9 DUP10 ADD MSTORE PUSH1 0x0 DUP15 DUP2 MSTORE DUP4 DUP8 MSTORE DUP5 DUP2 KECCAK256 DUP6 MLOAD PUSH2 0x1A0 DUP2 ADD DUP8 MSTORE DUP2 SLOAD DUP2 MSTORE SWAP9 DUP2 ADD SLOAD DUP10 DUP10 ADD MSTORE SWAP6 DUP7 ADD SLOAD DUP9 DUP7 ADD MSTORE SWAP3 DUP6 ADD SLOAD SWAP2 DUP8 ADD SWAP2 SWAP1 SWAP2 MSTORE SWAP7 DUP4 ADD SLOAD SWAP6 DUP6 ADD SWAP6 SWAP1 SWAP6 MSTORE PUSH1 0x5 DUP3 ADD SLOAD PUSH1 0xA0 DUP6 ADD MSTORE PUSH1 0x6 DUP3 ADD SLOAD PUSH1 0xC0 DUP6 ADD MSTORE PUSH1 0x7 DUP3 ADD SLOAD PUSH4 0xFFFFFFFF DUP1 DUP3 AND PUSH1 0xE0 DUP8 ADD MSTORE PUSH1 0x1 PUSH1 0x20 SHL DUP3 DIV DUP2 AND PUSH2 0x100 DUP8 ADD MSTORE PUSH1 0x1 PUSH1 0x40 SHL DUP3 DIV AND PUSH2 0x120 DUP7 ADD MSTORE PUSH1 0x1 PUSH1 0x60 SHL DUP2 DIV DUP8 AND ISZERO ISZERO PUSH2 0x140 DUP7 ADD MSTORE PUSH1 0x1 PUSH1 0x68 SHL SWAP1 DIV SWAP1 SWAP6 AND ISZERO ISZERO PUSH2 0x160 DUP5 ADD MSTORE PUSH1 0x8 DUP2 ADD DUP1 SLOAD DUP7 MLOAD DUP2 DUP6 MUL DUP2 ADD DUP6 ADD SWAP1 SWAP8 MSTORE DUP1 DUP8 MSTORE SWAP7 SWAP8 POP SWAP4 SWAP6 SWAP3 SWAP5 SWAP1 SWAP4 PUSH2 0x180 DUP7 ADD SWAP4 SWAP2 SWAP3 SWAP1 SWAP2 SWAP1 DUP8 SWAP1 DUP5 ADD JUMPDEST DUP3 DUP3 LT ISZERO PUSH2 0x1DA5 JUMPI PUSH1 0x0 DUP5 DUP2 MSTORE PUSH1 0x20 SWAP1 DUP2 SWAP1 KECCAK256 PUSH1 0x40 DUP1 MLOAD PUSH1 0x80 DUP2 ADD SWAP1 SWAP2 MSTORE PUSH1 0x3 DUP6 MUL SWAP1 SWAP2 ADD DUP1 SLOAD PUSH1 0x1 PUSH1 0x1 PUSH1 0xA0 SHL SUB DUP2 AND DUP4 MSTORE SWAP2 SWAP3 SWAP1 SWAP2 SWAP1 DUP4 ADD SWAP1 PUSH1 0x1 PUSH1 0xA0 SHL SWAP1 DIV PUSH1 0xFF AND PUSH1 0x1 DUP2 GT ISZERO PUSH2 0x1D6D JUMPI PUSH2 0x1D6D PUSH2 0x30E1 JUMP JUMPDEST PUSH1 0x1 DUP2 GT ISZERO PUSH2 0x1D7E JUMPI PUSH2 0x1D7E PUSH2 0x30E1 JUMP JUMPDEST DUP2 MSTORE PUSH1 0x20 ADD PUSH1 0x1 DUP3 ADD SLOAD DUP2 MSTORE PUSH1 0x20 ADD PUSH1 0x2 DUP3 ADD SLOAD DUP2 MSTORE POP POP DUP2 MSTORE PUSH1 0x20 ADD SWAP1 PUSH1 0x1 ADD SWAP1 PUSH2 0x1D17 JUMP JUMPDEST POP POP POP POP DUP2 MSTORE POP POP SWAP1 POP DUP1 PUSH1 0xC0 ADD MLOAD DUP2 PUSH1 0xA0 ADD MLOAD SUB PUSH2 0x1DC9 JUMPI PUSH1 0x0 SWAP3 POP POP POP PUSH2 0x1348 JUMP JUMPDEST DUP1 PUSH2 0x140 ADD MLOAD DUP1 ISZERO PUSH2 0x1DDD JUMPI POP DUP2 PUSH1 0x80 ADD MLOAD ISZERO JUMPDEST DUP1 ISZERO PUSH2 0x1343 JUMPI POP DUP1 PUSH1 0xA0 ADD MLOAD DUP2 PUSH1 0xC0 ADD MLOAD SGT DUP1 ISZERO PUSH2 0x1E0D JUMPI POP PUSH1 0x0 DUP3 MLOAD PUSH1 0x1 DUP2 GT ISZERO PUSH2 0x1E0B JUMPI PUSH2 0x1E0B PUSH2 0x30E1 JUMP JUMPDEST EQ JUMPDEST DUP1 PUSH2 0x1343 JUMPI POP DUP1 PUSH1 0xA0 ADD MLOAD DUP2 PUSH1 0xC0 ADD MLOAD SLT DUP1 ISZERO PUSH2 0x1343 JUMPI POP PUSH1 0x1 DUP3 MLOAD PUSH1 0x1 DUP2 GT ISZERO PUSH2 0x1E3A JUMPI PUSH2 0x1E3A PUSH2 0x30E1 JUMP JUMPDEST EQ SWAP6 SWAP5 POP POP POP POP POP JUMP JUMPDEST PUSH1 0x0 DUP2 DUP2 MSTORE PUSH1 0x3 PUSH1 0x20 MSTORE PUSH1 0x40 DUP2 KECCAK256 PUSH1 0x7 ADD SLOAD PUSH4 0xFFFFFFFF AND ISZERO DUP1 ISZERO SWAP1 PUSH2 0x1E87 JUMPI POP PUSH1 0x0 DUP3 DUP2 MSTORE PUSH1 0x3 PUSH1 0x20 MSTORE PUSH1 0x40 SWAP1 KECCAK256 PUSH1 0x7 ADD SLOAD PUSH1 0x1 PUSH1 0x20 SHL SWAP1 DIV PUSH4 0xFFFFFFFF AND ISZERO ISZERO JUMPDEST DUP1 ISZERO PUSH2 0x1EA9 JUMPI POP PUSH1 0x0 DUP3 DUP2 MSTORE PUSH1 0x3 PUSH1 0x20 MSTORE PUSH1 0x40 SWAP1 KECCAK256 PUSH1 0x7 ADD SLOAD PUSH4 0xFFFFFFFF AND TIMESTAMP GT JUMPDEST DUP1 ISZERO PUSH2 0x1348 JUMPI POP POP PUSH1 0x0 SWAP1 DUP2 MSTORE PUSH1 0x3 PUSH1 0x20 MSTORE PUSH1 0x40 SWAP1 KECCAK256 PUSH1 0x7 ADD SLOAD PUSH1 0x1 PUSH1 0x20 SHL SWAP1 DIV PUSH4 0xFFFFFFFF AND TIMESTAMP LT SWAP1 JUMP JUMPDEST PUSH1 0x0 SLOAD PUSH1 0x1 PUSH1 0xA0 SHL SWAP1 DIV PUSH1 0xFF AND ISZERO PUSH2 0x1EFF JUMPI PUSH1 0x40 MLOAD PUSH3 0x461BCD PUSH1 0xE5 SHL DUP2 MSTORE PUSH1 0x4 ADD PUSH2 0x97F SWAP1 PUSH2 0x3538 JUMP JUMPDEST PUSH1 0x2 PUSH1 0x1 SLOAD SUB PUSH2 0x1F21 JUMPI PUSH1 0x40 MLOAD PUSH3 0x461BCD PUSH1 0xE5 SHL DUP2 MSTORE PUSH1 0x4 ADD PUSH2 0x97F SWAP1 PUSH2 0x36C1 JUMP JUMPDEST PUSH1 0x2 PUSH1 0x1 SSTORE CALLER EXTCODESIZE ISZERO PUSH2 0x1F45 JUMPI PUSH1 0x40 MLOAD PUSH3 0x461BCD PUSH1 0xE5 SHL DUP2 MSTORE PUSH1 0x4 ADD PUSH2 0x97F SWAP1 PUSH2 0x35F5 JUMP JUMPDEST CALLER ORIGIN EQ PUSH2 0x1F64 JUMPI PUSH1 0x40 MLOAD PUSH3 0x461BCD PUSH1 0xE5 SHL DUP2 MSTORE PUSH1 0x4 ADD PUSH2 0x97F SWAP1 PUSH2 0x3624 JUMP JUMPDEST PUSH1 0x7 SLOAD DUP2 EQ PUSH2 0x1FAD JUMPI PUSH1 0x40 MLOAD PUSH3 0x461BCD PUSH1 0xE5 SHL DUP2 MSTORE PUSH1 0x20 PUSH1 0x4 DUP3 ADD MSTORE PUSH1 0x15 PUSH1 0x24 DUP3 ADD MSTORE PUSH21 0x42657420697320746F6F206561726C792F6C617465 PUSH1 0x58 SHL PUSH1 0x44 DUP3 ADD MSTORE PUSH1 0x64 ADD PUSH2 0x97F JUMP JUMPDEST PUSH2 0x1FB6 DUP2 PUSH2 0x1E44 JUMP JUMPDEST PUSH2 0x1FD2 JUMPI PUSH1 0x40 MLOAD PUSH3 0x461BCD PUSH1 0xE5 SHL DUP2 MSTORE PUSH1 0x4 ADD PUSH2 0x97F SWAP1 PUSH2 0x365B JUMP JUMPDEST PUSH1 0xB SLOAD CALLVALUE LT ISZERO PUSH2 0x1FF4 JUMPI PUSH1 0x40 MLOAD PUSH3 0x461BCD PUSH1 0xE5 SHL DUP2 MSTORE PUSH1 0x4 ADD PUSH2 0x97F SWAP1 PUSH2 0x374F JUMP JUMPDEST PUSH1 0x0 DUP2 DUP2 MSTORE PUSH1 0x4 PUSH1 0x20 SWAP1 DUP2 MSTORE PUSH1 0x40 DUP1 DUP4 KECCAK256 CALLER DUP5 MSTORE SWAP1 SWAP2 MSTORE SWAP1 KECCAK256 PUSH1 0x3 ADD SLOAD ISZERO PUSH2 0x205E JUMPI PUSH1 0x40 MLOAD PUSH3 0x461BCD PUSH1 0xE5 SHL DUP2 MSTORE PUSH1 0x20 PUSH1 0x4 DUP3 ADD MSTORE PUSH1 0x1B PUSH1 0x24 DUP3 ADD MSTORE PUSH32 0x43616E206F6E6C7920626574206F6E63652070657220726F756E640000000000 PUSH1 0x44 DUP3 ADD MSTORE PUSH1 0x64 ADD PUSH2 0x97F JUMP JUMPDEST PUSH1 0x0 DUP2 DUP2 MSTORE PUSH1 0x3 PUSH1 0x20 MSTORE PUSH1 0x40 SWAP1 KECCAK256 PUSH1 0x1 DUP2 ADD SLOAD CALLVALUE SWAP2 SWAP1 PUSH2 0x207F SWAP1 DUP4 SWAP1 PUSH2 0x35DD JUMP JUMPDEST PUSH1 0x1 DUP3 DUP2 ADD SWAP2 SWAP1 SWAP2 SSTORE PUSH1 0x0 DUP5 DUP2 MSTORE PUSH1 0x4 PUSH1 0x20 SWAP1 DUP2 MSTORE PUSH1 0x40 DUP1 DUP4 KECCAK256 CALLER DUP5 MSTORE DUP3 MSTORE DUP1 DUP4 KECCAK256 DUP1 SLOAD PUSH1 0xFF NOT AND DUP2 SSTORE PUSH1 0x3 DUP2 ADD DUP8 SWAP1 SSTORE TIMESTAMP DUP2 DUP7 ADD SSTORE PUSH1 0x5 SWAP1 SWAP3 MSTORE DUP3 KECCAK256 SWAP3 DUP4 ADD DUP7 SWAP1 SSTORE PUSH1 0x2 SWAP3 SWAP1 SWAP3 ADD DUP1 SLOAD SWAP2 PUSH2 0x20D4 DUP4 PUSH2 0x358F JUMP JUMPDEST SWAP1 SWAP2 SSTORE POP POP CALLER PUSH1 0x0 SWAP1 DUP2 MSTORE PUSH1 0x5 PUSH1 0x20 MSTORE PUSH1 0x40 DUP2 KECCAK256 PUSH1 0x3 ADD DUP1 SLOAD DUP6 SWAP3 SWAP1 PUSH2 0x20FB SWAP1 DUP5 SWAP1 PUSH2 0x35DD JUMP JUMPDEST SWAP1 SWAP2 SSTORE POP POP CALLER PUSH1 0x0 DUP2 DUP2 MSTORE PUSH1 0x6 PUSH1 0x20 SWAP1 DUP2 MSTORE PUSH1 0x40 DUP1 DUP4 KECCAK256 DUP1 SLOAD PUSH1 0x1 DUP1 DUP3 ADD DUP4 SSTORE SWAP2 DUP6 MSTORE DUP4 DUP6 KECCAK256 ADD DUP10 SWAP1 SSTORE DUP2 MLOAD PUSH1 0x80 DUP2 ADD DUP4 MSTORE DUP1 DUP5 ADD DUP6 DUP2 MSTORE SWAP6 DUP2 MSTORE SWAP2 DUP3 ADD DUP9 SWAP1 MSTORE TIMESTAMP PUSH1 0x60 DUP4 ADD MSTORE PUSH1 0x8 DUP8 ADD DUP1 SLOAD DUP1 DUP4 ADD DUP3 SSTORE SWAP1 DUP6 MSTORE SWAP3 SWAP1 SWAP4 KECCAK256 DUP2 MLOAD PUSH1 0x3 SWAP1 SWAP4 MUL ADD DUP1 SLOAD PUSH1 0x1 PUSH1 0x1 PUSH1 0xA0 SHL SUB NOT DUP2 AND PUSH1 0x1 PUSH1 0x1 PUSH1 0xA0 SHL SUB SWAP1 SWAP5 AND SWAP4 DUP5 OR DUP3 SSTORE SWAP5 MLOAD SWAP2 SWAP5 DUP6 SWAP5 SWAP2 SWAP4 DUP5 SWAP3 PUSH1 0x1 PUSH1 0x1 PUSH1 0xA8 SHL SUB NOT SWAP1 SWAP3 AND OR SWAP1 PUSH1 0x1 PUSH1 0xA0 SHL SWAP1 DUP5 SWAP1 DUP2 GT ISZERO PUSH2 0x21A8 JUMPI PUSH2 0x21A8 PUSH2 0x30E1 JUMP JUMPDEST MUL OR SWAP1 SSTORE POP PUSH1 0x40 DUP3 ADD MLOAD PUSH1 0x1 DUP3 ADD SSTORE PUSH1 0x60 SWAP1 SWAP2 ADD MLOAD PUSH1 0x2 SWAP1 SWAP2 ADD SSTORE PUSH1 0xD DUP1 SLOAD SWAP1 PUSH1 0x0 PUSH2 0x21D3 DUP4 PUSH2 0x358F JUMP JUMPDEST SWAP2 SWAP1 POP SSTORE POP DUP4 PUSH1 0xE PUSH1 0x0 DUP3 DUP3 SLOAD PUSH2 0x21EA SWAP2 SWAP1 PUSH2 0x35DD JUMP JUMPDEST SWAP1 SWAP2 SSTORE POP POP PUSH1 0x7 SLOAD PUSH1 0x40 MLOAD DUP6 DUP2 MSTORE CALLER SWAP1 PUSH32 0x49237630B34A73A6A12F9D3D4A305DDD6E3A359CC147FFB7A5F18C08F736BC25 SWAP1 PUSH1 0x20 ADD JUMPDEST PUSH1 0x40 MLOAD DUP1 SWAP2 SUB SWAP1 LOG3 POP POP PUSH1 0x1 DUP1 SSTORE POP POP POP JUMP JUMPDEST PUSH1 0x0 DUP2 DUP2 MSTORE PUSH1 0x3 PUSH1 0x20 DUP2 SWAP1 MSTORE PUSH1 0x40 SWAP1 SWAP2 KECCAK256 ADD SLOAD ISZERO DUP1 ISZERO PUSH2 0x2262 JUMPI POP PUSH1 0x0 DUP2 DUP2 MSTORE PUSH1 0x3 PUSH1 0x20 MSTORE PUSH1 0x40 SWAP1 KECCAK256 PUSH1 0x4 ADD SLOAD ISZERO JUMPDEST PUSH2 0x22AE JUMPI PUSH1 0x40 MLOAD PUSH3 0x461BCD PUSH1 0xE5 SHL DUP2 MSTORE PUSH1 0x20 PUSH1 0x4 DUP3 ADD MSTORE PUSH1 0x1A PUSH1 0x24 DUP3 ADD MSTORE PUSH32 0x526577617264732063616C63756C6174656420616C7265616479000000000000 PUSH1 0x44 DUP3 ADD MSTORE PUSH1 0x64 ADD PUSH2 0x97F JUMP JUMPDEST PUSH1 0x0 DUP2 DUP2 MSTORE PUSH1 0x3 PUSH1 0x20 MSTORE PUSH1 0x40 DUP2 KECCAK256 PUSH1 0x2 DUP2 ADD SLOAD PUSH1 0x1 DUP3 ADD SLOAD SWAP2 SWAP3 SWAP2 DUP3 SWAP2 DUP3 SWAP2 PUSH2 0x22D7 SWAP2 SWAP1 PUSH2 0x35DD JUMP JUMPDEST SWAP1 POP DUP4 PUSH1 0x5 ADD SLOAD DUP5 PUSH1 0x6 ADD SLOAD SGT ISZERO PUSH2 0x2311 JUMPI DUP4 PUSH1 0x1 ADD SLOAD SWAP3 POP PUSH1 0x64 PUSH1 0x9 SLOAD DUP3 PUSH2 0x2300 SWAP2 SWAP1 PUSH2 0x370E JUMP JUMPDEST PUSH2 0x230A SWAP2 SWAP1 PUSH2 0x372D JUMP JUMPDEST SWAP2 POP PUSH2 0x2345 JUMP JUMPDEST DUP4 PUSH1 0x5 ADD SLOAD DUP5 PUSH1 0x6 ADD SLOAD SLT ISZERO PUSH2 0x2345 JUMPI DUP4 PUSH1 0x2 ADD SLOAD SWAP3 POP PUSH1 0x64 PUSH1 0x9 SLOAD DUP3 PUSH2 0x2338 SWAP2 SWAP1 PUSH2 0x370E JUMP JUMPDEST PUSH2 0x2342 SWAP2 SWAP1 PUSH2 0x372D JUMP JUMPDEST SWAP2 POP JUMPDEST POP PUSH1 0x3 DUP4 ADD SWAP2 SWAP1 SWAP2 SSTORE PUSH1 0x4 SWAP1 SWAP2 ADD SSTORE POP JUMP JUMPDEST PUSH1 0x0 SLOAD PUSH1 0x1 PUSH1 0xA0 SHL SWAP1 DIV PUSH1 0xFF AND ISZERO PUSH2 0x2381 JUMPI PUSH1 0x40 MLOAD PUSH3 0x461BCD PUSH1 0xE5 SHL DUP2 MSTORE PUSH1 0x4 ADD PUSH2 0x97F SWAP1 PUSH2 0x3538 JUMP JUMPDEST PUSH1 0x2 PUSH1 0x1 SLOAD SUB PUSH2 0x23A3 JUMPI PUSH1 0x40 MLOAD PUSH3 0x461BCD PUSH1 0xE5 SHL DUP2 MSTORE PUSH1 0x4 ADD PUSH2 0x97F SWAP1 PUSH2 0x36C1 JUMP JUMPDEST PUSH1 0x2 PUSH1 0x1 SSTORE CALLER EXTCODESIZE ISZERO PUSH2 0x23C7 JUMPI PUSH1 0x40 MLOAD PUSH3 0x461BCD PUSH1 0xE5 SHL DUP2 MSTORE PUSH1 0x4 ADD PUSH2 0x97F SWAP1 PUSH2 0x35F5 JUMP JUMPDEST CALLER ORIGIN EQ PUSH2 0x23E6 JUMPI PUSH1 0x40 MLOAD PUSH3 0x461BCD PUSH1 0xE5 SHL DUP2 MSTORE PUSH1 0x4 ADD PUSH2 0x97F SWAP1 PUSH2 0x3624 JUMP JUMPDEST PUSH1 0x7 SLOAD DUP2 EQ PUSH2 0x242F JUMPI PUSH1 0x40 MLOAD PUSH3 0x461BCD PUSH1 0xE5 SHL DUP2 MSTORE PUSH1 0x20 PUSH1 0x4 DUP3 ADD MSTORE PUSH1 0x15 PUSH1 0x24 DUP3 ADD MSTORE PUSH21 0x42657420697320746F6F206561726C792F6C617465 PUSH1 0x58 SHL PUSH1 0x44 DUP3 ADD MSTORE PUSH1 0x64 ADD PUSH2 0x97F JUMP JUMPDEST PUSH2 0x2438 DUP2 PUSH2 0x1E44 JUMP JUMPDEST PUSH2 0x2454 JUMPI PUSH1 0x40 MLOAD PUSH3 0x461BCD PUSH1 0xE5 SHL DUP2 MSTORE PUSH1 0x4 ADD PUSH2 0x97F SWAP1 PUSH2 0x365B JUMP JUMPDEST PUSH1 0xB SLOAD CALLVALUE LT ISZERO PUSH2 0x2476 JUMPI PUSH1 0x40 MLOAD PUSH3 0x461BCD PUSH1 0xE5 SHL DUP2 MSTORE PUSH1 0x4 ADD PUSH2 0x97F SWAP1 PUSH2 0x374F JUMP JUMPDEST PUSH1 0x0 DUP2 DUP2 MSTORE PUSH1 0x4 PUSH1 0x20 SWAP1 DUP2 MSTORE PUSH1 0x40 DUP1 DUP4 KECCAK256 CALLER DUP5 MSTORE SWAP1 SWAP2 MSTORE SWAP1 KECCAK256 PUSH1 0x3 ADD SLOAD ISZERO PUSH2 0x24E0 JUMPI PUSH1 0x40 MLOAD PUSH3 0x461BCD PUSH1 0xE5 SHL DUP2 MSTORE PUSH1 0x20 PUSH1 0x4 DUP3 ADD MSTORE PUSH1 0x1B PUSH1 0x24 DUP3 ADD MSTORE PUSH32 0x43616E206F6E6C7920626574206F6E63652070657220726F756E640000000000 PUSH1 0x44 DUP3 ADD MSTORE PUSH1 0x64 ADD PUSH2 0x97F JUMP JUMPDEST PUSH1 0x0 DUP2 DUP2 MSTORE PUSH1 0x3 PUSH1 0x20 MSTORE PUSH1 0x40 SWAP1 KECCAK256 PUSH1 0x2 DUP2 ADD SLOAD CALLVALUE SWAP2 SWAP1 PUSH2 0x2501 SWAP1 DUP4 SWAP1 PUSH2 0x35DD JUMP JUMPDEST PUSH1 0x2 DUP3 ADD SSTORE PUSH1 0x0 DUP4 DUP2 MSTORE PUSH1 0x4 PUSH1 0x20 DUP2 DUP2 MSTORE PUSH1 0x40 DUP1 DUP5 KECCAK256 CALLER DUP6 MSTORE DUP3 MSTORE DUP1 DUP5 KECCAK256 DUP1 SLOAD PUSH1 0xFF NOT AND PUSH1 0x1 SWAP1 DUP2 OR DUP3 SSTORE PUSH1 0x3 DUP3 ADD DUP9 SWAP1 SSTORE TIMESTAMP DUP2 DUP4 ADD SSTORE PUSH1 0x5 SWAP1 SWAP4 MSTORE SWAP1 DUP5 KECCAK256 SWAP2 DUP3 ADD DUP8 SWAP1 SSTORE SWAP2 ADD DUP1 SLOAD SWAP2 SWAP3 PUSH2 0x2555 DUP4 PUSH2 0x358F JUMP JUMPDEST SWAP1 SWAP2 SSTORE POP POP CALLER PUSH1 0x0 SWAP1 DUP2 MSTORE PUSH1 0x5 PUSH1 0x20 DUP2 SWAP1 MSTORE PUSH1 0x40 DUP3 KECCAK256 ADD DUP1 SLOAD DUP6 SWAP3 SWAP1 PUSH2 0x257C SWAP1 DUP5 SWAP1 PUSH2 0x35DD JUMP JUMPDEST SWAP1 SWAP2 SSTORE POP POP CALLER PUSH1 0x0 DUP2 DUP2 MSTORE PUSH1 0x6 PUSH1 0x20 SWAP1 DUP2 MSTORE PUSH1 0x40 DUP1 DUP4 KECCAK256 DUP1 SLOAD PUSH1 0x1 DUP1 DUP3 ADD DUP4 SSTORE SWAP2 DUP6 MSTORE DUP4 DUP6 KECCAK256 ADD DUP10 SWAP1 SSTORE DUP2 MLOAD PUSH1 0x80 DUP2 ADD DUP4 MSTORE SWAP5 DUP6 MSTORE DUP5 DUP4 ADD DUP2 DUP2 MSTORE SWAP2 DUP6 ADD DUP9 SWAP1 MSTORE TIMESTAMP PUSH1 0x60 DUP7 ADD MSTORE PUSH1 0x8 DUP8 ADD DUP1 SLOAD DUP1 DUP4 ADD DUP3 SSTORE SWAP1 DUP6 MSTORE SWAP3 SWAP1 SWAP4 KECCAK256 DUP5 MLOAD PUSH1 0x3 SWAP1 SWAP4 MUL ADD DUP1 SLOAD PUSH1 0x1 PUSH1 0x1 PUSH1 0xA0 SHL SUB SWAP1 SWAP4 AND PUSH1 0x1 PUSH1 0x1 PUSH1 0xA0 SHL SUB NOT DUP5 AND DUP2 OR DUP3 SSTORE SWAP2 MLOAD DUP6 SWAP5 SWAP2 SWAP4 SWAP1 SWAP3 DUP5 SWAP3 PUSH1 0x1 PUSH1 0x1 PUSH1 0xA8 SHL SUB NOT SWAP1 SWAP3 AND OR SWAP1 PUSH1 0x1 PUSH1 0xA0 SHL SWAP1 DUP5 SWAP1 DUP2 GT ISZERO PUSH2 0x2628 JUMPI PUSH2 0x2628 PUSH2 0x30E1 JUMP JUMPDEST MUL OR SWAP1 SSTORE POP PUSH1 0x40 DUP3 ADD MLOAD PUSH1 0x1 DUP3 ADD SSTORE PUSH1 0x60 SWAP1 SWAP2 ADD MLOAD PUSH1 0x2 SWAP1 SWAP2 ADD SSTORE PUSH1 0xF DUP1 SLOAD SWAP1 PUSH1 0x0 PUSH2 0x2653 DUP4 PUSH2 0x358F JUMP JUMPDEST SWAP2 SWAP1 POP SSTORE POP DUP4 PUSH1 0x10 PUSH1 0x0 DUP3 DUP3 SLOAD PUSH2 0x266A SWAP2 SWAP1 PUSH2 0x35DD JUMP JUMPDEST SWAP1 SWAP2 SSTORE POP POP PUSH1 0x40 MLOAD DUP5 DUP2 MSTORE DUP6 SWAP1 CALLER SWAP1 PUSH32 0x93349B5CB1CDD80EA47C8A040B8C0E31E219E0665C1EB33D9A7B2D3FAD11E224 SWAP1 PUSH1 0x20 ADD PUSH2 0x2220 JUMP JUMPDEST PUSH1 0x6 PUSH1 0x20 MSTORE DUP2 PUSH1 0x0 MSTORE PUSH1 0x40 PUSH1 0x0 KECCAK256 DUP2 DUP2 SLOAD DUP2 LT PUSH2 0x26BF JUMPI PUSH1 0x0 DUP1 REVERT JUMPDEST SWAP1 PUSH1 0x0 MSTORE PUSH1 0x20 PUSH1 0x0 KECCAK256 ADD PUSH1 0x0 SWAP2 POP SWAP2 POP POP SLOAD DUP2 JUMP JUMPDEST PUSH1 0x0 SLOAD PUSH1 0x1 PUSH1 0x1 PUSH1 0xA0 SHL SUB AND CALLER EQ PUSH2 0x26FE JUMPI PUSH1 0x40 MLOAD PUSH3 0x461BCD PUSH1 0xE5 SHL DUP2 MSTORE PUSH1 0x4 ADD PUSH2 0x97F SWAP1 PUSH2 0x35A8 JUMP JUMPDEST PUSH1 0x1 PUSH1 0x1 PUSH1 0xA0 SHL SUB DUP2 AND PUSH2 0x2763 JUMPI PUSH1 0x40 MLOAD PUSH3 0x461BCD PUSH1 0xE5 SHL DUP2 MSTORE PUSH1 0x20 PUSH1 0x4 DUP3 ADD MSTORE PUSH1 0x26 PUSH1 0x24 DUP3 ADD MSTORE PUSH32 0x4F776E61626C653A206E6577206F776E657220697320746865207A65726F2061 PUSH1 0x44 DUP3 ADD MSTORE PUSH6 0x646472657373 PUSH1 0xD0 SHL PUSH1 0x64 DUP3 ADD MSTORE PUSH1 0x84 ADD PUSH2 0x97F JUMP JUMPDEST PUSH1 0x0 DUP1 SLOAD PUSH1 0x40 MLOAD PUSH1 0x1 PUSH1 0x1 PUSH1 0xA0 SHL SUB DUP1 DUP6 AND SWAP4 SWAP3 AND SWAP2 PUSH32 0x8BE0079C531659141344CD1FD0A4F28419497F9722A3DAAFE3B4186F6B6457E0 SWAP2 LOG3 PUSH1 0x0 DUP1 SLOAD PUSH1 0x1 PUSH1 0x1 PUSH1 0xA0 SHL SUB NOT AND PUSH1 0x1 PUSH1 0x1 PUSH1 0xA0 SHL SUB SWAP3 SWAP1 SWAP3 AND SWAP2 SWAP1 SWAP2 OR SWAP1 SSTORE JUMP JUMPDEST PUSH1 0x60 PUSH1 0x2 DUP1 SLOAD DUP1 PUSH1 0x20 MUL PUSH1 0x20 ADD PUSH1 0x40 MLOAD SWAP1 DUP2 ADD PUSH1 0x40 MSTORE DUP1 SWAP3 SWAP2 SWAP1 DUP2 DUP2 MSTORE PUSH1 0x20 ADD PUSH1 0x0 SWAP1 JUMPDEST DUP3 DUP3 LT ISZERO PUSH2 0x2961 JUMPI PUSH1 0x0 DUP5 DUP2 MSTORE PUSH1 0x20 DUP1 DUP3 KECCAK256 PUSH1 0x40 DUP1 MLOAD PUSH2 0x1A0 DUP2 ADD DUP3 MSTORE PUSH1 0x9 DUP8 MUL SWAP1 SWAP3 ADD DUP1 SLOAD DUP4 MSTORE PUSH1 0x1 DUP2 ADD SLOAD DUP4 DUP6 ADD MSTORE PUSH1 0x2 DUP2 ADD SLOAD DUP4 DUP4 ADD MSTORE PUSH1 0x3 DUP2 ADD SLOAD PUSH1 0x60 DUP5 ADD MSTORE PUSH1 0x4 DUP2 ADD SLOAD PUSH1 0x80 DUP5 ADD MSTORE PUSH1 0x5 DUP2 ADD SLOAD PUSH1 0xA0 DUP5 ADD MSTORE PUSH1 0x6 DUP2 ADD SLOAD PUSH1 0xC0 DUP5 ADD MSTORE PUSH1 0x7 DUP2 ADD SLOAD PUSH4 0xFFFFFFFF DUP1 DUP3 AND PUSH1 0xE0 DUP7 ADD MSTORE PUSH1 0x1 PUSH1 0x20 SHL DUP3 DIV DUP2 AND PUSH2 0x100 DUP7 ADD MSTORE PUSH1 0x1 PUSH1 0x40 SHL DUP3 DIV AND PUSH2 0x120 DUP6 ADD MSTORE PUSH1 0xFF PUSH1 0x1 PUSH1 0x60 SHL DUP3 DIV DUP2 AND ISZERO ISZERO PUSH2 0x140 DUP7 ADD MSTORE PUSH1 0x1 PUSH1 0x68 SHL SWAP1 SWAP2 DIV AND ISZERO ISZERO PUSH2 0x160 DUP5 ADD MSTORE PUSH1 0x8 DUP2 ADD DUP1 SLOAD DUP4 MLOAD DUP2 DUP8 MUL DUP2 ADD DUP8 ADD SWAP1 SWAP5 MSTORE DUP1 DUP5 MSTORE SWAP4 SWAP6 SWAP2 SWAP5 PUSH2 0x180 DUP8 ADD SWAP5 SWAP2 SWAP3 SWAP1 DUP5 ADD JUMPDEST DUP3 DUP3 LT ISZERO PUSH2 0x294A JUMPI PUSH1 0x0 DUP5 DUP2 MSTORE PUSH1 0x20 SWAP1 DUP2 SWAP1 KECCAK256 PUSH1 0x40 DUP1 MLOAD PUSH1 0x80 DUP2 ADD SWAP1 SWAP2 MSTORE PUSH1 0x3 DUP6 MUL SWAP1 SWAP2 ADD DUP1 SLOAD PUSH1 0x1 PUSH1 0x1 PUSH1 0xA0 SHL SUB DUP2 AND DUP4 MSTORE SWAP2 SWAP3 SWAP1 SWAP2 SWAP1 DUP4 ADD SWAP1 PUSH1 0x1 PUSH1 0xA0 SHL SWAP1 DIV PUSH1 0xFF AND PUSH1 0x1 DUP2 GT ISZERO PUSH2 0x2912 JUMPI PUSH2 0x2912 PUSH2 0x30E1 JUMP JUMPDEST PUSH1 0x1 DUP2 GT ISZERO PUSH2 0x2923 JUMPI PUSH2 0x2923 PUSH2 0x30E1 JUMP JUMPDEST DUP2 MSTORE PUSH1 0x20 ADD PUSH1 0x1 DUP3 ADD SLOAD DUP2 MSTORE PUSH1 0x20 ADD PUSH1 0x2 DUP3 ADD SLOAD DUP2 MSTORE POP POP DUP2 MSTORE PUSH1 0x20 ADD SWAP1 PUSH1 0x1 ADD SWAP1 PUSH2 0x28BC JUMP JUMPDEST POP POP POP POP DUP2 MSTORE POP POP DUP2 MSTORE PUSH1 0x20 ADD SWAP1 PUSH1 0x1 ADD SWAP1 PUSH2 0x27E2 JUMP JUMPDEST POP POP POP POP SWAP1 POP SWAP1 JUMP JUMPDEST PUSH1 0x0 SLOAD PUSH1 0x1 PUSH1 0x1 PUSH1 0xA0 SHL SUB AND CALLER EQ PUSH2 0x2994 JUMPI PUSH1 0x40 MLOAD PUSH3 0x461BCD PUSH1 0xE5 SHL DUP2 MSTORE PUSH1 0x4 ADD PUSH2 0x97F SWAP1 PUSH2 0x35A8 JUMP JUMPDEST PUSH1 0x0 DUP2 MLOAD GT PUSH2 0x29E5 JUMPI PUSH1 0x40 MLOAD PUSH3 0x461BCD PUSH1 0xE5 SHL DUP2 MSTORE PUSH1 0x20 PUSH1 0x4 DUP3 ADD MSTORE PUSH1 0x1D PUSH1 0x24 DUP3 ADD MSTORE PUSH32 0x507269636520736F757263652063616E206E6F7420626520656D707479000000 PUSH1 0x44 DUP3 ADD MSTORE PUSH1 0x64 ADD PUSH2 0x97F JUMP JUMPDEST PUSH1 0x8 PUSH2 0x29F1 DUP3 DUP3 PUSH2 0x37EB JUMP JUMPDEST POP POP JUMP JUMPDEST PUSH1 0x0 SLOAD PUSH1 0x1 PUSH1 0x1 PUSH1 0xA0 SHL SUB AND CALLER EQ PUSH2 0x2A1F JUMPI PUSH1 0x40 MLOAD PUSH3 0x461BCD PUSH1 0xE5 SHL DUP2 MSTORE PUSH1 0x4 ADD PUSH2 0x97F SWAP1 PUSH2 0x35A8 JUMP JUMPDEST PUSH1 0x0 DUP1 SLOAD PUSH1 0x40 MLOAD PUSH1 0x1 PUSH1 0x1 PUSH1 0xA0 SHL SUB SWAP1 SWAP2 AND SWAP1 PUSH32 0x8BE0079C531659141344CD1FD0A4F28419497F9722A3DAAFE3B4186F6B6457E0 SWAP1 DUP4 SWAP1 LOG3 PUSH1 0x0 DUP1 SLOAD PUSH1 0x1 PUSH1 0x1 PUSH1 0xA0 SHL SUB NOT AND SWAP1 SSTORE JUMP JUMPDEST PUSH1 0x0 DUP3 DUP2 MSTORE PUSH1 0x3 PUSH1 0x20 MSTORE PUSH1 0x40 DUP2 KECCAK256 PUSH1 0x7 ADD SLOAD PUSH4 0xFFFFFFFF AND SWAP1 SUB PUSH2 0x2AE3 JUMPI PUSH1 0x40 MLOAD PUSH3 0x461BCD PUSH1 0xE5 SHL DUP2 MSTORE PUSH1 0x20 PUSH1 0x4 DUP3 ADD MSTORE PUSH1 0x2B PUSH1 0x24 DUP3 ADD MSTORE PUSH32 0x43616E206F6E6C79206C6F636B20726F756E6420616674657220726F756E6420 PUSH1 0x44 DUP3 ADD MSTORE PUSH11 0x1A185CC81CDD185C9D1959 PUSH1 0xAA SHL PUSH1 0x64 DUP3 ADD MSTORE PUSH1 0x84 ADD PUSH2 0x97F JUMP JUMPDEST PUSH1 0x0 DUP3 DUP2 MSTORE PUSH1 0x3 PUSH1 0x20 MSTORE PUSH1 0x40 SWAP1 KECCAK256 PUSH1 0x7 ADD SLOAD PUSH1 0x1 PUSH1 0x20 SHL SWAP1 DIV PUSH4 0xFFFFFFFF AND TIMESTAMP LT ISZERO PUSH2 0x2B62 JUMPI PUSH1 0x40 MLOAD PUSH3 0x461BCD PUSH1 0xE5 SHL DUP2 MSTORE PUSH1 0x20 PUSH1 0x4 DUP3 ADD MSTORE PUSH1 0x28 PUSH1 0x24 DUP3 ADD MSTORE PUSH32 0x43616E206F6E6C79206C6F636B20726F756E64206166746572206C6F636B2074 PUSH1 0x44 DUP3 ADD MSTORE PUSH8 0x696D657374616D7 PUSH1 0xC4 SHL PUSH1 0x64 DUP3 ADD MSTORE PUSH1 0x84 ADD PUSH2 0x97F JUMP JUMPDEST PUSH1 0x0 DUP3 DUP2 MSTORE PUSH1 0x3 PUSH1 0x20 MSTORE PUSH1 0x40 SWAP1 KECCAK256 PUSH1 0x7 ADD SLOAD PUSH1 0x1 PUSH1 0x40 SHL SWAP1 DIV PUSH4 0xFFFFFFFF AND TIMESTAMP GT ISZERO PUSH2 0x2BDB JUMPI PUSH1 0x40 MLOAD PUSH3 0x461BCD PUSH1 0xE5 SHL DUP2 MSTORE PUSH1 0x20 PUSH1 0x4 DUP3 ADD MSTORE PUSH1 0x22 PUSH1 0x24 DUP3 ADD MSTORE PUSH32 0x43616E206F6E6C79206C6F636B206265666F726520656E642074696D65737461 PUSH1 0x44 DUP3 ADD MSTORE PUSH2 0x6D7 PUSH1 0xF4 SHL PUSH1 0x64 DUP3 ADD MSTORE PUSH1 0x84 ADD PUSH2 0x97F JUMP JUMPDEST PUSH1 0x0 DUP3 DUP2 MSTORE PUSH1 0x3 PUSH1 0x20 SWAP1 DUP2 MSTORE PUSH1 0x40 SWAP2 DUP3 SWAP1 KECCAK256 PUSH1 0x5 DUP2 ADD DUP5 SWAP1 SSTORE SWAP2 MLOAD DUP4 DUP2 MSTORE DUP5 SWAP2 PUSH32 0xED3D5364266A40B08BE3572A189B162355BEFF1B143E03774E5CD7C94F224035 SWAP2 ADD JUMPDEST PUSH1 0x40 MLOAD DUP1 SWAP2 SUB SWAP1 LOG2 POP POP POP JUMP JUMPDEST PUSH1 0x0 DUP3 DUP2 MSTORE PUSH1 0x3 PUSH1 0x20 MSTORE PUSH1 0x40 DUP2 KECCAK256 PUSH1 0x7 ADD SLOAD PUSH1 0x1 PUSH1 0x20 SHL SWAP1 DIV PUSH4 0xFFFFFFFF AND SWAP1 SUB PUSH2 0x2CAB JUMPI PUSH1 0x40 MLOAD PUSH3 0x461BCD PUSH1 0xE5 SHL DUP2 MSTORE PUSH1 0x20 PUSH1 0x4 DUP3 ADD MSTORE PUSH1 0x29 PUSH1 0x24 DUP3 ADD MSTORE PUSH32 0x43616E206F6E6C7920656E6420726F756E6420616674657220726F756E642068 PUSH1 0x44 DUP3 ADD MSTORE PUSH9 0x185CC81B1BD8DAD959 PUSH1 0xBA SHL PUSH1 0x64 DUP3 ADD MSTORE PUSH1 0x84 ADD PUSH2 0x97F JUMP JUMPDEST PUSH1 0x0 DUP3 DUP2 MSTORE PUSH1 0x3 PUSH1 0x20 MSTORE PUSH1 0x40 SWAP1 KECCAK256 PUSH1 0x7 ADD SLOAD PUSH1 0x1 PUSH1 0x40 SHL SWAP1 DIV PUSH4 0xFFFFFFFF AND TIMESTAMP LT ISZERO PUSH2 0x2D2A JUMPI PUSH1 0x40 MLOAD PUSH3 0x461BCD PUSH1 0xE5 SHL DUP2 MSTORE PUSH1 0x20 PUSH1 0x4 DUP3 ADD MSTORE PUSH1 0x28 PUSH1 0x24 DUP3 ADD MSTORE PUSH32 0x43616E206F6E6C7920656E6420726F756E6420616674657220636C6F73652074 PUSH1 0x44 DUP3 ADD MSTORE PUSH8 0x696D657374616D7 PUSH1 0xC4 SHL PUSH1 0x64 DUP3 ADD MSTORE PUSH1 0x84 ADD PUSH2 0x97F JUMP JUMPDEST PUSH1 0x0 DUP3 DUP2 MSTORE PUSH1 0x3 PUSH1 0x20 MSTORE PUSH1 0x40 SWAP1 DUP2 SWAP1 KECCAK256 PUSH1 0x6 DUP2 ADD DUP4 SWAP1 SSTORE PUSH1 0x7 DUP2 ADD DUP1 SLOAD PUSH1 0xFF PUSH1 0x60 SHL NOT AND PUSH1 0x1 PUSH1 0x60 SHL OR SWAP1 SSTORE SWAP1 MLOAD DUP4 SWAP1 PUSH32 0xDCE8257390BDFA785E27C9715109E4B503B3006D9F4EA2D1F689E77E8A41713E SWAP1 PUSH2 0x2C1F SWAP1 DUP6 DUP2 MSTORE PUSH1 0x20 ADD SWAP1 JUMP JUMPDEST PUSH1 0x0 DUP2 DUP2 MSTORE PUSH1 0x3 PUSH1 0x20 MSTORE PUSH1 0x40 SWAP1 KECCAK256 PUSH1 0x7 DUP2 ADD DUP1 SLOAD PUSH4 0xFFFFFFFF NOT AND TIMESTAMP PUSH4 0xFFFFFFFF DUP2 AND SWAP2 SWAP1 SWAP2 OR SWAP1 SWAP2 SSTORE PUSH1 0xA SLOAD PUSH2 0x2DBF SWAP2 PUSH2 0x35DD JUMP JUMPDEST PUSH1 0x7 DUP3 ADD DUP1 SLOAD PUSH4 0xFFFFFFFF SWAP3 SWAP1 SWAP3 AND PUSH1 0x1 PUSH1 0x20 SHL MUL PUSH8 0xFFFFFFFF00000000 NOT SWAP1 SWAP3 AND SWAP2 SWAP1 SWAP2 OR SWAP1 SSTORE PUSH1 0xA SLOAD PUSH2 0x2DF5 SWAP1 PUSH1 0x2 PUSH2 0x370E JUMP JUMPDEST PUSH2 0x2DFF SWAP1 TIMESTAMP PUSH2 0x35DD JUMP JUMPDEST PUSH1 0x7 DUP3 ADD DUP1 SLOAD PUSH4 0xFFFFFFFF SWAP3 SWAP1 SWAP3 AND PUSH1 0x1 PUSH1 0x40 SHL MUL PUSH12 0xFFFFFFFF0000000000000000 NOT SWAP1 SWAP3 AND SWAP2 SWAP1 SWAP2 OR SWAP1 SSTORE DUP2 DUP2 SSTORE PUSH1 0x40 MLOAD DUP3 SWAP1 PUSH32 0x33A701182892FD888ED152CA2AC23771A32E814469B7CD255965471E1AF3A659 SWAP1 PUSH1 0x0 SWAP1 LOG2 POP POP JUMP JUMPDEST PUSH1 0x0 DUP4 DUP2 MSTORE PUSH1 0x3 PUSH1 0x20 MSTORE PUSH1 0x40 DUP1 DUP3 KECCAK256 PUSH1 0x7 DUP2 ADD DUP1 SLOAD PUSH2 0xFFFF PUSH1 0x60 SHL NOT AND PUSH1 0x1 PUSH1 0x68 SHL DUP8 ISZERO ISZERO MUL PUSH1 0xFF PUSH1 0x60 SHL NOT AND OR PUSH1 0x1 PUSH1 0x60 SHL DUP7 ISZERO ISZERO MUL OR SWAP1 SSTORE SWAP1 MLOAD SWAP1 SWAP2 DUP6 SWAP2 PUSH32 0x2CB29A2EF221B0C3A14C1AD2F16E14EBD400AF83556F5592B6E2689539DAAFA2 SWAP2 SWAP1 LOG2 POP POP POP POP JUMP JUMPDEST PUSH1 0x0 SLOAD PUSH1 0x1 PUSH1 0xA0 SHL SWAP1 DIV PUSH1 0xFF AND PUSH2 0x2F17 JUMPI PUSH1 0x40 MLOAD PUSH3 0x461BCD PUSH1 0xE5 SHL DUP2 MSTORE PUSH1 0x20 PUSH1 0x4 DUP3 ADD MSTORE PUSH1 0x14 PUSH1 0x24 DUP3 ADD MSTORE PUSH20 0x14185D5CD8589B194E881B9BDD081C185D5CD959 PUSH1 0x62 SHL PUSH1 0x44 DUP3 ADD MSTORE PUSH1 0x64 ADD PUSH2 0x97F JUMP JUMPDEST PUSH1 0x0 DUP1 SLOAD PUSH1 0xFF PUSH1 0xA0 SHL NOT AND SWAP1 SSTORE JUMP JUMPDEST PUSH1 0x0 SLOAD PUSH1 0x1 PUSH1 0xA0 SHL SWAP1 DIV PUSH1 0xFF AND ISZERO PUSH2 0x2F50 JUMPI PUSH1 0x40 MLOAD PUSH3 0x461BCD PUSH1 0xE5 SHL DUP2 MSTORE PUSH1 0x4 ADD PUSH2 0x97F SWAP1 PUSH2 0x3538 JUMP JUMPDEST PUSH1 0x0 DUP1 SLOAD PUSH1 0xFF PUSH1 0xA0 SHL NOT AND PUSH1 0x1 PUSH1 0xA0 SHL OR SWAP1 SSTORE JUMP JUMPDEST PUSH1 0x40 MLOAD PUSH1 0x1 PUSH1 0x1 PUSH1 0xA0 SHL SUB DUP4 AND SWAP1 DUP3 ISZERO PUSH2 0x8FC MUL SWAP1 DUP4 SWAP1 PUSH1 0x0 DUP2 DUP2 DUP2 DUP6 DUP9 DUP9 CALL SWAP4 POP POP POP POP ISZERO DUP1 ISZERO PUSH2 0xA16 JUMPI RETURNDATASIZE PUSH1 0x0 DUP1 RETURNDATACOPY RETURNDATASIZE PUSH1 0x0 REVERT JUMPDEST PUSH1 0x0 PUSH1 0x20 DUP3 DUP5 SUB SLT ISZERO PUSH2 0x2FAD JUMPI PUSH1 0x0 DUP1 REVERT JUMPDEST POP CALLDATALOAD SWAP2 SWAP1 POP JUMP JUMPDEST DUP1 CALLDATALOAD DUP1 ISZERO ISZERO DUP2 EQ PUSH2 0x2FC4 JUMPI PUSH1 0x0 DUP1 REVERT JUMPDEST SWAP2 SWAP1 POP JUMP JUMPDEST PUSH1 0x0 DUP1 PUSH1 0x0 PUSH1 0x60 DUP5 DUP7 SUB SLT ISZERO PUSH2 0x2FDE JUMPI PUSH1 0x0 DUP1 REVERT JUMPDEST DUP4 CALLDATALOAD SWAP3 POP PUSH2 0x2FEE PUSH1 0x20 DUP6 ADD PUSH2 0x2FB4 JUMP JUMPDEST SWAP2 POP PUSH2 0x2FFC PUSH1 0x40 DUP6 ADD PUSH2 0x2FB4 JUMP JUMPDEST SWAP1 POP SWAP3 POP SWAP3 POP SWAP3 JUMP JUMPDEST PUSH1 0x0 DUP1 PUSH1 0x40 DUP4 DUP6 SUB SLT ISZERO PUSH2 0x3018 JUMPI PUSH1 0x0 DUP1 REVERT JUMPDEST POP POP DUP1 CALLDATALOAD SWAP3 PUSH1 0x20 SWAP1 SWAP2 ADD CALLDATALOAD SWAP2 POP JUMP JUMPDEST PUSH1 0x0 PUSH1 0x20 DUP1 DUP4 MSTORE DUP4 MLOAD DUP1 DUP3 DUP6 ADD MSTORE PUSH1 0x0 JUMPDEST DUP2 DUP2 LT ISZERO PUSH2 0x3054 JUMPI DUP6 DUP2 ADD DUP4 ADD MLOAD DUP6 DUP3 ADD PUSH1 0x40 ADD MSTORE DUP3 ADD PUSH2 0x3038 JUMP JUMPDEST DUP2 DUP2 GT ISZERO PUSH2 0x3066 JUMPI PUSH1 0x0 PUSH1 0x40 DUP4 DUP8 ADD ADD MSTORE JUMPDEST POP PUSH1 0x1F ADD PUSH1 0x1F NOT AND SWAP3 SWAP1 SWAP3 ADD PUSH1 0x40 ADD SWAP4 SWAP3 POP POP POP JUMP JUMPDEST DUP1 CALLDATALOAD PUSH1 0x1 PUSH1 0x1 PUSH1 0xA0 SHL SUB DUP2 AND DUP2 EQ PUSH2 0x2FC4 JUMPI PUSH1 0x0 DUP1 REVERT JUMPDEST PUSH1 0x0 PUSH1 0x20 DUP3 DUP5 SUB SLT ISZERO PUSH2 0x30A5 JUMPI PUSH1 0x0 DUP1 REVERT JUMPDEST PUSH2 0x30AE DUP3 PUSH2 0x307C JUMP JUMPDEST SWAP4 SWAP3 POP POP POP JUMP JUMPDEST PUSH1 0x0 DUP1 PUSH1 0x40 DUP4 DUP6 SUB SLT ISZERO PUSH2 0x30C8 JUMPI PUSH1 0x0 DUP1 REVERT JUMPDEST DUP3 CALLDATALOAD SWAP2 POP PUSH2 0x30D8 PUSH1 0x20 DUP5 ADD PUSH2 0x307C JUMP JUMPDEST SWAP1 POP SWAP3 POP SWAP3 SWAP1 POP JUMP JUMPDEST PUSH4 0x4E487B71 PUSH1 0xE0 SHL PUSH1 0x0 MSTORE PUSH1 0x21 PUSH1 0x4 MSTORE PUSH1 0x24 PUSH1 0x0 REVERT JUMPDEST PUSH1 0x2 DUP2 LT PUSH2 0x3115 JUMPI PUSH4 0x4E487B71 PUSH1 0xE0 SHL PUSH1 0x0 MSTORE PUSH1 0x21 PUSH1 0x4 MSTORE PUSH1 0x24 PUSH1 0x0 REVERT JUMPDEST SWAP1 MSTORE JUMP JUMPDEST PUSH1 0xA0 DUP2 ADD PUSH2 0x3127 DUP3 DUP9 PUSH2 0x30F7 JUMP JUMPDEST DUP6 PUSH1 0x20 DUP4 ADD MSTORE DUP5 PUSH1 0x40 DUP4 ADD MSTORE DUP4 PUSH1 0x60 DUP4 ADD MSTORE DUP3 ISZERO ISZERO PUSH1 0x80 DUP4 ADD MSTORE SWAP7 SWAP6 POP POP POP POP POP POP JUMP JUMPDEST PUSH1 0x0 DUP2 MLOAD DUP1 DUP5 MSTORE PUSH1 0x20 DUP1 DUP6 ADD SWAP5 POP DUP1 DUP5 ADD PUSH1 0x0 JUMPDEST DUP4 DUP2 LT ISZERO PUSH2 0x31AD JUMPI DUP2 MLOAD DUP1 MLOAD PUSH1 0x1 PUSH1 0x1 PUSH1 0xA0 SHL SUB AND DUP9 MSTORE DUP4 DUP2 ADD MLOAD PUSH2 0x3186 DUP6 DUP11 ADD DUP3 PUSH2 0x30F7 JUMP JUMPDEST POP PUSH1 0x40 DUP2 DUP2 ADD MLOAD SWAP1 DUP10 ADD MSTORE PUSH1 0x60 SWAP1 DUP2 ADD MLOAD SWAP1 DUP9 ADD MSTORE PUSH1 0x80 SWAP1 SWAP7 ADD SWAP6 SWAP1 DUP3 ADD SWAP1 PUSH1 0x1 ADD PUSH2 0x315F JUMP JUMPDEST POP SWAP5 SWAP6 SWAP5 POP POP POP POP POP JUMP JUMPDEST PUSH1 0x20 DUP2 MSTORE PUSH1 0x0 PUSH2 0x30AE PUSH1 0x20 DUP4 ADD DUP5 PUSH2 0x314B JUMP JUMPDEST PUSH1 0x0 DUP2 MLOAD DUP1 DUP5 MSTORE PUSH1 0x20 DUP1 DUP6 ADD SWAP5 POP DUP1 DUP5 ADD PUSH1 0x0 JUMPDEST DUP4 DUP2 LT ISZERO PUSH2 0x31AD JUMPI DUP2 MLOAD DUP8 MSTORE SWAP6 DUP3 ADD SWAP6 SWAP1 DUP3 ADD SWAP1 PUSH1 0x1 ADD PUSH2 0x31DF JUMP JUMPDEST PUSH1 0x20 DUP2 MSTORE PUSH1 0x0 PUSH2 0x30AE PUSH1 0x20 DUP4 ADD DUP5 PUSH2 0x31CB JUMP JUMPDEST PUSH1 0x0 DUP1 PUSH1 0x20 DUP4 DUP6 SUB SLT ISZERO PUSH2 0x3221 JUMPI PUSH1 0x0 DUP1 REVERT JUMPDEST DUP3 CALLDATALOAD PUSH8 0xFFFFFFFFFFFFFFFF DUP1 DUP3 GT ISZERO PUSH2 0x3239 JUMPI PUSH1 0x0 DUP1 REVERT JUMPDEST DUP2 DUP6 ADD SWAP2 POP DUP6 PUSH1 0x1F DUP4 ADD SLT PUSH2 0x324D JUMPI PUSH1 0x0 DUP1 REVERT JUMPDEST DUP2 CALLDATALOAD DUP2 DUP2 GT ISZERO PUSH2 0x325C JUMPI PUSH1 0x0 DUP1 REVERT JUMPDEST DUP7 PUSH1 0x20 DUP3 PUSH1 0x5 SHL DUP6 ADD ADD GT ISZERO PUSH2 0x3271 JUMPI PUSH1 0x0 DUP1 REVERT JUMPDEST PUSH1 0x20 SWAP3 SWAP1 SWAP3 ADD SWAP7 SWAP2 SWAP6 POP SWAP1 SWAP4 POP POP POP POP JUMP JUMPDEST PUSH1 0x0 DUP1 PUSH1 0x0 PUSH1 0x60 DUP5 DUP7 SUB SLT ISZERO PUSH2 0x3298 JUMPI PUSH1 0x0 DUP1 REVERT JUMPDEST PUSH2 0x32A1 DUP5 PUSH2 0x307C JUMP JUMPDEST SWAP6 PUSH1 0x20 DUP6 ADD CALLDATALOAD SWAP6 POP PUSH1 0x40 SWAP1 SWAP5 ADD CALLDATALOAD SWAP4 SWAP3 POP POP POP JUMP JUMPDEST PUSH1 0x0 PUSH1 0x60 DUP1 DUP4 MSTORE PUSH2 0x32C9 DUP2 DUP5 ADD DUP8 PUSH2 0x31CB JUMP JUMPDEST DUP4 DUP2 SUB PUSH1 0x20 DUP6 DUP2 ADD SWAP2 SWAP1 SWAP2 MSTORE DUP7 MLOAD DUP1 DUP4 MSTORE DUP8 DUP3 ADD SWAP3 DUP3 ADD SWAP1 PUSH1 0x0 JUMPDEST DUP2 DUP2 LT ISZERO PUSH2 0x3331 JUMPI DUP5 MLOAD PUSH2 0x32F9 DUP5 DUP3 MLOAD PUSH2 0x30F7 JUMP JUMPDEST DUP1 DUP6 ADD MLOAD DUP5 DUP7 ADD MSTORE PUSH1 0x40 DUP1 DUP3 ADD MLOAD SWAP1 DUP6 ADD MSTORE DUP7 DUP2 ADD MLOAD DUP8 DUP6 ADD MSTORE PUSH1 0x80 SWAP1 DUP2 ADD MLOAD ISZERO ISZERO SWAP1 DUP5 ADD MSTORE SWAP4 DUP4 ADD SWAP4 PUSH1 0xA0 SWAP1 SWAP3 ADD SWAP2 PUSH1 0x1 ADD PUSH2 0x32E4 JUMP JUMPDEST POP POP DUP1 SWAP5 POP POP POP POP POP DUP3 PUSH1 0x40 DUP4 ADD MSTORE SWAP5 SWAP4 POP POP POP POP JUMP JUMPDEST PUSH1 0x0 DUP1 PUSH1 0x40 DUP4 DUP6 SUB SLT ISZERO PUSH2 0x335B JUMPI PUSH1 0x0 DUP1 REVERT JUMPDEST PUSH2 0x3364 DUP4 PUSH2 0x307C JUMP JUMPDEST SWAP5 PUSH1 0x20 SWAP4 SWAP1 SWAP4 ADD CALLDATALOAD SWAP4 POP POP POP JUMP JUMPDEST PUSH1 0x0 PUSH1 0x20 DUP1 DUP4 ADD DUP2 DUP5 MSTORE DUP1 DUP6 MLOAD DUP1 DUP4 MSTORE PUSH1 0x40 SWAP3 POP DUP3 DUP7 ADD SWAP2 POP DUP3 DUP2 PUSH1 0x5 SHL DUP8 ADD ADD DUP5 DUP9 ADD PUSH1 0x0 JUMPDEST DUP4 DUP2 LT ISZERO PUSH2 0x3463 JUMPI DUP9 DUP4 SUB PUSH1 0x3F NOT ADD DUP6 MSTORE DUP2 MLOAD DUP1 MLOAD DUP5 MSTORE DUP8 DUP2 ADD MLOAD DUP9 DUP6 ADD MSTORE DUP7 DUP2 ADD MLOAD DUP8 DUP6 ADD MSTORE PUSH1 0x60 DUP1 DUP3 ADD MLOAD SWAP1 DUP6 ADD MSTORE PUSH1 0x80 DUP1 DUP3 ADD MLOAD SWAP1 DUP6 ADD MSTORE PUSH1 0xA0 DUP1 DUP3 ADD MLOAD SWAP1 DUP6 ADD MSTORE PUSH1 0xC0 DUP1 DUP3 ADD MLOAD SWAP1 DUP6 ADD MSTORE PUSH1 0xE0 DUP1 DUP3 ADD MLOAD PUSH4 0xFFFFFFFF SWAP1 DUP2 AND SWAP2 DUP7 ADD SWAP2 SWAP1 SWAP2 MSTORE PUSH2 0x100 DUP1 DUP4 ADD MLOAD DUP3 AND SWAP1 DUP7 ADD MSTORE PUSH2 0x120 DUP1 DUP4 ADD MLOAD SWAP1 SWAP2 AND SWAP1 DUP6 ADD MSTORE PUSH2 0x140 DUP1 DUP3 ADD MLOAD ISZERO ISZERO SWAP1 DUP6 ADD MSTORE PUSH2 0x160 DUP1 DUP3 ADD MLOAD ISZERO ISZERO SWAP1 DUP6 ADD MSTORE PUSH2 0x180 SWAP1 DUP2 ADD MLOAD PUSH2 0x1A0 SWAP2 DUP6 ADD DUP3 SWAP1 MSTORE SWAP1 PUSH2 0x344F DUP2 DUP7 ADD DUP4 PUSH2 0x314B JUMP JUMPDEST SWAP7 DUP10 ADD SWAP7 SWAP5 POP POP POP SWAP1 DUP7 ADD SWAP1 PUSH1 0x1 ADD PUSH2 0x3399 JUMP JUMPDEST POP SWAP1 SWAP9 SWAP8 POP POP POP POP POP POP POP POP JUMP JUMPDEST PUSH4 0x4E487B71 PUSH1 0xE0 SHL PUSH1 0x0 MSTORE PUSH1 0x41 PUSH1 0x4 MSTORE PUSH1 0x24 PUSH1 0x0 REVERT JUMPDEST PUSH1 0x0 PUSH1 0x20 DUP3 DUP5 SUB SLT ISZERO PUSH2 0x3499 JUMPI PUSH1 0x0 DUP1 REVERT JUMPDEST DUP2 CALLDATALOAD PUSH8 0xFFFFFFFFFFFFFFFF DUP1 DUP3 GT ISZERO PUSH2 0x34B1 JUMPI PUSH1 0x0 DUP1 REVERT JUMPDEST DUP2 DUP5 ADD SWAP2 POP DUP5 PUSH1 0x1F DUP4 ADD SLT PUSH2 0x34C5 JUMPI PUSH1 0x0 DUP1 REVERT JUMPDEST DUP2 CALLDATALOAD DUP2 DUP2 GT ISZERO PUSH2 0x34D7 JUMPI PUSH2 0x34D7 PUSH2 0x3471 JUMP JUMPDEST PUSH1 0x40 MLOAD PUSH1 0x1F DUP3 ADD PUSH1 0x1F NOT SWAP1 DUP2 AND PUSH1 0x3F ADD AND DUP2 ADD SWAP1 DUP4 DUP3 GT DUP2 DUP4 LT OR ISZERO PUSH2 0x34FF JUMPI PUSH2 0x34FF PUSH2 0x3471 JUMP JUMPDEST DUP2 PUSH1 0x40 MSTORE DUP3 DUP2 MSTORE DUP8 PUSH1 0x20 DUP5 DUP8 ADD ADD GT ISZERO PUSH2 0x3518 JUMPI PUSH1 0x0 DUP1 REVERT JUMPDEST DUP3 PUSH1 0x20 DUP7 ADD PUSH1 0x20 DUP4 ADD CALLDATACOPY PUSH1 0x0 SWAP3 DUP2 ADD PUSH1 0x20 ADD SWAP3 SWAP1 SWAP3 MSTORE POP SWAP6 SWAP5 POP POP POP POP POP JUMP JUMPDEST PUSH1 0x20 DUP1 DUP3 MSTORE PUSH1 0x10 SWAP1 DUP3 ADD MSTORE PUSH16 0x14185D5CD8589B194E881C185D5CD959 PUSH1 0x82 SHL PUSH1 0x40 DUP3 ADD MSTORE PUSH1 0x60 ADD SWAP1 JUMP JUMPDEST PUSH4 0x4E487B71 PUSH1 0xE0 SHL PUSH1 0x0 MSTORE PUSH1 0x11 PUSH1 0x4 MSTORE PUSH1 0x24 PUSH1 0x0 REVERT JUMPDEST PUSH1 0x0 DUP3 DUP3 LT ISZERO PUSH2 0x358A JUMPI PUSH2 0x358A PUSH2 0x3562 JUMP JUMPDEST POP SUB SWAP1 JUMP JUMPDEST PUSH1 0x0 PUSH1 0x1 DUP3 ADD PUSH2 0x35A1 JUMPI PUSH2 0x35A1 PUSH2 0x3562 JUMP JUMPDEST POP PUSH1 0x1 ADD SWAP1 JUMP JUMPDEST PUSH1 0x20 DUP1 DUP3 MSTORE DUP2 DUP2 ADD MSTORE PUSH32 0x4F776E61626C653A2063616C6C6572206973206E6F7420746865206F776E6572 PUSH1 0x40 DUP3 ADD MSTORE PUSH1 0x60 ADD SWAP1 JUMP JUMPDEST PUSH1 0x0 DUP3 NOT DUP3 GT ISZERO PUSH2 0x35F0 JUMPI PUSH2 0x35F0 PUSH2 0x3562 JUMP JUMPDEST POP ADD SWAP1 JUMP JUMPDEST PUSH1 0x20 DUP1 DUP3 MSTORE PUSH1 0x15 SWAP1 DUP3 ADD MSTORE PUSH21 0x10DBDB9D1C9858DD1CC81B9BDD08185B1B1BDDD959 PUSH1 0x5A SHL PUSH1 0x40 DUP3 ADD MSTORE PUSH1 0x60 ADD SWAP1 JUMP JUMPDEST PUSH1 0x20 DUP1 DUP3 MSTORE PUSH1 0x1B SWAP1 DUP3 ADD MSTORE PUSH32 0x50726F787920636F6E747261637473206E6F7420616C6C6F7765640000000000 PUSH1 0x40 DUP3 ADD MSTORE PUSH1 0x60 ADD SWAP1 JUMP JUMPDEST PUSH1 0x20 DUP1 DUP3 MSTORE PUSH1 0x12 SWAP1 DUP3 ADD MSTORE PUSH18 0x526F756E64206E6F74206265747461626C65 PUSH1 0x70 SHL PUSH1 0x40 DUP3 ADD MSTORE PUSH1 0x60 ADD SWAP1 JUMP JUMPDEST PUSH1 0x1 DUP2 DUP2 SHR SWAP1 DUP3 AND DUP1 PUSH2 0x369B JUMPI PUSH1 0x7F DUP3 AND SWAP2 POP JUMPDEST PUSH1 0x20 DUP3 LT DUP2 SUB PUSH2 0x36BB JUMPI PUSH4 0x4E487B71 PUSH1 0xE0 SHL PUSH1 0x0 MSTORE PUSH1 0x22 PUSH1 0x4 MSTORE PUSH1 0x24 PUSH1 0x0 REVERT JUMPDEST POP SWAP2 SWAP1 POP JUMP JUMPDEST PUSH1 0x20 DUP1 DUP3 MSTORE PUSH1 0x1F SWAP1 DUP3 ADD MSTORE PUSH32 0x5265656E7472616E637947756172643A207265656E7472616E742063616C6C00 PUSH1 0x40 DUP3 ADD MSTORE PUSH1 0x60 ADD SWAP1 JUMP JUMPDEST PUSH4 0x4E487B71 PUSH1 0xE0 SHL PUSH1 0x0 MSTORE PUSH1 0x32 PUSH1 0x4 MSTORE PUSH1 0x24 PUSH1 0x0 REVERT JUMPDEST PUSH1 0x0 DUP2 PUSH1 0x0 NOT DIV DUP4 GT DUP3 ISZERO ISZERO AND ISZERO PUSH2 0x3728 JUMPI PUSH2 0x3728 PUSH2 0x3562 JUMP JUMPDEST POP MUL SWAP1 JUMP JUMPDEST PUSH1 0x0 DUP3 PUSH2 0x374A JUMPI PUSH4 0x4E487B71 PUSH1 0xE0 SHL PUSH1 0x0 MSTORE PUSH1 0x12 PUSH1 0x4 MSTORE PUSH1 0x24 PUSH1 0x0 REVERT JUMPDEST POP DIV SWAP1 JUMP JUMPDEST PUSH1 0x20 DUP1 DUP3 MSTORE PUSH1 0x2E SWAP1 DUP3 ADD MSTORE PUSH32 0x42657420616D6F756E74206D7573742062652067726561746572207468616E20 PUSH1 0x40 DUP3 ADD MSTORE PUSH14 0x1B5A5B9A5B5D5B48185B5BDD5B9D PUSH1 0x92 SHL PUSH1 0x60 DUP3 ADD MSTORE PUSH1 0x80 ADD SWAP1 JUMP JUMPDEST PUSH1 0x1F DUP3 GT ISZERO PUSH2 0xA16 JUMPI PUSH1 0x0 DUP2 DUP2 MSTORE PUSH1 0x20 DUP2 KECCAK256 PUSH1 0x1F DUP6 ADD PUSH1 0x5 SHR DUP2 ADD PUSH1 0x20 DUP7 LT ISZERO PUSH2 0x37C4 JUMPI POP DUP1 JUMPDEST PUSH1 0x1F DUP6 ADD PUSH1 0x5 SHR DUP3 ADD SWAP2 POP JUMPDEST DUP2 DUP2 LT ISZERO PUSH2 0x37E3 JUMPI DUP3 DUP2 SSTORE PUSH1 0x1 ADD PUSH2 0x37D0 JUMP JUMPDEST POP POP POP POP POP POP JUMP JUMPDEST DUP2 MLOAD PUSH8 0xFFFFFFFFFFFFFFFF DUP2 GT ISZERO PUSH2 0x3805 JUMPI PUSH2 0x3805 PUSH2 0x3471 JUMP JUMPDEST PUSH2 0x3819 DUP2 PUSH2 0x3813 DUP5 SLOAD PUSH2 0x3687 JUMP JUMPDEST DUP5 PUSH2 0x379D JUMP JUMPDEST PUSH1 0x20 DUP1 PUSH1 0x1F DUP4 GT PUSH1 0x1 DUP2 EQ PUSH2 0x384E JUMPI PUSH1 0x0 DUP5 ISZERO PUSH2 0x3836 JUMPI POP DUP6 DUP4 ADD MLOAD JUMPDEST PUSH1 0x0 NOT PUSH1 0x3 DUP7 SWAP1 SHL SHR NOT AND PUSH1 0x1 DUP6 SWAP1 SHL OR DUP6 SSTORE PUSH2 0x37E3 JUMP JUMPDEST PUSH1 0x0 DUP6 DUP2 MSTORE PUSH1 0x20 DUP2 KECCAK256 PUSH1 0x1F NOT DUP7 AND SWAP2 JUMPDEST DUP3 DUP2 LT ISZERO PUSH2 0x387D JUMPI DUP9 DUP7 ADD MLOAD DUP3 SSTORE SWAP5 DUP5 ADD SWAP5 PUSH1 0x1 SWAP1 SWAP2 ADD SWAP1 DUP5 ADD PUSH2 0x385E JUMP JUMPDEST POP DUP6 DUP3 LT ISZERO PUSH2 0x389B JUMPI DUP8 DUP6 ADD MLOAD PUSH1 0x0 NOT PUSH1 0x3 DUP9 SWAP1 SHL PUSH1 0xF8 AND SHR NOT AND DUP2 SSTORE JUMPDEST POP POP POP POP POP PUSH1 0x1 SWAP1 DUP2 SHL ADD SWAP1 SSTORE POP JUMP INVALID LOG2 PUSH5 0x6970667358 0x22 SLT KECCAK256 DUP14 CALLER 0x2B DELEGATECALL BYTE PUSH32 0x1925082581BA0052F2C08A6FF02EA85C107076CC083FC9AC56AD64736F6C6343 STOP ADDMOD 0xF STOP CALLER "},"methodIdentifiers":{"BetBear(uint256)":"bd776d8a","BetBull(uint256)":"bb434f28","BetHouse(uint256,uint256)":"1fa52d91","Bets(uint256,address)":"3977b381","Claim(uint256[])":"8f9fa51b","FundsExtract(uint256)":"8df3f826","FundsInject()":"83d2f5a0","OwnershipRenounce()":"fd5bab23","OwnershipTransfer(address)":"dfc39691","Pause()":"6985a022","Resume()":"490d6d11","RoundCancel(uint256,bool,bool)":"120e75e8","RoundExecute(int256)":"00935034","RoundLock(int256)":"31c5d137","RoundStart()":"1f713cae","Rounds(uint256)":"d5df9d23","SetMinBetAmount(uint256)":"48894f0d","SetPriceSource(string)":"eef4eeae","SetRewardRate(uint256)":"1946fb78","SetRoundDuration(uint256)":"36f56ba0","UserBets(address,uint256)":"cf48098e","Users(address)":"99b956a0","_bettable(uint256)":"ba4f6737","_calculateRewards(uint256)":"bc0547e3","bullBetsCount()":"13493444","claimable(uint256,address)":"a0c7f71c","currentEpoch()":"76671808","getAllRounds()":"e5066bbf","getRoundPlayers(uint256)":"776e11dd","getStats()":"c59d4847","getUserParticipatedRounds(address)":"8843013b","getUserRounds(address,uint256,uint256)":"951fd600","getUserRoundsLength(address)":"273867d4","lockOnce()":"6a42c87b","minBetAmount()":"fa968eea","owner()":"8da5cb5b","paused()":"5c975abb","priceSource()":"20531bc9","refundable(uint256,address)":"7bf41254","rewardRate()":"7b0a47ee","roundDuration()":"f7cb789a","startOnce()":"381a5478"}}}}}