{
  "_format": "hh-sol-artifact-1",
  "contractName": "CandleGeniePrediction",
  "sourceName": "src/contracts/candleGenie.sol",
  "abi": [
    {
      "anonymous": false,
      "inputs": [
        {
          "indexed": true,
          "internalType": "address",
          "name": "sender",
          "type": "address"
        },
        {
          "indexed": true,
          "internalType": "uint256",
          "name": "epoch",
          "type": "uint256"
        },
        {
          "indexed": false,
          "internalType": "uint256",
          "name": "amount",
          "type": "uint256"
        }
      ],
      "name": "BearBet",
      "type": "event"
    },
    {
      "anonymous": false,
      "inputs": [
        {
          "indexed": true,
          "internalType": "address",
          "name": "sender",
          "type": "address"
        },
        {
          "indexed": true,
          "internalType": "uint256",
          "name": "epoch",
          "type": "uint256"
        },
        {
          "indexed": false,
          "internalType": "uint256",
          "name": "amount",
          "type": "uint256"
        }
      ],
      "name": "BullBet",
      "type": "event"
    },
    {
      "anonymous": false,
      "inputs": [
        {
          "indexed": true,
          "internalType": "address",
          "name": "sender",
          "type": "address"
        },
        {
          "indexed": true,
          "internalType": "uint256",
          "name": "epoch",
          "type": "uint256"
        },
        {
          "indexed": false,
          "internalType": "uint256",
          "name": "amount",
          "type": "uint256"
        }
      ],
      "name": "Claimed",
      "type": "event"
    },
    {
      "anonymous": false,
      "inputs": [
        {
          "indexed": true,
          "internalType": "address",
          "name": "sender",
          "type": "address"
        },
        {
          "indexed": true,
          "internalType": "uint256",
          "name": "epoch",
          "type": "uint256"
        },
        {
          "indexed": false,
          "internalType": "uint256",
          "name": "bullAmount",
          "type": "uint256"
        },
        {
          "indexed": false,
          "internalType": "uint256",
          "name": "bearAmount",
          "type": "uint256"
        }
      ],
      "name": "HouseBet",
      "type": "event"
    },
    {
      "anonymous": false,
      "inputs": [
        {
          "indexed": true,
          "internalType": "uint256",
          "name": "epoch",
          "type": "uint256"
        },
        {
          "indexed": false,
          "internalType": "uint256",
          "name": "minBetAmount",
          "type": "uint256"
        }
      ],
      "name": "MinBetAmountUpdated",
      "type": "event"
    },
    {
      "anonymous": false,
      "inputs": [
        {
          "indexed": true,
          "internalType": "address",
          "name": "previousOwner",
          "type": "address"
        },
        {
          "indexed": true,
          "internalType": "address",
          "name": "newOwner",
          "type": "address"
        }
      ],
      "name": "OwnershipTransferred",
      "type": "event"
    },
    {
      "anonymous": false,
      "inputs": [
        {
          "indexed": true,
          "internalType": "uint256",
          "name": "epoch",
          "type": "uint256"
        }
      ],
      "name": "Paused",
      "type": "event"
    },
    {
      "anonymous": false,
      "inputs": [
        {
          "indexed": true,
          "internalType": "address",
          "name": "sender",
          "type": "address"
        },
        {
          "indexed": true,
          "internalType": "uint256",
          "name": "epoch",
          "type": "uint256"
        },
        {
          "indexed": false,
          "internalType": "uint256",
          "name": "amount",
          "type": "uint256"
        }
      ],
      "name": "Refunded",
      "type": "event"
    },
    {
      "anonymous": false,
      "inputs": [
        {
          "indexed": false,
          "internalType": "uint256",
          "name": "roundDuration",
          "type": "uint256"
        }
      ],
      "name": "RoundDuratioUpdated",
      "type": "event"
    },
    {
      "anonymous": false,
      "inputs": [
        {
          "indexed": true,
          "internalType": "uint256",
          "name": "epoch",
          "type": "uint256"
        },
        {
          "indexed": false,
          "internalType": "int256",
          "name": "price",
          "type": "int256"
        }
      ],
      "name": "RoundEnded",
      "type": "event"
    },
    {
      "anonymous": false,
      "inputs": [
        {
          "indexed": true,
          "internalType": "uint256",
          "name": "epoch",
          "type": "uint256"
        }
      ],
      "name": "RoundEndedCancelled",
      "type": "event"
    },
    {
      "anonymous": false,
      "inputs": [
        {
          "indexed": true,
          "internalType": "uint256",
          "name": "epoch",
          "type": "uint256"
        },
        {
          "indexed": false,
          "internalType": "int256",
          "name": "price",
          "type": "int256"
        }
      ],
      "name": "RoundLocked",
      "type": "event"
    },
    {
      "anonymous": false,
      "inputs": [
        {
          "indexed": true,
          "internalType": "uint256",
          "name": "epoch",
          "type": "uint256"
        }
      ],
      "name": "RoundStarted",
      "type": "event"
    },
    {
      "anonymous": false,
      "inputs": [
        {
          "indexed": true,
          "internalType": "uint256",
          "name": "epoch",
          "type": "uint256"
        }
      ],
      "name": "Unpaused",
      "type": "event"
    },
    {
      "inputs": [
        {
          "internalType": "uint256",
          "name": "epoch",
          "type": "uint256"
        }
      ],
      "name": "BetBear",
      "outputs": [],
      "stateMutability": "payable",
      "type": "function"
    },
    {
      "inputs": [
        {
          "internalType": "uint256",
          "name": "epoch",
          "type": "uint256"
        }
      ],
      "name": "BetBull",
      "outputs": [],
      "stateMutability": "payable",
      "type": "function"
    },
    {
      "inputs": [
        {
          "internalType": "uint256",
          "name": "bullAmount",
          "type": "uint256"
        },
        {
          "internalType": "uint256",
          "name": "bearAmount",
          "type": "uint256"
        }
      ],
      "name": "BetHouse",
      "outputs": [],
      "stateMutability": "nonpayable",
      "type": "function"
    },
    {
      "inputs": [
        {
          "internalType": "uint256",
          "name": "",
          "type": "uint256"
        },
        {
          "internalType": "address",
          "name": "",
          "type": "address"
        }
      ],
      "name": "Bets",
      "outputs": [
        {
          "internalType": "enum CandleGeniePrediction.Position",
          "name": "position",
          "type": "uint8"
        },
        {
          "internalType": "uint256",
          "name": "betTimestamp",
          "type": "uint256"
        },
        {
          "internalType": "uint256",
          "name": "claimTimestamp",
          "type": "uint256"
        },
        {
          "internalType": "uint256",
          "name": "amount",
          "type": "uint256"
        },
        {
          "internalType": "bool",
          "name": "claimed",
          "type": "bool"
        }
      ],
      "stateMutability": "view",
      "type": "function"
    },
    {
      "inputs": [
        {
          "internalType": "uint256[]",
          "name": "epochs",
          "type": "uint256[]"
        }
      ],
      "name": "Claim",
      "outputs": [],
      "stateMutability": "nonpayable",
      "type": "function"
    },
    {
      "inputs": [
        {
          "internalType": "uint256",
          "name": "value",
          "type": "uint256"
        }
      ],
      "name": "FundsExtract",
      "outputs": [],
      "stateMutability": "nonpayable",
      "type": "function"
    },
    {
      "inputs": [],
      "name": "FundsInject",
      "outputs": [],
      "stateMutability": "payable",
      "type": "function"
    },
    {
      "inputs": [],
      "name": "OwnershipRenounce",
      "outputs": [],
      "stateMutability": "nonpayable",
      "type": "function"
    },
    {
      "inputs": [
        {
          "internalType": "address",
          "name": "newOwner",
          "type": "address"
        }
      ],
      "name": "OwnershipTransfer",
      "outputs": [],
      "stateMutability": "nonpayable",
      "type": "function"
    },
    {
      "inputs": [],
      "name": "Pause",
      "outputs": [],
      "stateMutability": "nonpayable",
      "type": "function"
    },
    {
      "inputs": [],
      "name": "Resume",
      "outputs": [],
      "stateMutability": "nonpayable",
      "type": "function"
    },
    {
      "inputs": [
        {
          "internalType": "uint256",
          "name": "epoch",
          "type": "uint256"
        },
        {
          "internalType": "bool",
          "name": "cancelled",
          "type": "bool"
        },
        {
          "internalType": "bool",
          "name": "closed",
          "type": "bool"
        }
      ],
      "name": "RoundCancel",
      "outputs": [],
      "stateMutability": "nonpayable",
      "type": "function"
    },
    {
      "inputs": [
        {
          "internalType": "int256",
          "name": "price",
          "type": "int256"
        }
      ],
      "name": "RoundExecute",
      "outputs": [],
      "stateMutability": "nonpayable",
      "type": "function"
    },
    {
      "inputs": [
        {
          "internalType": "int256",
          "name": "price",
          "type": "int256"
        }
      ],
      "name": "RoundLock",
      "outputs": [],
      "stateMutability": "nonpayable",
      "type": "function"
    },
    {
      "inputs": [],
      "name": "RoundStart",
      "outputs": [],
      "stateMutability": "nonpayable",
      "type": "function"
    },
    {
      "inputs": [
        {
          "internalType": "uint256",
          "name": "",
          "type": "uint256"
        }
      ],
      "name": "Rounds",
      "outputs": [
        {
          "internalType": "uint256",
          "name": "epoch",
          "type": "uint256"
        },
        {
          "internalType": "uint256",
          "name": "bullAmount",
          "type": "uint256"
        },
        {
          "internalType": "uint256",
          "name": "bearAmount",
          "type": "uint256"
        },
        {
          "internalType": "uint256",
          "name": "rewardBaseCalAmount",
          "type": "uint256"
        },
        {
          "internalType": "uint256",
          "name": "rewardAmount",
          "type": "uint256"
        },
        {
          "internalType": "int256",
          "name": "lockPrice",
          "type": "int256"
        },
        {
          "internalType": "int256",
          "name": "closePrice",
          "type": "int256"
        },
        {
          "internalType": "uint32",
          "name": "startTimestamp",
          "type": "uint32"
        },
        {
          "internalType": "uint32",
          "name": "lockTimestamp",
          "type": "uint32"
        },
        {
          "internalType": "uint32",
          "name": "closeTimestamp",
          "type": "uint32"
        },
        {
          "internalType": "bool",
          "name": "closed",
          "type": "bool"
        },
        {
          "internalType": "bool",
          "name": "cancelled",
          "type": "bool"
        }
      ],
      "stateMutability": "view",
      "type": "function"
    },
    {
      "inputs": [
        {
          "internalType": "uint256",
          "name": "_minBetAmount",
          "type": "uint256"
        }
      ],
      "name": "SetMinBetAmount",
      "outputs": [],
      "stateMutability": "nonpayable",
      "type": "function"
    },
    {
      "inputs": [
        {
          "internalType": "string",
          "name": "_priceSource",
          "type": "string"
        }
      ],
      "name": "SetPriceSource",
      "outputs": [],
      "stateMutability": "nonpayable",
      "type": "function"
    },
    {
      "inputs": [
        {
          "internalType": "uint256",
          "name": "_rewardRate",
          "type": "uint256"
        }
      ],
      "name": "SetRewardRate",
      "outputs": [],
      "stateMutability": "nonpayable",
      "type": "function"
    },
    {
      "inputs": [
        {
          "internalType": "uint256",
          "name": "_roundDuration",
          "type": "uint256"
        }
      ],
      "name": "SetRoundDuration",
      "outputs": [],
      "stateMutability": "nonpayable",
      "type": "function"
    },
    {
      "inputs": [
        {
          "internalType": "address",
          "name": "",
          "type": "address"
        },
        {
          "internalType": "uint256",
          "name": "",
          "type": "uint256"
        }
      ],
      "name": "UserBets",
      "outputs": [
        {
          "internalType": "uint256",
          "name": "",
          "type": "uint256"
        }
      ],
      "stateMutability": "view",
      "type": "function"
    },
    {
      "inputs": [
        {
          "internalType": "address",
          "name": "",
          "type": "address"
        }
      ],
      "name": "Users",
      "outputs": [
        {
          "internalType": "address",
          "name": "wallet",
          "type": "address"
        },
        {
          "internalType": "uint256",
          "name": "latestEpoch",
          "type": "uint256"
        },
        {
          "internalType": "uint256",
          "name": "bullBetsCount",
          "type": "uint256"
        },
        {
          "internalType": "uint256",
          "name": "bullBetsTotal",
          "type": "uint256"
        },
        {
          "internalType": "uint256",
          "name": "bearBetsCount",
          "type": "uint256"
        },
        {
          "internalType": "uint256",
          "name": "bearBetsTotal",
          "type": "uint256"
        },
        {
          "internalType": "uint256",
          "name": "paidBetsCount",
          "type": "uint256"
        },
        {
          "internalType": "uint256",
          "name": "paidBetsTotal",
          "type": "uint256"
        }
      ],
      "stateMutability": "view",
      "type": "function"
    },
    {
      "inputs": [
        {
          "internalType": "uint256",
          "name": "epoch",
          "type": "uint256"
        }
      ],
      "name": "_bettable",
      "outputs": [
        {
          "internalType": "bool",
          "name": "",
          "type": "bool"
        }
      ],
      "stateMutability": "view",
      "type": "function"
    },
    {
      "inputs": [
        {
          "internalType": "uint256",
          "name": "epoch",
          "type": "uint256"
        }
      ],
      "name": "_calculateRewards",
      "outputs": [],
      "stateMutability": "nonpayable",
      "type": "function"
    },
    {
      "inputs": [],
      "name": "bullBetsCount",
      "outputs": [
        {
          "internalType": "uint256",
          "name": "",
          "type": "uint256"
        }
      ],
      "stateMutability": "view",
      "type": "function"
    },
    {
      "inputs": [
        {
          "internalType": "uint256",
          "name": "epoch",
          "type": "uint256"
        },
        {
          "internalType": "address",
          "name": "user",
          "type": "address"
        }
      ],
      "name": "claimable",
      "outputs": [
        {
          "internalType": "bool",
          "name": "",
          "type": "bool"
        }
      ],
      "stateMutability": "view",
      "type": "function"
    },
    {
      "inputs": [],
      "name": "currentEpoch",
      "outputs": [
        {
          "internalType": "uint256",
          "name": "",
          "type": "uint256"
        }
      ],
      "stateMutability": "view",
      "type": "function"
    },
    {
      "inputs": [],
      "name": "getAllRounds",
      "outputs": [
        {
          "components": [
            {
              "internalType": "uint256",
              "name": "epoch",
              "type": "uint256"
            },
            {
              "internalType": "uint256",
              "name": "bullAmount",
              "type": "uint256"
            },
            {
              "internalType": "uint256",
              "name": "bearAmount",
              "type": "uint256"
            },
            {
              "internalType": "uint256",
              "name": "rewardBaseCalAmount",
              "type": "uint256"
            },
            {
              "internalType": "uint256",
              "name": "rewardAmount",
              "type": "uint256"
            },
            {
              "internalType": "int256",
              "name": "lockPrice",
              "type": "int256"
            },
            {
              "internalType": "int256",
              "name": "closePrice",
              "type": "int256"
            },
            {
              "internalType": "uint32",
              "name": "startTimestamp",
              "type": "uint32"
            },
            {
              "internalType": "uint32",
              "name": "lockTimestamp",
              "type": "uint32"
            },
            {
              "internalType": "uint32",
              "name": "closeTimestamp",
              "type": "uint32"
            },
            {
              "internalType": "bool",
              "name": "closed",
              "type": "bool"
            },
            {
              "internalType": "bool",
              "name": "cancelled",
              "type": "bool"
            },
            {
              "components": [
                {
                  "internalType": "address",
                  "name": "user",
                  "type": "address"
                },
                {
                  "internalType": "enum CandleGeniePrediction.Position",
                  "name": "position",
                  "type": "uint8"
                },
                {
                  "internalType": "uint256",
                  "name": "amount",
                  "type": "uint256"
                },
                {
                  "internalType": "uint256",
                  "name": "timestamp",
                  "type": "uint256"
                }
              ],
              "internalType": "struct CandleGeniePrediction.Player[]",
              "name": "players",
              "type": "tuple[]"
            }
          ],
          "internalType": "struct CandleGeniePrediction.Round[]",
          "name": "",
          "type": "tuple[]"
        }
      ],
      "stateMutability": "view",
      "type": "function"
    },
    {
      "inputs": [
        {
          "internalType": "uint256",
          "name": "epoch",
          "type": "uint256"
        }
      ],
      "name": "getRoundPlayers",
      "outputs": [
        {
          "components": [
            {
              "internalType": "address",
              "name": "user",
              "type": "address"
            },
            {
              "internalType": "enum CandleGeniePrediction.Position",
              "name": "position",
              "type": "uint8"
            },
            {
              "internalType": "uint256",
              "name": "amount",
              "type": "uint256"
            },
            {
              "internalType": "uint256",
              "name": "timestamp",
              "type": "uint256"
            }
          ],
          "internalType": "struct CandleGeniePrediction.Player[]",
          "name": "",
          "type": "tuple[]"
        }
      ],
      "stateMutability": "view",
      "type": "function"
    },
    {
      "inputs": [],
      "name": "getStats",
      "outputs": [
        {
          "internalType": "uint256",
          "name": "",
          "type": "uint256"
        },
        {
          "internalType": "uint256",
          "name": "",
          "type": "uint256"
        },
        {
          "internalType": "uint256",
          "name": "",
          "type": "uint256"
        },
        {
          "internalType": "uint256",
          "name": "",
          "type": "uint256"
        },
        {
          "internalType": "uint256",
          "name": "",
          "type": "uint256"
        },
        {
          "internalType": "uint256",
          "name": "",
          "type": "uint256"
        }
      ],
      "stateMutability": "view",
      "type": "function"
    },
    {
      "inputs": [
        {
          "internalType": "address",
          "name": "user",
          "type": "address"
        }
      ],
      "name": "getUserParticipatedRounds",
      "outputs": [
        {
          "internalType": "uint256[]",
          "name": "",
          "type": "uint256[]"
        }
      ],
      "stateMutability": "view",
      "type": "function"
    },
    {
      "inputs": [
        {
          "internalType": "address",
          "name": "user",
          "type": "address"
        },
        {
          "internalType": "uint256",
          "name": "cursor",
          "type": "uint256"
        },
        {
          "internalType": "uint256",
          "name": "size",
          "type": "uint256"
        }
      ],
      "name": "getUserRounds",
      "outputs": [
        {
          "internalType": "uint256[]",
          "name": "",
          "type": "uint256[]"
        },
        {
          "components": [
            {
              "internalType": "enum CandleGeniePrediction.Position",
              "name": "position",
              "type": "uint8"
            },
            {
              "internalType": "uint256",
              "name": "betTimestamp",
              "type": "uint256"
            },
            {
              "internalType": "uint256",
              "name": "claimTimestamp",
              "type": "uint256"
            },
            {
              "internalType": "uint256",
              "name": "amount",
              "type": "uint256"
            },
            {
              "internalType": "bool",
              "name": "claimed",
              "type": "bool"
            }
          ],
          "internalType": "struct CandleGeniePrediction.Bet[]",
          "name": "",
          "type": "tuple[]"
        },
        {
          "internalType": "uint256",
          "name": "",
          "type": "uint256"
        }
      ],
      "stateMutability": "view",
      "type": "function"
    },
    {
      "inputs": [
        {
          "internalType": "address",
          "name": "user",
          "type": "address"
        }
      ],
      "name": "getUserRoundsLength",
      "outputs": [
        {
          "internalType": "uint256",
          "name": "",
          "type": "uint256"
        }
      ],
      "stateMutability": "view",
      "type": "function"
    },
    {
      "inputs": [],
      "name": "lockOnce",
      "outputs": [
        {
          "internalType": "bool",
          "name": "",
          "type": "bool"
        }
      ],
      "stateMutability": "view",
      "type": "function"
    },
    {
      "inputs": [],
      "name": "minBetAmount",
      "outputs": [
        {
          "internalType": "uint256",
          "name": "",
          "type": "uint256"
        }
      ],
      "stateMutability": "view",
      "type": "function"
    },
    {
      "inputs": [],
      "name": "owner",
      "outputs": [
        {
          "internalType": "address",
          "name": "",
          "type": "address"
        }
      ],
      "stateMutability": "view",
      "type": "function"
    },
    {
      "inputs": [],
      "name": "paused",
      "outputs": [
        {
          "internalType": "bool",
          "name": "",
          "type": "bool"
        }
      ],
      "stateMutability": "view",
      "type": "function"
    },
    {
      "inputs": [],
      "name": "priceSource",
      "outputs": [
        {
          "internalType": "string",
          "name": "",
          "type": "string"
        }
      ],
      "stateMutability": "view",
      "type": "function"
    },
    {
      "inputs": [
        {
          "internalType": "uint256",
          "name": "epoch",
          "type": "uint256"
        },
        {
          "internalType": "address",
          "name": "user",
          "type": "address"
        }
      ],
      "name": "refundable",
      "outputs": [
        {
          "internalType": "bool",
          "name": "",
          "type": "bool"
        }
      ],
      "stateMutability": "view",
      "type": "function"
    },
    {
      "inputs": [],
      "name": "rewardRate",
      "outputs": [
        {
          "internalType": "uint256",
          "name": "",
          "type": "uint256"
        }
      ],
      "stateMutability": "view",
      "type": "function"
    },
    {
      "inputs": [],
      "name": "roundDuration",
      "outputs": [
        {
          "internalType": "uint256",
          "name": "",
          "type": "uint256"
        }
      ],
      "stateMutability": "view",
      "type": "function"
    },
    {
      "inputs": [],
      "name": "startOnce",
      "outputs": [
        {
          "internalType": "bool",
          "name": "",
          "type": "bool"
        }
      ],
      "stateMutability": "view",
      "type": "function"
    },
    {
      "stateMutability": "payable",
      "type": "receive"
    }
  ],
  "bytecode": "0x6080604052605f60095560f0600a556611c37937e08000600b55600c805461ffff1916905534801561003057600080fd5b50600080546001600160a01b031916339081178255604051909182917f8be0079c531659141344cd1fd0a4f28419497f9722a3daafe3b4186f6b6457e0908290a3506000805460ff60a01b19169055600180556138e1806100926000396000f3fe6080604052600436106102545760003560e01c806383d2f5a011610139578063bc0547e3116100b6578063dfc396911161007a578063dfc39691146108b2578063e5066bbf146108d2578063eef4eeae146108f4578063f7cb789a14610914578063fa968eea1461092a578063fd5bab231461094057600080fd5b8063bc0547e314610719578063bd776d8a14610739578063c59d48471461074c578063cf48098e14610798578063d5df9d23146107b857600080fd5b8063951fd600116100fd578063951fd600146105e957806399b956a014610618578063a0c7f71c146106c6578063ba4f6737146106e6578063bb434f281461070657600080fd5b806383d2f5a01461054c5780638843013b146105545780638da5cb5b146105815780638df3f826146105a95780638f9fa51b146105c957600080fd5b8063381a5478116101d25780636985a022116101965780636985a0221461049f5780636a42c87b146104b457806376671808146104d3578063776e11dd146104e95780637b0a47ee146105165780637bf412541461052c57600080fd5b8063381a5478146103b85780633977b381146103e257806348894f0d1461044b578063490d6d111461046b5780635c975abb1461048057600080fd5b80631fa52d91116102195780631fa52d911461030057806320531bc914610320578063273867d41461034257806331c5d1371461037857806336f56ba01461039857600080fd5b806293503414610260578063120e75e81461028257806313493444146102a25780631946fb78146102cb5780631f713cae146102eb57600080fd5b3661025b57005b600080fd5b34801561026c57600080fd5b5061028061027b366004612f9b565b610955565b005b34801561028e57600080fd5b5061028061029d366004612fc9565b6109e1565b3480156102ae57600080fd5b506102b8600d5481565b6040519081526020015b60405180910390f35b3480156102d757600080fd5b506102806102e6366004612f9b565b610a1b565b3480156102f757600080fd5b50610280610a4a565b34801561030c57600080fd5b5061028061031b366004613005565b610b1c565b34801561032c57600080fd5b50610335610d17565b6040516102c29190613027565b34801561034e57600080fd5b506102b861035d366004613093565b6001600160a01b031660009081526006602052604090205490565b34801561038457600080fd5b50610280610393366004612f9b565b610da5565b3480156103a457600080fd5b506102806103b3366004612f9b565b610e21565b3480156103c457600080fd5b50600c546103d29060ff1681565b60405190151581526020016102c2565b3480156103ee57600080fd5b5061043a6103fd3660046130b5565b600460208181526000938452604080852090915291835291208054600182015460028301546003840154939094015460ff92831694919391921685565b6040516102c2959493929190613119565b34801561045757600080fd5b50610280610466366004612f9b565b610e86565b34801561047757600080fd5b50610280610eee565b34801561048c57600080fd5b50600054600160a01b900460ff166103d2565b3480156104ab57600080fd5b50610280610fa9565b3480156104c057600080fd5b50600c546103d290610100900460ff1681565b3480156104df57600080fd5b506102b860075481565b3480156104f557600080fd5b50610509610504366004612f9b565b611033565b6040516102c291906131b8565b34801561052257600080fd5b506102b860095481565b34801561053857600080fd5b506103d26105473660046130b5565b611104565b61028061134e565b34801561056057600080fd5b5061057461056f366004613093565b61137a565b6040516102c291906131fb565b34801561058d57600080fd5b506000546040516001600160a01b0390911681526020016102c2565b3480156105b557600080fd5b506102806105c4366004612f9b565b6113e6565b3480156105d557600080fd5b506102806105e436600461320e565b61142b565b3480156105f557600080fd5b50610609610604366004613283565b611924565b6040516102c2939291906132b6565b34801561062457600080fd5b50610681610633366004613093565b6005602081905260009182526040909120805460018201546002830154600384015460048501549585015460068601546007909601546001600160a01b039095169693959294919392909188565b604080516001600160a01b0390991689526020890197909752958701949094526060860192909252608085015260a084015260c083015260e0820152610100016102c2565b3480156106d257600080fd5b506103d26106e13660046130b5565b611baa565b3480156106f257600080fd5b506103d2610701366004612f9b565b611e44565b610280610714366004612f9b565b611ed5565b34801561072557600080fd5b50610280610734366004612f9b565b612233565b610280610747366004612f9b565b612357565b34801561075857600080fd5b50600d54600e54600f54601054601154601254604080519687526020870195909552938501929092526060840152608083015260a082015260c0016102c2565b3480156107a457600080fd5b506102b86107b3366004613348565b6126a3565b3480156107c457600080fd5b506108496107d3366004612f9b565b6003602081905260009182526040909120805460018201546002830154938301546004840154600585015460068601546007909601549496939593949293919290919063ffffffff80821691600160201b8104821691600160401b8204169060ff600160601b8204811691600160681b9004168c565b604080519c8d5260208d019b909b52998b019890985260608a0196909652608089019490945260a088019290925260c087015263ffffffff90811660e08701529081166101008601521661012084015215156101408301521515610160820152610180016102c2565b3480156108be57600080fd5b506102806108cd366004613093565b6126d4565b3480156108de57600080fd5b506108e76127be565b6040516102c29190613372565b34801561090057600080fd5b5061028061090f366004613487565b61296a565b34801561092057600080fd5b506102b8600a5481565b34801561093657600080fd5b506102b8600b5481565b34801561094c57600080fd5b506102806129f5565b600054600160a01b900460ff16156109885760405162461bcd60e51b815260040161097f90613538565b60405180910390fd5b61099460075482612a69565b6109ac60016007546109a69190613578565b82612c2c565b6109be60016007546107349190613578565b600780549060006109ce8361358f565b91905055506109de600754612d89565b50565b6000546001600160a01b03163314610a0b5760405162461bcd60e51b815260040161097f906135a8565b610a16838383612e5d565b505050565b6000546001600160a01b03163314610a455760405162461bcd60e51b815260040161097f906135a8565b600955565b6000546001600160a01b03163314610a745760405162461bcd60e51b815260040161097f906135a8565b600054600160a01b900460ff1615610a9e5760405162461bcd60e51b815260040161097f90613538565b600c5460ff1615610af15760405162461bcd60e51b815260206004820181905260248201527f53746172742066756e6374696f6e2063616e206f6e6c792072756e206f6e6365604482015260640161097f565b600754610aff9060016135dd565b6007819055610b0d90612d89565b600c805460ff19166001179055565b6000546001600160a01b03163314610b465760405162461bcd60e51b815260040161097f906135a8565b600054600160a01b900460ff1615610b705760405162461bcd60e51b815260040161097f90613538565b333b15610b8f5760405162461bcd60e51b815260040161097f906135f5565b333214610bae5760405162461bcd60e51b815260040161097f90613624565b610bb9600754611e44565b610bd55760405162461bcd60e51b815260040161097f9061365b565b8115610c5257600754600090815260036020526040812060018101805491928592610c019084906135dd565b90915550506007805460009081526004602090815260408083203084528252808320805460ff1916815560038101889055426001918201556006835290832093548454918201855593835291200155505b8015610cd557600754600090815260036020526040812060028101805491928492610c7e9084906135dd565b90915550506007805460009081526004602090815260408083203084528252808320805460ff1916600190811782556003820188905542918101919091556006835290832093548454918201855593835291200155505b600754604080518481526020810184905230917fe3b9e415c1ec5664bac5576f8ac4b84cacf237c6e9635809c8bc6d3fb6fd0a84910160405180910390a35050565b60088054610d2490613687565b80601f0160208091040260200160405190810160405280929190818152602001828054610d5090613687565b8015610d9d5780601f10610d7257610100808354040283529160200191610d9d565b820191906000526020600020905b815481529060010190602001808311610d8057829003601f168201915b505050505081565b600054600160a01b900460ff1615610dcf5760405162461bcd60e51b815260040161097f90613538565b600c5460ff16610e155760405162461bcd60e51b8152602060048201526011602482015270149bdd5b99081b9bdd081cdd185c9d1959607a1b604482015260640161097f565b6109be60075482612a69565b6000546001600160a01b03163314610e4b5760405162461bcd60e51b815260040161097f906135a8565b600a8190556040518181527f696fab4a25d5a0f71f21ee59aa7512cd96fe20b7a28f4e2663099566b4639d899060200160405180910390a150565b6000546001600160a01b03163314610eb05760405162461bcd60e51b815260040161097f906135a8565b600b8190556007546040518281527f82480e97991520549ac4b5d0e1d97edb3bfac2666202923b6903d2a953dc76089060200160405180910390a250565b6000546001600160a01b03163314610f185760405162461bcd60e51b815260040161097f906135a8565b600054600160a01b900460ff16610f685760405162461bcd60e51b815260206004820152601460248201527314185d5cd8589b194e881b9bdd081c185d5cd95960621b604482015260640161097f565b600c805461ffff19169055610f7b612ec7565b6007546040517f9dd715fed52c25e642f97653bb4c4339ad98fe6d6e130348be82ae5d86383a8c90600090a2565b6000546001600160a01b03163314610fd35760405162461bcd60e51b815260040161097f906135a8565b600054600160a01b900460ff1615610ffd5760405162461bcd60e51b815260040161097f90613538565b611005612f26565b6007546040517f32fb7c9891bc4f963c7de9f1186d2a7755c7d6e9f4604dabe1d8bb3027c2f49e90600090a2565b606060036000838152602001908152602001600020600801805480602002602001604051908101604052809291908181526020016000905b828210156110f957600084815260209081902060408051608081019091526003850290910180546001600160a01b03811683529192909190830190600160a01b900460ff1660018111156110c1576110c16130e1565b60018111156110d2576110d26130e1565b8152602001600182015481526020016002820154815250508152602001906001019061106b565b505050509050919050565b60008281526004602090815260408083206001600160a01b0385168452909152808220815160a08101909252805483929190829060ff16600181111561114c5761114c6130e1565b600181111561115d5761115d6130e1565b815260018281015460208084019190915260028085015460408086019190915260038087015460608088019190915260049788015460ff908116151560809889015260008e815283875284812085516101a081018752815481529881015489890152958601548886015292850154918701919091529683015495850195909552600582015460a0850152600682015460c0850152600782015463ffffffff80821660e0870152600160201b82048116610100870152600160401b820416610120860152600160601b810487161515610140860152600160681b900490951615156101608401526008810180548651818502810185019097528087529697509395929490936101808601939192909190879084015b828210156112ff57600084815260209081902060408051608081019091526003850290910180546001600160a01b03811683529192909190830190600160a01b900460ff1660018111156112c7576112c76130e1565b60018111156112d8576112d86130e1565b81526020016001820154815260200160028201548152505081526020019060010190611271565b5050505081525050905080610140015115801561131e57508160800151155b8015611334575080610120015163ffffffff1642115b80156113435750606082015115155b925050505b92915050565b6000546001600160a01b031633146113785760405162461bcd60e51b815260040161097f906135a8565b565b6001600160a01b0381166000908152600660209081526040918290208054835181840281018401909452808452606093928301828280156113da57602002820191906000526020600020905b8154815260200190600101908083116113c6575b50505050509050919050565b6000546001600160a01b031633146114105760405162461bcd60e51b815260040161097f906135a8565b6109de6114256000546001600160a01b031690565b82612f65565b60026001540361144d5760405162461bcd60e51b815260040161097f906136c1565b6002600155333b156114715760405162461bcd60e51b815260040161097f906135f5565b3332146114905760405162461bcd60e51b815260040161097f90613624565b6000805b828110156118a757600360008585848181106114b2576114b26136f8565b905060200201358152602001908152602001600020600701600c9054906101000a900460ff1615611895576114ff8484838181106114f2576114f26136f8565b9050602002013533611baa565b156118955760006003600086868581811061151c5761151c6136f8565b60209081029290920135835250818101929092526040908101600090812082516101a081018452815481526001820154818601526002820154818501526003820154606082015260048201546080820152600582015460a0820152600682015460c0820152600782015463ffffffff80821660e0840152600160201b82048116610100840152600160401b82041661012083015260ff600160601b820481161515610140840152600160681b90910416151561016082015260088201805485518188028101880190965280865291959294610180870194909391929184015b8282101561168957600084815260209081902060408051608081019091526003850290910180546001600160a01b03811683529192909190830190600160a01b900460ff166001811115611651576116516130e1565b6001811115611662576116626130e1565b815260200160018201548152602001600282015481525050815260200190600101906115fb565b50505050815250509050600081606001518260800151600460008989888181106116b5576116b56136f8565b9050602002013581526020019081526020016000206000336001600160a01b03166001600160a01b03168152602001908152602001600020600301546116fb919061370e565b611705919061372d565b905060016004600088888781811061171f5761171f6136f8565b9050602002013581526020019081526020016000206000336001600160a01b03166001600160a01b0316815260200190815260200160002060040160006101000a81548160ff0219169083151502179055504260046000888887818110611788576117886136f8565b6020908102929092013583525081810192909252604090810160009081203382529092529020600201556117bc81856135dd565b3360009081526005602052604081206006018054929650906117dd8361358f565b909155505033600090815260056020526040812060070180548392906118049084906135dd565b9091555050601180549060006118198361358f565b9190505550806012600082825461183091906135dd565b909155508690508584818110611848576118486136f8565b90506020020135336001600160a01b03167f987d620f307ff6b94d58743cb7a7509f24071586a77759b77c2d4e29f75a2f9a8360405161188a91815260200190565b60405180910390a350505b8061189f8161358f565b915050611494565b506000811161190b5760405162461bcd60e51b815260206004820152602a60248201527f4e6f7420666f756e6420616e7920656c696769626c65207265776172642f726560448201526966756e642066756e647360b01b606482015260840161097f565b801561191b5761191b3382612f65565b50506001805550565b6001600160a01b0383166000908152600660205260408120546060918291849061194f908790613578565b81111561197d576001600160a01b03871660009081526006602052604090205461197a908790613578565b90505b60008167ffffffffffffffff81111561199857611998613471565b6040519080825280602002602001820160405280156119c1578160200160208202803683370190505b50905060008267ffffffffffffffff8111156119df576119df613471565b604051908082528060200260200182016040528015611a4557816020015b611a326040805160a0810190915280600081526020016000815260200160008152602001600081526020016000151581525090565b8152602001906001900390816119fd5790505b50905060005b83811015611b8b576001600160a01b038a166000908152600660205260409020611a75828b6135dd565b81548110611a8557611a856136f8565b9060005260206000200154838281518110611aa257611aa26136f8565b60200260200101818152505060046000848381518110611ac457611ac46136f8565b602090810291909101810151825281810192909252604090810160009081206001600160a01b038e16825290925290819020815160a081019092528054829060ff166001811115611b1757611b176130e1565b6001811115611b2857611b286130e1565b815260018201546020820152600282015460408201526003820154606082015260049091015460ff1615156080909101528251839083908110611b6d57611b6d6136f8565b60200260200101819052508080611b839061358f565b915050611a4b565b508181611b98858b6135dd565b95509550955050505093509350939050565b60008281526004602090815260408083206001600160a01b0385168452909152808220815160a08101909252805483929190829060ff166001811115611bf257611bf26130e1565b6001811115611c0357611c036130e1565b815260018281015460208084019190915260028085015460408086019190915260038087015460608088019190915260049788015460ff908116151560809889015260008e815283875284812085516101a081018752815481529881015489890152958601548886015292850154918701919091529683015495850195909552600582015460a0850152600682015460c0850152600782015463ffffffff80821660e0870152600160201b82048116610100870152600160401b820416610120860152600160601b810487161515610140860152600160681b900490951615156101608401526008810180548651818502810185019097528087529697509395929490936101808601939192909190879084015b82821015611da557600084815260209081902060408051608081019091526003850290910180546001600160a01b03811683529192909190830190600160a01b900460ff166001811115611d6d57611d6d6130e1565b6001811115611d7e57611d7e6130e1565b81526020016001820154815260200160028201548152505081526020019060010190611d17565b505050508152505090508060c001518160a0015103611dc957600092505050611348565b8061014001518015611ddd57508160800151155b801561134357508060a001518160c00151138015611e0d5750600082516001811115611e0b57611e0b6130e1565b145b8061134357508060a001518160c001511280156113435750600182516001811115611e3a57611e3a6130e1565b1495945050505050565b60008181526003602052604081206007015463ffffffff1615801590611e875750600082815260036020526040902060070154600160201b900463ffffffff1615155b8015611ea9575060008281526003602052604090206007015463ffffffff1642115b8015611348575050600090815260036020526040902060070154600160201b900463ffffffff16421090565b600054600160a01b900460ff1615611eff5760405162461bcd60e51b815260040161097f90613538565b600260015403611f215760405162461bcd60e51b815260040161097f906136c1565b6002600155333b15611f455760405162461bcd60e51b815260040161097f906135f5565b333214611f645760405162461bcd60e51b815260040161097f90613624565b6007548114611fad5760405162461bcd60e51b815260206004820152601560248201527442657420697320746f6f206561726c792f6c61746560581b604482015260640161097f565b611fb681611e44565b611fd25760405162461bcd60e51b815260040161097f9061365b565b600b54341015611ff45760405162461bcd60e51b815260040161097f9061374f565b60008181526004602090815260408083203384529091529020600301541561205e5760405162461bcd60e51b815260206004820152601b60248201527f43616e206f6e6c7920626574206f6e63652070657220726f756e640000000000604482015260640161097f565b6000818152600360205260409020600181015434919061207f9083906135dd565b60018281019190915560008481526004602090815260408083203384528252808320805460ff19168155600381018790554281860155600590925282209283018690556002929092018054916120d48361358f565b909155505033600090815260056020526040812060030180548592906120fb9084906135dd565b9091555050336000818152600660209081526040808320805460018082018355918552838520018990558151608081018352808401858152958152918201889052426060830152600887018054808301825590855292909320815160039093020180546001600160a01b031981166001600160a01b039094169384178255945191948594919384926001600160a81b03199092161790600160a01b9084908111156121a8576121a86130e1565b021790555060408201516001820155606090910151600290910155600d80549060006121d38361358f565b919050555083600e60008282546121ea91906135dd565b909155505060075460405185815233907f49237630b34a73a6a12f9d3d4a305ddd6e3a359cc147ffb7a5f18c08f736bc25906020015b60405180910390a3505060018055505050565b600081815260036020819052604090912001541580156122625750600081815260036020526040902060040154155b6122ae5760405162461bcd60e51b815260206004820152601a60248201527f526577617264732063616c63756c6174656420616c7265616479000000000000604482015260640161097f565b600081815260036020526040812060028101546001820154919291829182916122d791906135dd565b90508360050154846006015413156123115783600101549250606460095482612300919061370e565b61230a919061372d565b9150612345565b8360050154846006015412156123455783600201549250606460095482612338919061370e565b612342919061372d565b91505b50600383019190915560049091015550565b600054600160a01b900460ff16156123815760405162461bcd60e51b815260040161097f90613538565b6002600154036123a35760405162461bcd60e51b815260040161097f906136c1565b6002600155333b156123c75760405162461bcd60e51b815260040161097f906135f5565b3332146123e65760405162461bcd60e51b815260040161097f90613624565b600754811461242f5760405162461bcd60e51b815260206004820152601560248201527442657420697320746f6f206561726c792f6c61746560581b604482015260640161097f565b61243881611e44565b6124545760405162461bcd60e51b815260040161097f9061365b565b600b543410156124765760405162461bcd60e51b815260040161097f9061374f565b6000818152600460209081526040808320338452909152902060030154156124e05760405162461bcd60e51b815260206004820152601b60248201527f43616e206f6e6c7920626574206f6e63652070657220726f756e640000000000604482015260640161097f565b600081815260036020526040902060028101543491906125019083906135dd565b600282015560008381526004602081815260408084203385528252808420805460ff19166001908117825560038201889055428183015560059093529084209182018790559101805491926125558361358f565b9091555050336000908152600560208190526040822001805485929061257c9084906135dd565b9091555050336000818152600660209081526040808320805460018082018355918552838520018990558151608081018352948552848301818152918501889052426060860152600887018054808301825590855292909320845160039093020180546001600160a01b039093166001600160a01b0319841681178255915185949193909284926001600160a81b03199092161790600160a01b908490811115612628576126286130e1565b021790555060408201516001820155606090910151600290910155600f80549060006126538361358f565b9190505550836010600082825461266a91906135dd565b9091555050604051848152859033907f93349b5cb1cdd80ea47c8a040b8c0e31e219e0665c1eb33d9a7b2d3fad11e22490602001612220565b600660205281600052604060002081815481106126bf57600080fd5b90600052602060002001600091509150505481565b6000546001600160a01b031633146126fe5760405162461bcd60e51b815260040161097f906135a8565b6001600160a01b0381166127635760405162461bcd60e51b815260206004820152602660248201527f4f776e61626c653a206e6577206f776e657220697320746865207a65726f206160448201526564647265737360d01b606482015260840161097f565b600080546040516001600160a01b03808516939216917f8be0079c531659141344cd1fd0a4f28419497f9722a3daafe3b4186f6b6457e091a3600080546001600160a01b0319166001600160a01b0392909216919091179055565b60606002805480602002602001604051908101604052809291908181526020016000905b828210156129615760008481526020808220604080516101a08101825260098702909201805483526001810154838501526002810154838301526003810154606084015260048101546080840152600581015460a0840152600681015460c0840152600781015463ffffffff80821660e0860152600160201b82048116610100860152600160401b82041661012085015260ff600160601b820481161515610140860152600160681b9091041615156101608401526008810180548351818702810187019094528084529395919461018087019491929084015b8282101561294a57600084815260209081902060408051608081019091526003850290910180546001600160a01b03811683529192909190830190600160a01b900460ff166001811115612912576129126130e1565b6001811115612923576129236130e1565b815260200160018201548152602001600282015481525050815260200190600101906128bc565b5050505081525050815260200190600101906127e2565b50505050905090565b6000546001600160a01b031633146129945760405162461bcd60e51b815260040161097f906135a8565b60008151116129e55760405162461bcd60e51b815260206004820152601d60248201527f507269636520736f757263652063616e206e6f7420626520656d707479000000604482015260640161097f565b60086129f182826137eb565b5050565b6000546001600160a01b03163314612a1f5760405162461bcd60e51b815260040161097f906135a8565b600080546040516001600160a01b03909116907f8be0079c531659141344cd1fd0a4f28419497f9722a3daafe3b4186f6b6457e0908390a3600080546001600160a01b0319169055565b60008281526003602052604081206007015463ffffffff169003612ae35760405162461bcd60e51b815260206004820152602b60248201527f43616e206f6e6c79206c6f636b20726f756e6420616674657220726f756e642060448201526a1a185cc81cdd185c9d195960aa1b606482015260840161097f565b600082815260036020526040902060070154600160201b900463ffffffff16421015612b625760405162461bcd60e51b815260206004820152602860248201527f43616e206f6e6c79206c6f636b20726f756e64206166746572206c6f636b20746044820152670696d657374616d760c41b606482015260840161097f565b600082815260036020526040902060070154600160401b900463ffffffff16421115612bdb5760405162461bcd60e51b815260206004820152602260248201527f43616e206f6e6c79206c6f636b206265666f726520656e642074696d6573746160448201526106d760f41b606482015260840161097f565b60008281526003602090815260409182902060058101849055915183815284917fed3d5364266a40b08be3572a189b162355beff1b143e03774e5cd7c94f22403591015b60405180910390a2505050565b600082815260036020526040812060070154600160201b900463ffffffff169003612cab5760405162461bcd60e51b815260206004820152602960248201527f43616e206f6e6c7920656e6420726f756e6420616674657220726f756e642068604482015268185cc81b1bd8dad95960ba1b606482015260840161097f565b600082815260036020526040902060070154600160401b900463ffffffff16421015612d2a5760405162461bcd60e51b815260206004820152602860248201527f43616e206f6e6c7920656e6420726f756e6420616674657220636c6f736520746044820152670696d657374616d760c41b606482015260840161097f565b600082815260036020526040908190206006810183905560078101805460ff60601b1916600160601b179055905183907fdce8257390bdfa785e27c9715109e4b503b3006d9f4ea2d1f689e77e8a41713e90612c1f9085815260200190565b600081815260036020526040902060078101805463ffffffff19164263ffffffff811691909117909155600a54612dbf916135dd565b60078201805463ffffffff92909216600160201b0267ffffffff0000000019909216919091179055600a54612df590600261370e565b612dff90426135dd565b60078201805463ffffffff92909216600160401b026bffffffff00000000000000001990921691909117905581815560405182907f33a701182892fd888ed152ca2ac23771a32e814469b7cd255965471e1af3a65990600090a25050565b60008381526003602052604080822060078101805461ffff60601b1916600160681b8715150260ff60601b191617600160601b861515021790559051909185917f2cb29a2ef221b0c3a14c1ad2f16e14ebd400af83556f5592b6e2689539daafa29190a250505050565b600054600160a01b900460ff16612f175760405162461bcd60e51b815260206004820152601460248201527314185d5cd8589b194e881b9bdd081c185d5cd95960621b604482015260640161097f565b6000805460ff60a01b19169055565b600054600160a01b900460ff1615612f505760405162461bcd60e51b815260040161097f90613538565b6000805460ff60a01b1916600160a01b179055565b6040516001600160a01b0383169082156108fc029083906000818181858888f19350505050158015610a16573d6000803e3d6000fd5b600060208284031215612fad57600080fd5b5035919050565b80358015158114612fc457600080fd5b919050565b600080600060608486031215612fde57600080fd5b83359250612fee60208501612fb4565b9150612ffc60408501612fb4565b90509250925092565b6000806040838503121561301857600080fd5b50508035926020909101359150565b600060208083528351808285015260005b8181101561305457858101830151858201604001528201613038565b81811115613066576000604083870101525b50601f01601f1916929092016040019392505050565b80356001600160a01b0381168114612fc457600080fd5b6000602082840312156130a557600080fd5b6130ae8261307c565b9392505050565b600080604083850312156130c857600080fd5b823591506130d86020840161307c565b90509250929050565b634e487b7160e01b600052602160045260246000fd5b6002811061311557634e487b7160e01b600052602160045260246000fd5b9052565b60a0810161312782886130f7565b85602083015284604083015283606083015282151560808301529695505050505050565b600081518084526020808501945080840160005b838110156131ad57815180516001600160a01b0316885283810151613186858a01826130f7565b5060408181015190890152606090810151908801526080909601959082019060010161315f565b509495945050505050565b6020815260006130ae602083018461314b565b600081518084526020808501945080840160005b838110156131ad578151875295820195908201906001016131df565b6020815260006130ae60208301846131cb565b6000806020838503121561322157600080fd5b823567ffffffffffffffff8082111561323957600080fd5b818501915085601f83011261324d57600080fd5b81358181111561325c57600080fd5b8660208260051b850101111561327157600080fd5b60209290920196919550909350505050565b60008060006060848603121561329857600080fd5b6132a18461307c565b95602085013595506040909401359392505050565b600060608083526132c9818401876131cb565b83810360208581019190915286518083528782019282019060005b818110156133315784516132f98482516130f7565b80850151848601526040808201519085015286810151878501526080908101511515908401529383019360a0909201916001016132e4565b505080945050505050826040830152949350505050565b6000806040838503121561335b57600080fd5b6133648361307c565b946020939093013593505050565b60006020808301818452808551808352604092508286019150828160051b87010184880160005b8381101561346357888303603f1901855281518051845287810151888501528681015187850152606080820151908501526080808201519085015260a0808201519085015260c0808201519085015260e08082015163ffffffff908116918601919091526101008083015182169086015261012080830151909116908501526101408082015115159085015261016080820151151590850152610180908101516101a09185018290529061344f8186018361314b565b968901969450505090860190600101613399565b509098975050505050505050565b634e487b7160e01b600052604160045260246000fd5b60006020828403121561349957600080fd5b813567ffffffffffffffff808211156134b157600080fd5b818401915084601f8301126134c557600080fd5b8135818111156134d7576134d7613471565b604051601f8201601f19908116603f011681019083821181831017156134ff576134ff613471565b8160405282815287602084870101111561351857600080fd5b826020860160208301376000928101602001929092525095945050505050565b60208082526010908201526f14185d5cd8589b194e881c185d5cd95960821b604082015260600190565b634e487b7160e01b600052601160045260246000fd5b60008282101561358a5761358a613562565b500390565b6000600182016135a1576135a1613562565b5060010190565b6020808252818101527f4f776e61626c653a2063616c6c6572206973206e6f7420746865206f776e6572604082015260600190565b600082198211156135f0576135f0613562565b500190565b60208082526015908201527410dbdb9d1c9858dd1cc81b9bdd08185b1b1bddd959605a1b604082015260600190565b6020808252601b908201527f50726f787920636f6e747261637473206e6f7420616c6c6f7765640000000000604082015260600190565b602080825260129082015271526f756e64206e6f74206265747461626c6560701b604082015260600190565b600181811c9082168061369b57607f821691505b6020821081036136bb57634e487b7160e01b600052602260045260246000fd5b50919050565b6020808252601f908201527f5265656e7472616e637947756172643a207265656e7472616e742063616c6c00604082015260600190565b634e487b7160e01b600052603260045260246000fd5b600081600019048311821515161561372857613728613562565b500290565b60008261374a57634e487b7160e01b600052601260045260246000fd5b500490565b6020808252602e908201527f42657420616d6f756e74206d7573742062652067726561746572207468616e2060408201526d1b5a5b9a5b5d5b48185b5bdd5b9d60921b606082015260800190565b601f821115610a1657600081815260208120601f850160051c810160208610156137c45750805b601f850160051c820191505b818110156137e3578281556001016137d0565b505050505050565b815167ffffffffffffffff81111561380557613805613471565b613819816138138454613687565b8461379d565b602080601f83116001811461384e57600084156138365750858301515b600019600386901b1c1916600185901b1785556137e3565b600085815260208120601f198616915b8281101561387d5788860151825594840194600190910190840161385e565b508582101561389b5787850151600019600388901b60f8161c191681555b5050505050600190811b0190555056fea26469706673582212208d332bf41a7f1925082581ba0052f2c08a6ff02ea85c107076cc083fc9ac56ad64736f6c634300080f0033",
  "linkReferences": {},
  "deployedLinkReferences": {}
}